:020000040000FA
:060000000A128A110C280F
:10000800FE00030EF1000A08F2000A128A111C28E9
:100018000A128A110F28F801F901FA01FB01FC0103
:1000280083120313A001A10183010A128A11DD289A
:10003800831203138C1D212822287A281412141BDA
:10004800262827282B28941F2A282B2832281308EB
:10005800F0007008FC00141394131416831603138D
:10006800941A37283828562814193B283C2856282B
:10007800831203131308F0007008FC008C11141687
:1000880083160313141C49284A284428831203138F
:100098001308F0007008F800A630F000F00B5228A2
:1000A80000007728941A59285A287728141D5D28A3
:1000B8005E287728831203131308F0007008FC00E9
:1000C800831603131410780883120313930014166D
:1000D800A630F000F00B6E280000831603131418E6
:1000E800762877287128831203138C1172088A00E6
:1000F800710E8300FE0E7E0E0900F500B9288316E6
:1001080003130F128F120F13DB28831603130F1616
:100118008F120F13DB28831603130F128F160F137A
:10012800DB28831603130F168F160F13DB2883168D
:1001380003130F128F120F17DB28831603130F16E2
:100148008F120F17DB28831603130F128F160F1742
:10015800DB28831603130F168F160F17DB28831659
:1001680003130F128F160F17DB287508F300F4011D
:100178007408003A0319C128B3287308003A031910
:100188008328013A03198928033A03198F28013A69
:1001980003199528073A03199B28013A0319A1283E
:1001A800033A0319A728013A0319AD28B3280F14F5
:1001B800080007300A128A1181200A128A110A12CD
:1001C8008A113E210A128A110A128A1152210A1230
:1001D8008A11831203138501860187018801003083
:1001E8008312031308180130F9007903031DFD2851
:1001F800FE2800298814012988100330F700973059
:10020800F600F60B0529F70B05290A2983120313B3
:100218001F119F111F129F121F140C139F141E08E9
:10022800F6007608F8000D30F700FB30F600F60B04
:100238001B29F70B1B292029F3280A128A110C28DD
:10024800F3007308831603139300363083120313E5
:1002580094008030831603139400013091008715B1
:1002680007168B170B17831203138C1183160313AE
:100278008C15080001308316031385008601870159
:100288000130880001308316031788008901C030C7
:100298000A128A1124210A128A11080083120313F0
:1002A8001F139F17831603139F131F129F12831286
:0602B80003131F140800EF
:04400E00D4E0FFFFFC
:00000001FF
