:020000040000FA
:060000000A128A11EA2F2A
:10000C00F501F6017008710403190D280E28452816
:10001C00F701F70A1C2801300310F00DF10DFF3E1B
:10002C00031D12280130F4007408F707F11F1F2874
:10003C002028112801300310F50DF60DFF3E031D8D
:10004C00212871087302031D2D2870087202031CED
:10005C003028312838287008F2027108031CF30389
:10006C00F302751401300310F10CF00CFF3E031D6C
:10007C0039280130F702031D44284528202876082A
:10008C00F1007508F0000800831203134208803950
:10009C00C7004708CF004208C7004707C8004808F8
:1000AC00D100C11F5A285B285C2851145108031930
:1000BC00602861287128510A031D652866286E285E
:1000CC000030C2000030C1000030C0000030BF0062
:1000DC00C117C20179280030C2000030C1000030C5
:1000EC00C0000030BF0046088039C7004708D00068
:1000FC0050084F0603198328842885284F17460873
:10010C00C7004707C8004808D000C51F8E288F2895
:10011C00902850145008031994289528A528500AA3
:10012C00031D99289A28A2280030C6000030C5006B
:10013C000030C4000030C300C517C601AD28003024
:10014C00C6000030C5000030C4000030C3005108A8
:10015C0050020318B228B328F7284F1FB628B72827
:10016C00BB288030C7004708CF065108C700470896
:10017C00D2005008C7004708D1005208C7004708F2
:10018C00D0003F08C7004708D2004308C700470803
:10019C00BF005208C7004708C3004008C700470803
:1001AC00D2004408C7004708C0005208C7004708DF
:1001BC00C4004108C7004708D2004508C7004708DB
:1001CC00C1005208C7004708C5004208C7004708CD
:1001DC00D2004608C7004708C2005208C7004708AB
:1001EC00C600D2015008C700C8014808CA0051080F
:1001FC004702C900031CCA034A08803AFF0080303A
:10020C007F02031D0B291A304902031C0E290F29EA
:10021C004C29831203134208410440043F04031D7C
:10022C0018291A2901301B290030C7004708D200B1
:10023C000030C2000030C1000030C0000030BF00F0
:10024C005008C7004708D1005429521C2E292F29C9
:10025C0038295208C7000310470C0138C800480859
:10026C00D2003A290310D20C3F1C3D293E293F29CC
:10027C00D2170130C700420DC20CC10CC00CBF0C10
:10028C00C70B41290130C7004708D107831203135C
:10029C0050085102031C532954292B294F1B572951
:1002AC005829A3295108031D5C295D2966290030B2
:1002BC00C2000030C1000030C0000030BF00D12AA5
:1002CC004308BF07440803110318013E03196F29A3
:1002DC00C007450803110318013E03197629C1070D
:1002EC00460803110318013E03197D29C207421C5D
:1002FC0080298129572A521C842985298E29520844
:10030C00C7000310470C0138C8004808D2009029D8
:10031C000310D20C3F1C932994299529D217013034
:10032C00C700420DC20CC10CC00CBF0CC70B9729E7
:10033C000130C7004708D107572A4208803AFF000E
:10034C004608803A7F02031DB52945084102031D6A
:10035C00B52944084002031DB52943083F02031880
:10036C00B829B929112AFF30C700FF30C800FF3067
:10037C00C900FF30CA004308CB004408CC00450834
:10038C00CD004608CE003F08CB024008031C400FAE
:10039C00D029D129CC024108031C410FD629D729D9
:1003AC00CD024208031C420FDC29DD29CE024B088A
:1003BC00C7074C0803184C0FE429E529C8074D085A
:1003CC0003184D0FEA29EB29C9074E0803184E0AEA
:1003DC00CA074A08C2004908C1004808C0004708BB
:1003EC00BF008030C7004708CF06D209D20A520896
:1003FC00031D012A022A1F2A0130BF0700300318EF
:10040C000130C007003003180130C1070030031859
:10041C000130C2071F2A4308BF024408031C440FC3
:10042C00C0024508031C450FC1024608031C460FB9
:10043C00C2024208410440043F04031D262A272A15
:10044C00532A5208031D2B2A2C2A532A0030C2008F
:10045C000030C1000030C0000030BF00D12A013094
:10046C00C7000310BF0DC00DC10DC20DC70B372A3D
:10047C00D21F412A422A432A3F14521C462A472A99
:10048C004A2A0314D20D4C2A0310D20D5108031919
:10049C00502A512A532A0130D102C11F562A572AF9
:1004AC00352AD001D21F5B2A5C2A6A2A52087F396E
:1004BC000319612A622A652AD001D00A6A2A3F1CD4
:1004CC00682A692A6A2A622A500803196E2A6F2A36
:1004DC00A32A0130BF07003003180130C0070030D9
:1004EC0003180130C107003003180130C207421C49
:1004FC00802A812AA32A3F08C7004008C800410867
:10050C00C9004208CA000130CB004A0DCA0CC90C04
:10051C00C80CC70CCB0B8B2A4A08C2004908C10077
:10052C004808C0004708BF00510A03199E2A9F2A99
:10053C00A32A0130C7004708D107510A0319A72A7B
:10054C00A82AAD2A5108031DAC2AAD2ABB2A0030BB
:10055C00C2000030C1000030C0000030BF005108A4
:10056C00031DB92ABA2ABB2ACF01511CBE2ABF2AA5
:10057C00C12AC117C52A7F30C7004708C1055108D9
:10058C00C7000310470CC8004808C200CF1FCF2A71
:10059C00D02AD12AC217080007300A168A118224E1
:1005AC000A128A110A168A1146220A128A110A168E
:1005BC008A1160220A128A11003083120313A900D7
:1005CC000030A8002530A7008030A6000A168A113A
:1005DC00A0250A128A118312031385018601870153
:1005EC008801023083160313E4006408F300013021
:1005FC000A168A11FC220A128A1143300A128A1531
:10060C0003200A128A11063083160313E4006408CF
:10061C00F30001300A168A11FC220A128A114730A3
:10062C000A128A1503200A128A110A308316031340
:10063C00E4006408F30001300A168A11FC220A1245
:10064C008A113B300A128A1503200A128A110A16E3
:10065C008A11DE210A128A113130F0000030F100CB
:10066C000A168A11F0210A128A110030F000F100EA
:10067C000A168A11CF220A128A11700883160313E4
:10068C00E4006408CC000A168A11E7210A128A11C8
:10069C00033083160313E6000830E5007630E400DF
:1006AC00E40B562BE50B562BE60B562B00000A16CB
:1006BC008A11DE210A128A116130F0000030F1003B
:1006CC000A168A11F0210A128A110030F000F1008A
:1006DC000A168A11CF220A128A1170088316031384
:1006EC00E4006408CB000A168A11E7210A128A1169
:1006FC00033083160313E6000830E5007630E4007F
:10070C00E40B862BE50B862BE60B862B00000A16DA
:10071C008A11DE210A128A119130F0000030F100AA
:10072C000A168A11F0210A128A110030F000F10029
:10073C000A168A11CF220A128A1170088316031323
:10074C00E4006408CA000A168A11E7210A128A1109
:10075C00033083160313E6000830E5007630E4001E
:10076C00E40BB62BE50BB62BE60BB62B00000A16EA
:10077C008A11DE210A128A11C130F0000030F1001A
:10078C000A168A11F0210A128A110030F000F100C9
:10079C000A168A11CF220A128A11700883160313C3
:1007AC00E4006408CD000A168A11E7210A128A11A6
:1007BC00033083160313E6000830E5007630E400BE
:1007CC00E40BE62BE50BE62BE60BE62B00000A16FA
:1007DC008A11DE210A128A11F130F0000030F1008A
:1007EC000A168A11F0210A128A110030F000F10069
:1007FC000A168A11CF220A128A1170088316031363
:10080C00E4006408C9000A168A11E7210A128A1149
:10081C00033083160313E6000830E5007630E4005D
:10082C00E40B162CE50B162CE60B162C000083168D
:10083C0003134C03031D232C242C352C0230E40011
:10084C006408F30002300A168A11FC220A128A117B
:10085C003F300A128A1503200A128A11452C0230E5
:10086C00E4006408F30002300A168A11FC220A1212
:10087C008A114B300A128A1503200A128A11831628
:10088C0003134B03031D4B2C4C2C5D2C0A30E40042
:10089C006408F30002300A168A11FC220A128A112B
:1008AC004B300A128A1503200A128A116D2C0A3059
:1008BC00E4006408F30002300A168A11FC220A12C2
:1008CC008A113F300A128A1503200A128A118316E4
:1008DC0003134A03031D732C742C852C0630E4007F
:1008EC006408F30002300A168A11FC220A128A11DB
:1008FC004B300A128A1503200A128A11952C0630E5
:10090C00E4006408F30002300A168A11FC220A1271
:10091C008A113F300A128A1503200A128A111530E7
:10092C0083160313E6004B30E500BD30E400E40B06
:10093C009D2CE50B9D2CE60B9D2CA42C01300A164E
:10094C008A1122220A128A11023083160313E40040
:10095C006408F30001300A168A11FC220A128A116B
:10096C0036300A128A1503200A128A1108308316AF
:10097C000313E4006408F30001300A168A11FC2208
:10098C000A128A1131300A128A1503200A128A11AE
:10099C00023083160313E4006408F30002300A16D5
:1009AC008A11FC220A128A112E300A168A1134225C
:1009BC000A128A11043083160313E4006408F3004E
:1009CC0002300A168A11FC220A128A11DF300A162A
:1009DC008A1134220A128A11053083160313E4009B
:1009EC006408F30002300A168A11FC220A128A11DA
:1009FC0043300A168A1134220A128A110B308316DC
:100A0C000313E4006408F30002300A168A11FC2276
:100A1C000A128A1167300A168A1134220A128A11B4
:100A2C00BF3083120313C2008030C1000030C000FD
:100A3C000030BF00831603134D08E400E501E60106
:100A4C00E7016708F3006608F2006508F100640826
:100A5C00F00000300A168A1146270A128A11730810
:100A6C0083120313A8007208A7007108A60070086F
:100A7C00A5004430AC007F30AB00C030AA00003081
:100A8C00A9000A128A15C2220A128A1183120313B0
:100A9C002808C6002708C5002608C4002508C3007E
:100AAC000A128A114A200A128A118312031342086D
:100ABC0083160313EB0083120313410883160313ED
:100ACC00EA0083120313400883160313E900831210
:100ADC0003133F0883160313E8006B08E1006A0850
:100AEC00E0006908DF006808DE000A128A1576212A
:100AFC000A128A11831603136108EF006008EE00D6
:100B0C005F08ED005E08EC003B3083120313C2005B
:100B1C005B30C100CF30C0000F30BF003930D60081
:100B2C009B30D5001D30D4006330D30083160313E3
:100B3C006F0883120313DA00831603136E088312F3
:100B4C000313D900831603136D0883120313D80003
:100B5C00831603136C0883120313D7000A128A1529
:100B6C009F240A128A11831203135608C6005508D3
:100B7C00C5005408C4005308C3000A128A114A2045
:100B8C000A128A11831203134208A8004108A70015
:100B9C004008A6003F08A5003F30AC008030AB00F9
:100BAC000030AA000030A9000A128A15C2220A12CB
:100BBC008A1183120313280883160313A7008312C8
:100BCC000313270883160313A600831203132608A6
:100BDC0083160313A500831203132508831603132E
:100BEC00A400C33083120313C2009230C1009330AF
:100BFC00C0003330BF00831603132708831203137E
:100C0C00C60083160313260883120313C50083162C
:100C1C000313250883120313C4008316031324083B
:100C2C0083120313C3000A128A114A200A128A1172
:100C3C0083120313420883160313A30083120313B6
:100C4C00410883160313A200831203134008831672
:100C5C000313A100831203133F0883160313A00090
:100C6C00423083120313A8004C30A7000030A600BA
:100C7C000030A500831603134D08E400E501E601DE
:100C8C00E7016708F3006608F2006508F1006408E4
:100C9C00F00001300A168A1146270A128A117308CD
:100CAC0083120313AC007208AB007108AA00700821
:100CBC00A9000A128A15C2220A128A11831203137E
:100CCC00280883160313AF00831203132708831617
:100CDC000313AE0083120313260883160313AD000F
:100CEC0083120313250883160313AC0041308312BF
:100CFC000313D6002030D5000030D4000030D300D0
:100D0C0083160313230883120313DA0083160313C9
:100D1C00220883120313D9008316031321088312AC
:100D2C000313D80083160313200883120313D70070
:100D3C000A128A159F240A128A1183120313560869
:100D4C0083160313AB008312031355088316031386
:100D5C00AA0083120313540883160313A9008312E9
:100D6C000313530883160313A8002B08F3002A0857
:100D7C00F2002908F1002808F0000A128A15222036
:100D8C000A128A11710883160313BD007008BC0087
:100D9C000A30F0000030F1003D08F3003C08F2008E
:100DAC000A168A1162230A128A1170088316031319
:100DBC00E4006408C4000A30F0000030F1003D0883
:100DCC00F3003C08F2000A128A1106200A128A115A
:100DDC00710883160313BB007008BA000A30F000C8
:100DEC000030F1003B08F3003A08F2000A168A11B1
:100DFC0062230A128A11700883160313E400640834
:100E0C00C5000A30F0000030F1003B08F3003A084E
:100E1C00F2000A128A1106200A128A11700883162F
:100E2C000313E4006408C7000A30F0000030F1003E
:100E3C004708E400E5016408F2006508F3000A16AF
:100E4C008A1129240A128A11700883160313E600EA
:100E5C006608C800F30102300A168A11FC220A1235
:100E6C008A118316031348080A168A119C230A1246
:100E7C008A110A168A1134220A128A11F301F30A12
:100E8C0002300A168A11FC220A128A1183160313E5
:100E9C0045080A168A119C230A128A110A168A110D
:100EAC0034220A128A11033083160313E4006408F7
:100EBC00F30002300A168A11FC220A128A118316D8
:100ECC00031344080A168A119C230A128A110A1663
:100EDC008A1134220A128A11153083160313E60084
:100EEC004B30E500BD30E400E40B7A2FE50B7A2F94
:100EFC00E60B7A2F812F01300A168A1122220A1250
:100F0C008A11831603134C080A168A11FA210A1245
:100F1C008A111A3083160313E500F730E400E40B52
:100F2C00952FE50B952F9A2F831603134B080A1652
:100F3C008A11FA210A128A111A3083160313E5005A
:100F4C00F730E400E40BA82FE50BA82FAD2F831688
:100F5C0003134A080A168A11FA210A128A111A3046
:100F6C0083160313E500F730E400E40BBB2FE50B0D
:100F7C00BB2FC02F831603134D080A168A11FA21B2
:100F8C000A128A111A3083160313E500F730E400B5
:100F9C00E40BCE2FE50BCE2FD32F8316031349086A
:100FAC000A168A11FA210A128A111A3083160313AF
:100FBC00E500F730E400E40BE12FE50BE12FE62F21
:100FCC00F72A0A128A11002883120313EE018313E5
:100FDC00A0308400CE300A168A11D6210A128A114A
:100FEC0083160317900191019201930183010A1258
:040FFC008A11D22A5A
:10100600F4001528740884000A168A1100200A12B2
:101016008A150A168A1134220A128A150130F3003B
:101026007308F407740884000A168A1100200A124D
:101036008A15003A031D20282128052808000310D8
:10104600720D730DF4007408FA007A08031D2C283B
:101056002D2836280030F3000030F2000030F10071
:101066000030F0009B287008F4007108F500720843
:10107600F6007308F7001F300310F70CF60CF50C9A
:10108600F40CFF3E031D3F287408F8007808F900A9
:10109600F217FF30F005FF30F105FF30F2050030A2
:1010A600F3059630FA02FA1F59285A2874287A0846
:1010B600803A973E03186028612862282D2801305F
:1010C6000310F30CF20CF10CF00CFF3E031D632829
:1010D6000130F4007408FA07031D72287328622889
:1010E6008B2820307A02031C79287A2886282D2816
:1010F6000130F4000310F00DF10DF20DF30DF40BB9
:101106007D280130FA027A08031D8A288B287B285D
:10111600790803198F2890289B28F009F109F2090C
:10112600F309F00A0319F10A0319F20A0319F30A7B
:101136000800831603135308D50001300310D50D9C
:10114600FF3E031DA1280310550D520784000A1601
:101156008A1100200A128A15D6000A168A11002062
:101166000A128A15D7000A168A1100200A128A1551
:10117600D8000A168A1100200A128A15D9005908C1
:10118600DD005808DC005708DB005608DA0067293E
:10119600FF30D3070318D40AFF30D4075308D5000D
:1011A60001300310D50DFF3E031DD4280310550D45
:1011B600520784000A168A1100200A128A15D600E0
:1011C6000A168A1100200A128A15D7000A168A11F1
:1011D60000200A128A15D8000A168A1100200A125F
:1011E6008A15D900590883120313C2008316031304
:1011F600580883120313C10083160313570883127A
:101206000313C00083160313560883120313BF008B
:10121600831603135D0883120313D6008316031384
:101226005C0883120313D500831603135B0883122D
:101236000313D400831603135A0883120313D3002F
:1012460083160313510883120313DA00831603135C
:10125600500883120313D900831603134F08831211
:101266000313D800831603134E0883120313D70003
:101276000A128A159F240A128A1583120313560826
:10128600C6005508C5005408C4005308C3000A1216
:101296008A114A200A128A158312031342088316FA
:1012A6000313DD0083120313410883160313DC00C6
:1012B60083120313400883160313DB008312031300
:1012C6003F0883160313DA0053085404031D6C29E0
:1012D6006D29CB285D08D1005C08D0005B08CF00E3
:1012E6005A08CE000800831603136108F30060084D
:1012F600F2005F08F1005E08F0000030F7000030F1
:10130600F6000030F5000030F4000A168A11A42613
:101316000A128A15031890299129A02921308316CB
:101326000313B4000030B5000030E1000030E000E7
:101336000030DF000030DE00C12A83160313610887
:10134600F3006008F2005F08F1005E08F00000306C
:10135600F7000030F6000030F5000030F4000A1601
:101366008A11DB230A128A15031CBA29BB29CA294A
:10137600223083160313B4000030B5000030E100BC
:101386000030E0000030DF000030DE00C12ABF3050
:1013960083120313C2008030C1000030C000003049
:1013A600BF004030D6000030D5000030D4000030F9
:1013B600D300E230ED006D08A40083160313610824
:1013C60083120313A3008316031360088312031307
:1013D600A200831603135F0883120313A10083166A
:1013E60003135E0883120313A0000A168A11DE2473
:1013F6000A128A15831203132308DA002208D90079
:101406002108D8002008D7000A128A159F240A123C
:101416008A15831203135608C6005508C5005408DA
:10142600C4005308C3000A128A114A200A128A15F8
:1014360083120313420883160313E1008312031376
:10144600410883160313E000831203134008831632
:101456000313DF00831203133F0883160313DE0012
:10146600FF30E2070318E30AFF30E3076108D10003
:101476006008D0005F08CF005E08CE0005308312FA
:101486000313ED006D0883160313D2000830D30052
:101496000030D4000A128A159C200A128A15831677
:1014A60003135108E1005008E0004F08DF004E0822
:1014B600DE00610883120313C2008316031360085B
:1014C60083120313C100831603135F0883120313E9
:1014D600C000831603135E0883120313BF003F3058
:1014E600D6003130D5007230D4001830D3008316C0
:1014F60003136208F0006308F1000030F11BFF30AF
:10150600F200F30001300A168A1146270A128A15DC
:10151600730883120313DA007208D9007108D80021
:101526007008D7000A128A159F240A128A15831298
:1015360003135608C6005508C5005408C4005308CE
:10154600C3000A128A114A200A128A15831203134B
:10155600420883160313E10083120313410883161E
:101566000313E00083120313400883160313DF00FE
:10157600831203133F0883160313DE000800831249
:1015860003132C088039AD002D08B6002C08AD00D9
:101596002D07AE002E08BD00AB1FD22AD32AD42AAF
:1015A6003D143D080319D82AD92AE92A3D0A031D04
:1015B600DD2ADE2AE62A0030AC000030AB0000301F
:1015C600AA000030A900AB17AC01F12A0030AC002C
:1015D6000030AB000030AA000030A900280880398E
:1015E600AD002D08B6062808AD002D07AE002E0862
:1015F600BE00A71FFF2A002B012B3E143E0803192D
:10160600052B062B162B3E0A031D0A2B0B2B132B21
:101616000030A8000030A7000030A6000030A5006A
:10162600A717A8011E2B0030A8000030A700003025
:10163600A6000030A5002808270426042504031D5B
:10164600252B262B3F2B0030AC000030AB000030A2
:10165600AA000030A9008030AB047F30AC04360805
:10166600AD002D08AC042C08A8002B08A7002A08FA
:10167600A6002908A5009E2C3D08031D432B442BDC
:101686004D2B0030A8000030A7000030A600003027
:10169600A5009E2C3D08AD00AE012E08B0003E0808
:1016A6002D02AF00031CB0032F087F3EB7003008A1
:1016B6000318013E003EB8002C08B5002B08B40004
:1016C6002A08B3002908B2000030AC000030AB0095
:1016D6000030AA000030A9000030BC000030BB007A
:1016E6000030BA000030B900BE01C32B3E08031912
:1016F6007D2B7E2B9E2B0130AD000310B20DB30D5A
:10170600B40DB50DAD0B802B0130AD000310A90D46
:10171600AA0DAB0DAC0DAD0B892BBC1F932B942BD7
:10172600952B29140130AD000310B90DBA0DBB0D70
:10173600BC0DAD0B972B28083502031DAC2B2708D3
:101746003402031DAC2B26083302031DAC2B2508DF
:101756003202031CAF2BB02BBF2B3C172508B2025D
:101766002608031C260FB3022708031C270FB40202
:101776002808031C280FB5020130AD002D08BE074E
:101786001A303E02031CC82BC92B792B35083404AA
:10179600330432040319D02BD12BF02B3914F02B40
:1017A6000130AD000310A90DAA0DAB0DAC0DAD0BAC
:1017B600D52BBC1FDF2BE02BE12B29140130AD000C
:1017C6000310B90DBA0DBB0DBC0DAD0BE32BFF30ED
:1017D600B7070318B80AFF30B807AB1FF32BF42B73
:1017E600D32BBE01BC1FF82BF92B152CFF30390566
:1017F600AD00FF303A05AE00FF303B05AF007F304D
:101806003C05B00030082F042E042D0403190C2CBF
:101816000D2C102CBE01BE0A152C291C132C142CC1
:10182600152C0D2C3E080319192C1A2C4B2C0130A3
:10183600A907003003180130AA0700300318013049
:10184600AB07003003180130AC072C1C2B2C2C2CBA
:101856004B2C2908AD002A08AE002B08AF002C0837
:10186600B0000130B100300DB00CAF0CAE0CAD0CB9
:10187600B10B362C3008AC002F08AB002E08AA009E
:101886002D08A9000130B7070318B80A0030B807B9
:101896003808803AFF0080307F02031D542CFF3049
:1018A6003702031C572C582C662CFF308312031367
:1018B600B7000030B8000030AC000030AB0000309C
:1018C600AA000030A900831203133808803AFF00EB
:1018D60080307F02031D712C013037020318742CEF
:1018E600752C822C83120313B701B8010030AC00AB
:1018F6000030AB000030AA000030A900B601831208
:1019060003133708AD002D08BD003D1C8B2C8C2C15
:101916008E2CAB17922C7F30AD002D08AB053D0801
:10192600AD0003102D0CAE002E08AC003608AD003D
:101936002D08AC04362B0800831203135608803991
:10194600DB005B08E0005608DB005B07DC005C0898
:10195600E600D51FAF2CB02CB12C6614660803190F
:10196600B52CB62CC52C660A031DBA2CBB2CC32C71
:101976000030D6000030D5000030D4000030D3004F
:10198600D517CD2C0030D6000030D5000030D4005D
:101996000030D3005A088039DB005B08E0065A089D
:1019A600DB005B07DC005C08E500D91FDB2CDC2CC8
:1019B600DD2C651465080319E12CE22CF12C650A6F
:1019C600031DE62CE72CEF2C0030DA000030D9009E
:1019D6000030D8000030D700D917F92C0030DA00D3
:1019E6000030D9000030D8000030D7006508031950
:1019F600FD2CFE2C032D6608031D022D032D0C2D38
:101A06000030D6000030D5000030D4000030D300BE
:101A1600FF2F5308DB005B08F00059080A168A11ED
:101A26007F220A128A15710883120313EC007008CC
:101A3600EB006B08DB00DC01DD01DE015E08E40083
:101A46005D08E3005C08E2005B08E1006C08DB006F
:101A5600DC01DD01DE015E08EA005D08E9005C08E4
:101A6600E8005B08E7005408DB005B08F000580854
:101A76000A168A117F220A128A1571088312031325
:101A8600EC007008EB006B08DB00DC01DD01DE0119
:101A96005B08E1075C0803110318013E0319542D86
:101AA600E2075D0803110318013E03195B2DE307E6
:101AB6005E0803110318013E0319622DE4076C0842
:101AC600DB00DC01DD01DE015B08E7075C080311D2
:101AD6000318013E0319702DE8075D08031103186A
:101AE600013E0319772DE9075E0803110318013E2D
:101AF60003197E2DEA075508DB005B08F00057083E
:101B06000A168A117F220A128A1571088312031394
:101B1600EC007008EB006B08DB00DC01DD01DE0188
:101B26005B08E1075C0803110318013E03199C2DAD
:101B3600E2075D0803110318013E0319A32DE3070D
:101B46005E0803110318013E0319AA2DE4076C0869
:101B5600DB00DC01DD01DE015B08E7075C08031141
:101B66000318013E0319B82DE8075D080311031891
:101B7600013E0319BF2DE9075E0803110318013E54
:101B86000319C62DEA070830DB000310E10DE20D4C
:101B9600E30DE40DDB0BC82D5408DB005B08F000F9
:101BA60057080A168A117F220A128A1571088312AB
:101BB6000313EC007008EB006B08DB006C08DC001C
:101BC600DD01DE015B08E1075C0803110318013E35
:101BD6000319EE2DE2075D0803110318013E0319F0
:101BE600F52DE3075E0803110318013E0319FC2DCA
:101BF600E4075308DB005B08F00058080A168A1150
:101C06007F220A128A15710883120313EC007008EA
:101C1600EB006B08DB006C08DC00DD01DE015B0815
:101C2600E1075C0803110318013E03191B2EE207A6
:101C36005D0803110318013E0319222EE3075E080F
:101C460003110318013E0319292EE4070830DB00AF
:101C56000310E10DE20DE30DE40DDB0B2B2E530813
:101C6600DB005B08F00057080A168A117F220A1269
:101C76008A15710883120313EC007008EB006B08D9
:101C8600DB006C08DC00DD01DE015B08E1075C08B7
:101C960003110318013E0319512EE2075D080311D3
:101CA6000318013E0319582EE3075E0803110318B3
:101CB600013E03195F2EE4075408DB005B08F000C1
:101CC60059080A168A117F220A128A157108831288
:101CD6000313EC007008EB006B08DB006C08DC00FB
:101CE600DD01DE015B08E7075C0803110318013E0E
:101CF60003197E2EE8075D0803110318013E031938
:101D0600852EE9075E0803110318013E03198C2E80
:101D1600EA075508DB005B08F00058080A168A1126
:101D26007F220A128A15710883120313EC007008C9
:101D3600EB006B08DB006C08DC00DD01DE015B08F4
:101D4600E7075C0803110318013E0319AB2EE807E9
:101D56005D0803110318013E0319B22EE9075E0858
:101D660003110318013E0319B92EEA075508DB00D3
:101D76005B08F00059080A168A117F220A128A1592
:101D8600710883120313EC007008EB006B08DB008C
:101D96006C08DC00DD01DE0108300310DB0DDC0D14
:101DA600DD0DDE0DFF3E031DD02E5B08E7075C0848
:101DB60003110318013E0319E12EE8075D0803111C
:101DC6000318013E0319E82EE9075E0803110318FC
:101DD600013E0319EF2EEA076108DB006208DC000A
:101DE6006308DD006408DE0018300310DE0CDD0C2D
:101DF600DC0CDB0CFF3E031DF82E5B08E7075C08D6
:101E060003110318013E0319092FE8075D080311A2
:101E16000318013E0319102FE9075E080311031882
:101E2600013E0319172FEA070830DB000310E10D06
:101E3600E20DE30DE40DDB0B192F66086507DB00E9
:101E4600DC01DC0D5B08823EEB005C080318013EFA
:101E5600FF3EEC004B2F0130DB000310E70DE80DD1
:101E6600E90DEA0DDB0B302FE41F3A2F3B2F3C2FF9
:101E760067140130DB000310E10DE20DE30DE40D04
:101E8600DB0B3E2FFF30EB070318EC0AFF30EC07A5
:101E9600E91F4E2F4F2F2E2FE501E41F532F542FEE
:101EA600702FFF306105DB00FF306205DC00FF307C
:101EB6006305DD007F306405DE005E085D045C04BA
:101EC6005B040319672F682F6B2FE501E50A702F56
:101ED600671C6E2F6F2F702F682F65080319742FDC
:101EE600752FA62F0130E707003003180130E807E9
:101EF600003003180130E907003003180130EA0703
:101F06006A1C862F872FA62F6708DB006808DC006F
:101F16006908DD006A08DE000130DF005E0DDE0CB8
:101F2600DD0CDC0CDB0CDF0B912F5E08EA005D0894
:101F3600E9005C08E8005B08E7000130EB070318DE
:101F4600EC0A0030EC076C08803AFF0080307F0214
:101F5600031DAF2FFF306B02031CB22FB32FBE2F12
:101F66007F3083120313EA008030E9000030E80076
:101F76000030E700F32F831203136C08803AFF004A
:101F860080307F02031DC92F01306B020318CC2F4E
:101F9600CD2FD92F003083120313EA000030E90059
:101FA6000030E8000030E700E001F32F831203134E
:101FB6006B08DB005B08E600FF30E705FF30E8054D
:101FC6007F30E9050030EA05661CEA2FEB2FEC2F7F
:101FD600E9176608DB0003105B0CDC005C08EA000E
:101FE6006008DB005B08EA046A08D6006908D500C9
:101FF6006808D4006708D300080010308A00040877
:10200600840A820700340034C0347F3444340034F8
:10201600003400340034C434FF347F343F34803419
:10202600EF34FF34BE349034E134A9343E34EC341A
:1020360082347634BE348234AD342B343E340E349E
:102046003C34C334BD348734D13413343D34413445
:102056007834D334BB340F34CF345B343B346334FD
:102066001D349B3439345034453453344F340034A2
:10207600543445344D3450340034563449344234A3
:1020860000344F3446344634003449344E345434E4
:1020960000344D344F34563400344F344E3400340B
:1023AC0064008001840A0406031900340406D7294A
:1023BC000A168A1106220A168A118316031311149F
:1023CC0008000A168A1106220A168A1183160313AC
:1023DC00111508000A168A1106220A168A117008AD
:1023EC008312031393000800F00083160313981C48
:1023FC00002A012AFB297008831203139900080094
:10240C008316031314190B2A0C2A062A11081F39D8
:10241C00031D112A122A062A080083120313881599
:10242C004E30F100EB30F000F00B1A2AF10B1A2AA7
:10243C008312031388110800F2000A168A11A622CF
:10244C000A168A1172088312031386008813081166
:10245C000A168A1113220A168A110800F2000A16AB
:10246C008A11A6220A168A11720883120313860097
:10247C00881708110A168A1113220A168A110800E5
:10248C0083160313850186018701880183160317C0
:10249C0088018901003083120313A3000130A200CC
:1024AC008630A100A030A0000A168A112A230A1631
:1024BC008A11080038300A168A1122220A168A114B
:1024CC000C300A168A1122220A168A1101300A16B9
:1024DC008A1122220A168A1106300A168A11222221
:1024EC000A168A1180300A168A1122220A168A11BB
:1024FC000800F800F401F5017008F200F30172080D
:10250C00F6007308F700781C8C2A8D2A932A76081B
:10251C00F4070318F50A7708F50701300310F60DD8
:10252C00F70DFF3E031D942A0310F80C7808031DC9
:10253C00A02AA12A892A7508F1007408F000080065
:10254C00FF308312031386008030F000700886057C
:10255C008813081588114E30F100EB30F000F00BA9
:10256C00B52AF10BB52A83120313881580300606A1
:10257C00031DC12AC22ACE2A88114E30F100EB303D
:10258C00F000F00BC72AF10BC72A8312031388152E
:10259C0008000A168A1106220A168A1183160313DA
:1025AC0091150A168A1106220A168A118312031330
:1025BC001308F200F3017208F4007308F5000A1610
:1025CC008A1106220A168A11700871040319EF2A5F
:1025DC00F32A831603139116F62A8316031391120A
:1025EC0011167508F1007408F0000800F8000330AB
:1025FC0078020318022B032B292B10307302031CB7
:10260C00082B092B0A2B292B780303190E2B0F2BC4
:10261C00152BC0307304F6000030F7001A2B8030F5
:10262C007304F6000030F70076080A168A1122228D
:10263C000A168A110D30F500FB30F400F40B242B34
:10264C00F50B242B292B080028308312031394003C
:10265C00831603139101831203132008A40021088D
:10266C00A5002208A6002308A70002300310A40D21
:10267C00A50DA60DA70DFF3E031D3C2B2708F3004F
:10268C002608F2002508F1002408F0000030F700BD
:10269C007A30F6001230F5000030F4000A168A1178
:1026AC003A250A168A117008FF3E8316031393000D
:1026BC009401871507160800700871040319672B1D
:1026CC00682B972BF501F50A762B01300310F00DD2
:1026DC00F10DFF3E031D6C2B0130F4007408F5075F
:1026EC00F11F792B7A2B6B2B71087302031D802B36
:1026FC0070087202031C832B842B8A2B7008F20245
:10270C007108031CF303F30201300310F10CF00CFD
:10271C00FF3E031D8B2B0130F502031D962B972BCF
:10272C007A2B7308F1007208F0000800F200B22B4B
:10273C003030DA2B3130DA2B3230DA2B3330DA2BF3
:10274C003430DA2B3530DA2B3630DA2B3730DA2BD3
:10275C003830DA2B3930DA2B7208F000F1017108BD
:10276C00003A0319BA2BDA2B7008003A03199E2B86
:10277C00013A0319A02B033A0319A22B013A0319AE
:10278C00A42B073A0319A62B013A0319A82B033AD9
:10279C000319AA2B013A0319AC2B0F3A0319AE2BD0
:1027AC00013A0319B02BDA2B080000307005F80041
:1027BC0000307105F90080307205FA007F30730526
:1027CC00FB007B087A0479047804031DEE2BEF2BB5
:1027DC00F72B0030F3000030F2000030F100003035
:1027EC00F00000307405F80000307505F9008030F9
:1027FC007605FA007F307705FB007B087A047904B4
:10280C007804031D0A2C0B2C132C0030F70000301D
:10281C00F6000030F5000030F40077087306031D55
:10282C00212C76087206031D212C75087106031DD8
:10283C00212C740870060319242C252C272C03102A
:10284C00282C03140800F601F31F2D2C2E2C352CEC
:10285C00F209F309F20A0319F30AF601F60AF11F59
:10286C00382C392C3E2CF009F109F00A0319F10A25
:10287C00700871040319432C442C732CF501F50AD0
:10288C00522C01300310F00DF10DFF3E031D482CAE
:10289C000130F4007408F507F11F552C562C472C09
:1028AC0071087302031D5C2C70087202031C5F2CF0
:1028BC00602C662C7008F2027108031CF303F302FF
:1028CC0001300310F10CF00CFF3E031D672C01309E
:1028DC00F502031D722C732C562C76080319772CD9
:1028EC00782C7D2CF209F309F20A0319F30A730808
:1028FC00F1007208F0000800F200BA2C83160313E2
:10290C000F128F120F13DC2C831603130F168F125A
:10291C000F13DC2C831603130F128F160F13DC2CE2
:10292C00831603130F168F160F13DC2C8316031349
:10293C000F128F120F17DC2C831603130F168F1226
:10294C000F17DC2C831603130F128F160F17DC2CAA
:10295C00831603130F168F160F17DC2C8316031315
:10296C000F128F160F17DC2C7208F000F101710892
:10297C00003A0319C22CB42C7008003A0319842CA9
:10298C00013A03198A2C033A0319902C013A0319C2
:10299C00962C073A03199C2C013A0319A22C033AE2
:1029AC000319A82C013A0319AE2CB42C0F140800EF
:1029BC00831203132308F3002208F2002108F1000C
:1029CC002008F0000030F7000030F6000030F50071
:1029DC000030F4000A168A11DB230A168A11031C34
:1029EC00F82CF92C0A2D831203132408840083136A
:1029FC008001840A80010030A3000030A200003066
:102A0C00A1000030A000392D8312031323087F3955
:102A1C00FC00FD010310FC0DFD0D240884007C0856
:102A2C0083138000840A7D088000220D220D013959
:102A3C00FC00FD01240884007C088004840A7D08C5
:102A4C0080042408840082308007840F0008031857
:102A5C00000AFF00FF307F078000840323088039C1
:102A6C003F38A300A21308000030FC000030FB002C
:102A7C000030FA000030F90073087204710470041D
:102A8C000319492D4A2D972DFD01FD0A5A2D0130B0
:102A9C00F8000310F00DF10DF20DF30DF80B4F2DA6
:102AAC000130F8007808FD07F31F5D2D5E2D4D2DCC
:102ABC000130F8000310F90DFA0DFB0DFC0DF80BAD
:102ACC00602D73087702031D752D72087602031DA5
:102ADC00752D71087502031D752D70087402031C89
:102AEC00782D792D882D7008F4027108031C710F54
:102AFC00F5027208031C720FF6027308031C730FA5
:102B0C00F702791401300310F30CF20CF10CF00CF9
:102B1C00FF3E031D892D0130FD02031D962D972DBF
:102B2C005E2D7C08F3007B08F2007A08F10079082E
:102B3C00F0000800831203132608AA002708AB0034
:102B4C002808AC002908AD0004300310AA0DAB0D09
:102B5C00AC0DAD0DFF3E031DAB2D2D08F3002C0865
:102B6C00F2002B08F1002A08F0002608AE00270816
:102B7C00AF002808B0002908B10004300310AE0DD6
:102B8C00AF0DB00DB10DFF3E031DC42D0030B200D2
:102B9C001230B3007A30B4000030B5002E08B20207
:102BAC002F08031C2F0FDB2DDC2DB3023008031C68
:102BBC00300FE12DE22DB4023108031C310FE72D4B
:102BCC00E82DB5023508F7003408F6003308F50097
:102BDC003208F4000A168A1107260A168A117008A0
:102BEC0083160313990018151812831203139817E0
:102BFC00181683160313981618138312031318133D
:102C0C00080083120313A101F31F0D2E0E2E1B2E91
:102C1C00F009F109F209F309F00A0319F10A031991
:102C2C00F20A0319F30AA101A10AF71F1E2E1F2E87
:102C3C002E2EF409F509F609F709F40A0319F50A19
:102C4C000319F60A0319F70A0130F8007808A106EF
:102C5C000030A5000030A4000030A3000030A2001A
:102C6C00730872047104700403193D2E3E2E8B2ED2
:102C7C00A001A00A4E2E0130F8000310F00DF10D4A
:102C8C00F20DF30DF80B432E0130F8007808A00775
:102C9C00F31F512E522E412E0130F8000310A20DBD
:102CAC00A30DA40DA50DF80B542E73087702031D6C
:102CBC00692E72087602031D692E71087502031DB8
:102CCC00692E70087402031C6C2E6D2E7C2E7008FD
:102CDC00F4027108031C710FF5027208031C720FC9
:102CEC00F6027308031C730FF70222140130031051
:102CFC00F30CF20CF10CF00CFF3E031D7D2E013099
:102D0C00A002031D8A2E8B2E522E210803198F2E02
:102D1C00902E9B2EA209A309A409A509A20A0319A6
:102D2C00A30A0319A40A0319A50A2508F300240809
:102D3C00F2002308F1002208F000080000307005B2
:102D4C00F80000307105F90080307205FA007F3010
:102D5C007305FB007B087A0479047804031DB72EF5
:102D6C00B82EC02E0030F3000030F2000030F1001D
:102D7C000030F00000307405F80000307505F900E3
:102D8C0080307605FA007F307705FB007B087A04EB
:102D9C0079047804031DD32ED42EDC2E0030F700DA
:102DAC000030F6000030F5000030F400F31FDF2E89
:102DBC00E02E042F0030F8000030F9000030FA004B
:102DCC008030FB007008F8027108031C710FEF2EA5
:102DDC00F02EF9027208031C720FF52EF62EFA0271
:102DEC007308031C730FFB2EFC2EFB027B08F300F5
:102DFC007A08F2007908F1007808F000F71F072F25
:102E0C00082F2C2F0030F8000030F9000030FA00A9
:102E1C008030FB007408F8027508031C750F172F1F
:102E2C00182FF9027608031C760F1D2F1E2FFA029D
:102E3C007708031C770F232F242FFB027B08F70046
:102E4C007A08F6007908F5007808F4008030F3066B
:102E5C008030F70677087302031D3E2F7608720246
:102E6C00031D3E2F75087102031D3E2F740870025E
:102E7C000318412F422F442F0310452F0314080031
:102E8C00F800780803194B2F4C2F602FF31F4F2F8E
:102E9C00502F602F7009FA007109FB007209FC00B9
:102EAC007309FD00FA0A0319FB0A0319FC0A03193A
:102EBC00FD0A682F7308FD007208FC007108FB0006
:102ECC007008FA007308720471047004031D6F2FEC
:102EDC00702F792F0030F3000030F2000030F10039
:102EEC000030F000FF2F9630F4007408F9008B2F9F
:102EFC000130F4007408F90701300310FD0CFC0CD0
:102F0C00FB0CFA0CFF3E031D832FFE307D05031DC9
:102F1C00902F912F7E2FAD2F0130F4007408F907FC
:102F2C000130FA07003003180130FB07003003189A
:102F3C000130FC07003003180130FD07013003108D
:102F4C00FD0CFC0CFB0CFA0CFF3E031DA52FFF30F7
:102F5C007D05031DB22FB32F922FBF2F0130F90225
:102F6C000130F4000310FA0DFB0DFC0DFD0DF40BFC
:102F7C00B82FFC1BC22FC32FC92F023079020318A4
:102F8C00C82FC92FB42F7918CC2FCD2FD52FFF30A8
:102F9C00FA05FF30FB057F30FC05FF30FD05031003
:102FAC00F90C7908F400F501F601F701183003105B
:102FBC00F40DF50DF60DF70DFF3E031DDD2F740816
:102FCC00FA047508FB047608FC047708FD047808FD
:102FDC000319F12FF22FF72FF31FF52FF62FF72FE1
:102FEC00FD177D08F3007C08F2007B08F1007A08DD
:042FFC00F0000800D9
:04400E00D4E0FFFFFC
:00000001FF
