:020000040000FA
:060000000A128A11EB2F29
:1000080083160313141909280A28042811081F390C
:10001800031D0F281028042808000310720D730D03
:10002800F4007408FA007A08031D1B281C282528E8
:100038000030F3000030F2000030F1000030F00032
:100048008A287008F4007108F5007208F600730831
:10005800F7001F300310F70CF60CF50CF40CFF3EFC
:10006800031D2E287408F8007808F900F217FF30ED
:10007800F005FF30F105FF30F2050030F30596304A
:10008800FA02FA1F4828492863287A08803A973ED6
:1000980003184F28502851281C2801300310F30C4E
:1000A800F20CF10CF00CFF3E031D52280130F40055
:1000B8007408FA07031D6128622851287A2820301D
:1000C8007A02031C6828692875281C280130F40066
:1000D8000310F00DF10DF20DF30DF40B6C28013047
:1000E800FA027A08031D79287A286A2879080319F8
:1000F8007E287F288A28F009F109F209F309F00A15
:100108000319F10A0319F20A0319F30A0800831202
:10011800031323088039F9007908A8002308F90097
:100128007907FA007A08AE00A21F9B289C289D2810
:100138002E142E080319A128A228B1282E0A031D5F
:10014800A628A728AF280030A3000030A20000305E
:10015800A1000030A000A217B9280030A300003089
:10016800A2000030A1000030A00027088039F90063
:100178007908A8062708F9007907FA007A08AD0077
:10018800A61FC728C828C9282D142D080319CD284B
:10019800CE28DD282D0A031DD228D328DB280030DD
:1001A800A7000030A6000030A5000030A400A61764
:1001B800E5280030A7000030A6000030A500003078
:1001C800A4002D080319E928EA28EF282E08031DA2
:1001D800EE28EF28F8280030A3000030A2000030F5
:1001E800A1000030A000EB2B2008F9007908F000EE
:1001F80026080A168A1155270A128A1171088312CD
:100208000313B4007008B3003308F900FA01FB01C6
:10021800FC017C08AC007B08AB007A08AA007908CE
:10022800A9003408F900FA01FB01FC017C08B200BE
:100238007B08B1007A08B0007908AF002108F900FE
:100248007908F00025080A168A1155270A128A111A
:10025800710883120313B4007008B3003308F9005F
:10026800FA01FB01FC017908A9077A0803110318B0
:10027800013E03194029AA077B0803110318013E10
:1002880003194729AB077C0803110318013E03191A
:100298004E29AC073408F900FA01FB01FC01790882
:1002A800AF077A0803110318013E03195C29B00748
:1002B8007B0803110318013E03196329B1077C0861
:1002C80003110318013E03196A29B2072208F9002D
:1002D8007908F00024080A168A1155270A128A118B
:1002E800710883120313B4007008B3003308F900CF
:1002F800FA01FB01FC017908A9077A080311031820
:10030800013E03198829AA077B0803110318013E37
:1003180003198F29AB077C0803110318013E031941
:100328009629AC073408F900FA01FB01FC017908A9
:10033800AF077A0803110318013E0319A429B0076F
:100348007B0803110318013E0319AB29B1077C0888
:1003580003110318013E0319B229B2070830F90046
:100368000310A90DAA0DAB0DAC0DF90BB42921088A
:10037800F9007908F00024080A168A1155270A128C
:100388008A11710883120313B4007008B30033088C
:10039800F9003408FA00FB01FC017908A9077A087A
:1003A80003110318013E0319DA29AA077B08031170
:1003B8000318013E0319E129AB077C080311031850
:1003C800013E0319E829AC072008F9007908F00074
:1003D80025080A168A1155270A128A1171088312EC
:1003E8000313B4007008B3003308F9003408FA00A6
:1003F800FB01FC017908A9077A0803110318013EDB
:100408000319072AAA077B0803110318013E0319D9
:100418000E2AAB077C0803110318013E0319152A9D
:10042800AC070830F9000310A90DAA0DAB0DAC0DEF
:10043800F90B172A2008F9007908F00024080A1691
:100448008A1155270A128A11710883120313B400FE
:100458007008B3003308F9003408FA00FB01FC0106
:100468007908A9077A0803110318013E03193D2AE0
:10047800AA077B0803110318013E0319442AAB0796
:100488007C0803110318013E03194B2AAC07210805
:10049800F9007908F00026080A168A1155270A1269
:1004A8008A11710883120313B4007008B30033086B
:1004B800F9003408FA00FB01FC017908AF077A0853
:1004C80003110318013E03196A2AB0077B080311B8
:1004D8000318013E0319712AB1077C080311031898
:1004E800013E0319782AB2072208F9007908F000BA
:1004F80025080A168A1155270A128A1171088312CB
:100508000313B4007008B3003308F9003408FA0084
:10051800FB01FC017908AF077A0803110318013EB3
:100528000319972AB0077B0803110318013E031922
:100538009E2AB1077C0803110318013E0319A52A56
:10054800B2072208F9007908F00026080A168A116D
:1005580055270A128A11710883120313B400700810
:10056800B3003308F9003408FA00FB01FC01083035
:100578000310F90DFA0DFB0DFC0DFF3E031DBC2AFF
:100588007908AF077A0803110318013E0319CD2A29
:10059800B0077B0803110318013E0319D42AB107D9
:1005A8007C0803110318013E0319DB2AB207290846
:1005B800F9002A08FA002B08FB002C08FC00183068
:1005C8000310FC0CFB0CFA0CF90CFF3E031DE42A8B
:1005D8007908AF077A0803110318013E0319F52AB1
:1005E800B0077B0803110318013E0319FC2AB10761
:1005F8007C0803110318013E0319032BB2070830C6
:10060800F9000310A90DAA0DAB0DAC0DF90B052BC4
:100618002E082D07F900FA01FA0D7908823EB30079
:100628007A080318013EFF3EB400372B0130F90069
:100638000310AF0DB00DB10DB20DF90B1C2BAC1F93
:10064800262B272B282B2F140130F9000310A90D76
:10065800AA0DAB0DAC0DF90B2A2BFF30B30703180D
:10066800B40AFF30B407B11F3A2B3B2B1A2BAD014C
:10067800AC1F3F2B402B5C2BFF302905F900FF30C6
:100688002A05FA00FF302B05FB007F302C05FC0003
:100698007C087B047A0479040319532B542B572BB9
:1006A800AD01AD0A5C2B2F1C5A2B5B2B5C2B542BFA
:1006B8002D080319602B612B922B0130AF070030F6
:1006C80003180130B007003003180130B1070030BB
:1006D80003180130B207321C722B732B922B2F0890
:1006E800F9003008FA003108FB003208FC0001303C
:1006F800FD007C0DFC0CFB0CFA0CF90CFD0B7D2BA2
:100708007C08B2007B08B1007A08B0007908AF0015
:100718000130B3070318B40A0030B4073408803A2C
:10072800FF0080307F02031D9B2BFF303302031C28
:100738009E2B9F2BAA2B7F3083120313B20080308D
:10074800B1000030B0000030AF00DF2B831203137C
:100758003408803AFF0080307F02031DB52B01303A
:1007680033020318B82BB92BC52B0030831203139F
:10077800B2000030B1000030B0000030AF00A80176
:10078800DF2B831203133308F9007908AE00FF301A
:10079800AF05FF30B0057F30B1050030B2052E1C23
:1007A800D62BD72BD82BB1172E08F9000310790CAC
:1007B800FA007A08B2002808F9007908B204320869
:1007C800A3003108A2003008A1002F08A0000800EB
:1007D80007300A128A150B210A128A110A168A1181
:1007E800D9260A128A110A168A11F3260A128A11C0
:1007F800003083120313A9000030A8002530A70099
:100808008030A6000A128A15CD210A128A11831295
:1008180003138501860187018801023083120313BF
:10082800CA004A08F30001300A168A11D2270A12B0
:100838008A1113300A168A1112270A128A110630F1
:1008480083120313CA004A08F30001300A168A11FA
:10085800D2270A128A1117300A168A1112270A1289
:100868008A110A3083120313CA004A08F3000130C0
:100878000A168A11D2270A128A110B300A168A110F
:1008880012270A128A110A168A1190260A128A1148
:100898003130F0000030F1000A168A11A2260A123F
:1008A8008A110030F000F1000A168A11A5270A12F1
:1008B8008A11700883120313CA004A08EC000A164A
:1008C8008A1199260A128A11033083120313CC0065
:1008D8000830CB007630CA00CA0B702CCB0B702CBA
:1008E800CC0B702C00000A168A1190260A128A1165
:1008F8006130F0000030F1000A168A11A2260A12AF
:100908008A110030F000F1000A168A11A5270A1290
:100918008A11700883120313CA004A08EB000A16EA
:100928008A1199260A128A11033083120313CC0004
:100938000830CB007630CA00CA0BA02CCB0BA02CF9
:10094800CC0BA02C00000A168A1190260A128A11D4
:100958009130F0000030F1000A168A11A2260A121E
:100968008A110030F000F1000A168A11A5270A1230
:100978008A11700883120313CA004A08EA000A168B
:100988008A1199260A128A11033083120313CC00A4
:100998000830CB007630CA00CA0BD02CCB0BD02C39
:1009A800CC0BD02C00000A168A1190260A128A1144
:1009B800C130F0000030F1000A168A11A2260A128E
:1009C8008A110030F000F1000A168A11A5270A12D0
:1009D8008A11700883120313CA004A08E9000A162C
:1009E8008A1199260A128A11033083120313CC0044
:1009F8000830CB007630CA00CA0B002DCB0B002D77
:100A0800CC0B002D00000A168A1190260A128A11B2
:100A1800F130F0000030F1000A168A11A2260A12FD
:100A28008A110030F000F1000A168A11A5270A126F
:100A38008A11700883120313CA004A08E8000A16CC
:100A48008A1199260A128A11033083120313CC00E3
:100A58000830CB007630CA00CA0B302DCB0B302DB6
:100A6800CC0B302D0000403083120313B300C0308C
:100A7800B2000030B1000030B0006908CA00CB01F4
:100A8800CC01CD014D08F3004C08F2004B08F100F1
:100A98004A08F00001300A128A15D1220A128A1176
:100AA800730883120313AB007208AA007108A90027
:100AB8007008A8004430AF003130AE008030AD007F
:100AC8000030AC000A168A1131270A128A118312E3
:100AD80003132B08B7002A08B6002908B500280810
:100AE800B4000A128A158B230A128A11831203137F
:100AF8003308D5003208D4003108D3003008D200BA
:100B08004230B3004C30B2000030B1000030B000C9
:100B18006908CA00CB01CC01CD014D08F3004C088F
:100B2800F2004B08F1004A08F00001300A128A1559
:100B3800D1220A128A11730883120313B7007208AC
:100B4800B6007108B5007008B4000A128A158B2324
:100B58000A128A1183120313330883160313A7009A
:100B680083120313320883160313A6008312031398
:100B7800310883160313A500831203133008831664
:100B88000313A400831203136C03031DCC2DCD2D76
:100B9800DE2D0230CA004A08F30002300A168A1114
:100BA800D2270A128A110F300A168A1112270A123E
:100BB8008A11EE2D0230CA004A08F30002300A16E4
:100BC8008A11D2270A128A111B300A168A11122793
:100BD8000A128A11831203136B03031DF42DF52DDA
:100BE800062E0A30CA004A08F30002300A168A1193
:100BF800D2270A128A111B300A168A1112270A12E2
:100C08008A11162E0A30CA004A08F30002300A1662
:100C18008A11D2270A128A110F300A168A1112274E
:100C28000A128A11831203136A03031D1C2E1D2E38
:100C38002E2E0630CA004A08F30002300A168A111E
:100C4800D2270A128A111B300A168A1112270A1291
:100C58008A113E2E0630CA004A08F30002300A16EE
:100C68008A11D2270A128A110F300A168A111227FE
:100C78000A128A11293083120313CC009630CB0054
:100C88007E30CA00CA0B462ECB0B462ECC0B462E06
:100C9800000001300A168A11C7260A128A1102308A
:100CA80083120313CA004A08F30001300A168A1196
:100CB800D2270A128A1106300A168A1112270A1236
:100CC8008A11083083120313CA004A08F30001305E
:100CD8000A168A11D2270A128A1101300A168A11B5
:100CE80012270A128A11043083120313CA004A0811
:100CF800F30002300A168A11D2270A128A11B0307C
:100D08000A128A1504200A128A1105308312031365
:100D1800CA004A08F30002300A168A11D2270A12BA
:100D28008A1143300A128A1504200A128A110B30DC
:100D380083120313CA004A08F30002300A168A1104
:100D4800D2270A128A1167300A128A1504200A1259
:100D58008A11423083120313A300C830A200003066
:100D6800A1000030A0005508A7005408A6005308A9
:100D7800A5005208A4000A128A118B200A128A11AF
:100D8800831203132308D1002208D0002108CF00C2
:100D98002008CE005108F3005008F2004F08F10077
:100DA8004E08F0000A128A1111200A128A117108DD
:100DB80083120313DD007008DC000A30F0000030F5
:100DC800F1005D08F3005C08F2000A128A154E2053
:100DD8000A128A11700883120313CA004A08E40031
:100DE8000A30F0000030F1005D08F3005C08F20002
:100DF8000A128A15C7200A128A117108831203136E
:100E0800DB007008DA000A30F0000030F1005B08FF
:100E1800F3005A08F2000A128A154E200A128A11A3
:100E2800700883120313CA004A08E5005508F30046
:100E38005408F2005308F1005208F0000A128A110F
:100E480011200A128A11700883120313CA004A0873
:100E5800E700F30102300A168A11D2270A128A1112
:100E68008312031367080A128A1588200A128A1146
:100E78000A128A1504200A128A11023083120313F7
:100E8800CA004A08F30002300A168A11D2270A1249
:100E98008A118312031365080A128A1588200A1218
:100EA8008A110A128A1504200A128A110330831241
:100EB8000313CA004A08F30002300A168A11D2271F
:100EC8000A128A118312031364080A128A158820E9
:100ED8000A128A110A128A1504200A128A11293064
:100EE80083120313CC009630CB007E30CA00CA0BA5
:100EF8007B2FCB0B7B2FCC0B7B2F000001300A16EE
:100F08008A11C7260A128A11831203136C080A165B
:100F18008A11AC260A128A111A3083120313CB00E5
:100F2800F730CA00CA0B962FCB0B962F9B2F831234
:100F380003136B080A168A11AC260A128A111A3092
:100F480083120313CB00F730CA00CA0BA92FCB0BAF
:100F5800A92FAE2F831203136A080A168A11AC262A
:100F68000A128A111A3083120313CB00F730CA0011
:100F7800CA0BBC2FCB0BBC2FC12F831203136908DC
:100F88000A168A11AC260A128A111A308312031320
:100F9800CB00F730CA00CA0BCF2FCB0BCF2FD42FE3
:100FA8008312031368080A168A11AC260A128A11DA
:100FB8001A3083120313CB00F730CA00CA0BE22F92
:100FC800CB0BE22FE72F112C0A128A11002883136A
:100FD8004E3084006D300A168A1188260A128A114A
:100FE800A0308400A8300A168A1188260A128A11AD
:080FF80083010A128A11EC2B9F
:10100800F2000A168A117C270A128A1572088312BE
:1010180003138600881708110A168A11B8260A12BF
:101028008A150800283083120313940083160313CB
:101038009101831203132008A4002108A5002208A7
:10104800A6002308A70002300310A40DA50DA60DC5
:10105800A70DFF3E031D28282708F3002608F200E5
:101068002508F1002408F0000030F7007A30F60077
:101078001230F5000030F4000A128A1567210A12AE
:101088008A157008FF3E8316031393009401871591
:101098000716080070087104031953285428832878
:1010A800F501F50A622801300310F00DF10DFF3E3D
:1010B800031D58280130F4007408F507F11F65284E
:1010C8006628572871087302031D6C28700872027D
:1010D800031C6F28702876287008F2027108031C18
:1010E800F303F30201300310F10CF00CFF3E031D73
:1010F80077280130F502031D8228832866287308A3
:10110800F1007208F0000800F2009E283030C6286E
:101118003130C6283230C6283330C6283430C62885
:101128003530C6283630C6283730C6283830C62865
:101138003930C6287208F000F1017108003A031925
:10114800A628C6287008003A03198A28013A031904
:101158008C28033A03198E28013A03199028073A74
:1011680003199228013A03199428033A0319962877
:10117800013A031998280F3A03199A28013A0319D2
:101188009C28C6280800F501F601700871040319A7
:10119800CE28CF280629F701F70ADD2801300310E9
:1011A800F00DF10DFF3E031DD3280130F400740843
:1011B800F707F11FE028E128D22801300310F50DC8
:1011C800F60DFF3E031DE22871087302031DEE2889
:1011D80070087202031CF128F228F9287008F2023C
:1011E8007108031CF303F302751401300310F10CAA
:1011F800F00CFF3E031DFA280130F702031D0529F4
:101208000629E1287608F1007508F0000800F200C8
:101218004329831603130F128F120F1365298316A0
:1012280003130F168F120F136529831603130F125A
:101238008F160F136529831603130F168F160F13B6
:101248006529831603130F128F120F17652983164A
:1012580003130F168F120F176529831603130F1226
:101268008F160F176529831603130F168F160F177E
:101278006529831603130F128F160F176529720835
:10128800F000F1017108003A03194B293D29700853
:10129800003A03190D29013A03191329033A0319CE
:1012A8001929013A03191F29073A03192529013A6F
:1012B80003192B29033A03193129013A031937294C
:1012C8003D290F1408000030FC000030FB000030FE
:1012D800FA000030F90073087204710470040319ED
:1012E80076297729C429FD01FD0A87290130F800EC
:1012F8000310F00DF10DF20DF30DF80B7C29013000
:10130800F8007808FD07F31F8A298B297A2901300C
:10131800F8000310F90DFA0DFB0DFC0DF80B8D29E3
:1013280073087702031DA22972087602031DA229F9
:1013380071087502031DA22970087402031CA529EF
:10134800A629B5297008F4027108031C710FF5026B
:101358007208031C720FF6027308031C730FF7025E
:10136800791401300310F30CF20CF10CF00CFF3E71
:10137800031DB6290130FD02031DC329C4298B2989
:101388007C08F3007B08F2007A08F1007908F00085
:101398000800831203132608AA002708AB002808B0
:1013A800AC002908AD0004300310AA0DAB0DAC0D3C
:1013B800AD0DFF3E031DD8292D08F3002C08F200BF
:1013C8002B08F1002A08F0002608AE002708AF0015
:1013D8002808B0002908B10004300310AE0DAF0D85
:1013E800B00DB10DFF3E031DF1290030B2001230DF
:1013F800B3007A30B4000030B5002E08B2022F08CE
:10140800031C2F0F082A092AB3023008031C300FC7
:101418000E2A0F2AB4023108031C310F142A152A88
:10142800B5023508F7003408F6003308F50032082D
:10143800F4000A128A1534220A128A1570088316D3
:101448000313990018151812831203139817181606
:10145800831603139816181383120313181308001E
:1014680083120313A101F31F3A2A3B2A482AF009E1
:10147800F109F209F309F00A0319F10A0319F20A4A
:101488000319F30AA101A10AF71F4B2A4C2A5B2A68
:10149800F409F509F609F709F40A0319F50A031915
:1014A800F60A0319F70A0130F8007808A106003097
:1014B800A5000030A4000030A3000030A20073088B
:1014C80072047104700403196A2A6B2AB82AA001ED
:1014D800A00A7B2A0130F8000310F00DF10DF20D7F
:1014E800F30DF80B702A0130F8007808A007F31FF5
:1014F8007E2A7F2A6E2A0130F8000310A20DA30D60
:10150800A40DA50DF80B812A73087702031D962AEE
:1015180072087602031D962A71087502031D962A21
:1015280070087402031C992A9A2AA92A7008F402DE
:101538007108031C710FF5027208031C720FF60282
:101548007308031C730FF702221401300310F30C05
:10155800F20CF10CF00CFF3E031DAA2A0130A00288
:10156800031DB72AB82A7F2A21080319BC2ABD2AD5
:10157800C82AA209A309A409A509A20A0319A30A4A
:101588000319A40A0319A50A2508F3002408F20080
:101598002308F1002208F0000800F8007808031971
:1015A800D62AD72AEB2AF31FDA2ADB2AEB2A700974
:1015B800FA007109FB007209FC007309FD00FA0AC0
:1015C8000319FB0A0319FC0A0319FD0AF32A730815
:1015D800FD007208FC007108FB007008FA0073082F
:1015E800720471047004031DFA2AFB2A042B0030CC
:1015F800F3000030F2000030F1000030F0008A2BD8
:101608009630F4007408F900162B0130F4007408C1
:10161800F90701300310FD0CFC0CFB0CFA0CFF3E23
:10162800031D0E2BFE307D05031D1B2B1C2B092BC8
:10163800382B0130F4007408F9070130FA0700303C
:1016480003180130FB07003003180130FC07003095
:1016580003180130FD0701300310FD0CFC0CFB0CD6
:10166800FA0CFF3E031D302BFF307D05031D3D2B7B
:101678003E2B1D2B4A2B0130F9020130F4000310D8
:10168800FA0DFB0DFC0DFD0DF40B432BFC1B4D2B34
:101698004E2B542B023079020318532B542B3F2B1B
:1016A8007918572B582B602BFF30FA05FF30FB05B4
:1016B8007F30FC05FF30FD050310F90C7908F400B4
:1016C800F501F601F70118300310F40DF50DF60DCC
:1016D800F70DFF3E031D682B7408FA047508FB0418
:1016E8007608FC047708FD04780803197C2B7D2B09
:1016F800822BF31F802B812B822BFD177D08F30093
:101708007C08F2007B08F1007A08F00008008312D8
:10171800031337088039B8003808C1003708B80003
:101728003807B9003908C800B61F9B2B9C2B9D2B86
:10173800481448080319A12BA22BB22B480A031DF1
:10174800A62BA72BAF2B0030B7000030B600003017
:10175800B5000030B400B617B701BA2B0030B70097
:101768000030B6000030B5000030B40033088039CE
:10177800B8003808C1063308B8003807B900390876
:10178800C900B21FC82BC92BCA2B49144908031911
:10179800CE2BCF2BDF2B490A031DD32BD42BDC2BCD
:1017A8000030B3000030B2000030B1000030B000AB
:1017B800B217B301E72B0030B3000030B20000309D
:1017C800B1000030B0003308320431043004031D86
:1017D800EE2BEF2B082C0030B7000030B60000309D
:1017E800B5000030B4008030B6047F30B70441083B
:1017F800B8003808B7043708B3003608B20035080F
:10180800B1003408B000672D4808031D0C2C0D2CBE
:10181800162C0030B3000030B2000030B1000030A8
:10182800B000672D4808B800B9013908BB0049085D
:101838003802BA00031CBB033A087F3EC2003B08CB
:101848000318013E003EC3003708C0003608BF0039
:101858003508BE003408BD000030B7000030B600BF
:101868000030B5000030B4000030C7000030C600BA
:101878000030C5000030C400C9018C2C4908031988
:10188800462C472C672C0130B8000310BD0DBE0D47
:10189800BF0DC00DB80B492C0130B8000310B40DB2
:1018A800B50DB60DB70DB80B522CC71F5C2C5D2CAF
:1018B8005E2C34140130B8000310C40DC50DC60DDC
:1018C800C70DB80B602C33084002031D752C320875
:1018D8003F02031D752C31083E02031D752C30088C
:1018E8003D02031C782C792C882C47173008BD0240
:1018F8003108031C310FBE023208031C320FBF022D
:101908003308031C330FC0020130B8003808C90778
:101918001A304902031C912C922C422C40083F0497
:101928003E043D040319992C9A2CB92C4414B92C63
:101938000130B8000310B40DB50DB60DB70DB80BD6
:101948009E2CC71FA82CA92CAA2C34140130B8002F
:101958000310C40DC50DC60DC70DB80BAC2CFF3058
:10196800C2070318C30AFF30C307B61FBC2CBD2C1F
:101978009C2CC901C71FC12CC22CDE2CFF3044058A
:10198800B800FF304505B900FF304605BA007F3082
:101998004705BB003B083A04390438040319D52C21
:1019A800D62CD92CC901C90ADE2C341CDC2CDD2C20
:1019B800DE2CD62C49080319E22CE32C142D013017
:1019C800B407003003180130B507003003180130A0
:1019D800B607003003180130B707371CF42CF52C74
:1019E800142D3408B8003508B9003608BA0037088D
:1019F800BB000130BC003B0DBB0CBA0CB90CB80CD9
:101A0800BC0BFF2C3B08B7003A08B6003908B500F4
:101A18003808B4000130C2070318C30A0030C307EE
:101A28004308803AFF0080307F02031D1D2DFF30E0
:101A38004202031C202D212D2F2DFF30831203136A
:101A4800C2000030C3000030B7000030B6000030DC
:101A5800B5000030B400831203134308803AFF0036
:101A680080307F02031D3A2D0130420203183D2DBC
:101A78003E2D4B2D83120313C201C3010030B70062
:101A88000030B6000030B5000030B400C101831248
:101A980003134208B8003808C800481C542D552DB7
:101AA800572DB6175B2D7F30B8003808B6054808A3
:101AB800B8000310380CB9003908B7004108B8005D
:101AC8003808B704FF2B0800730880398312031302
:101AD800A0002008F8007308A0002007A100210832
:101AE800FA00F21F782D792D7A2D7A147A080319C5
:101AF8007E2D7F2D8F2D7A0A031D832D842D8C2D0D
:101B08000030F3000030F2000030F1000030F00047
:101B1800F217F301972D0030F3000030F200003087
:101B2800F1000030F00077088039A0002008F900A3
:101B3800790878060319A12DA22DA32D7817770807
:101B4800A0002007A1002108F900F61FAC2DAD2D3B
:101B5800AE2D791479080319B22DB32DC32D790A46
:101B6800031DB72DB82DC02D0030F7000030F6004A
:101B78000030F5000030F400F617F701CB2D0030E7
:101B8800F7000030F6000030F5000030F4007A0865
:101B980079020318D02DD12D152E781FD42DD52DCF
:101BA800D92D8030A0002008F8067A08A000200867
:101BB800FB007908A0002008FA007B08A000200894
:101BC800F9007008A0002008FB007408A000200895
:101BD800F0007B08A0002008F4007108A00020088D
:101BE800FB007508A0002008F1007B08A000200871
:101BF800F5007208A0002008FB007608A000200865
:101C0800F2007B08A0002008F6007308A000200856
:101C1800FB007708A0002008F3007B08A00020083C
:101C2800F700FB017908A000A1012108A3007A08A8
:101C38002002A200031CA3032308803AFF0080307F
:101C48007F02031D292E1A302202031C2C2E2D2E52
:101C58006E2E7308720471047004031D342E362E20
:101C68000130372E003083120313A0002008FB0038
:101C78000030F3000030F2000030F1000030F000D6
:101C88007908A0002008FA00742E7B1C4C2E4D2EDB
:101C9800582E7B0883120313A0000310200C013870
:101CA800A1002108FB005A2E0310FB0C701C5D2EAE
:101CB8005E2E5F2EFB17013083120313A000730DF5
:101CC800F30CF20CF10CF00CA00B632E0130A00009
:101CD8002008FA0779087A02031C732E742E492EFD
:101CE800781B772E782EC72E7A08031D7C2E7D2E22
:101CF800862E0030F3000030F2000030F100003092
:101D0800F000FF2F7408F007750803110318013E4F
:101D180003198F2EF107760803110318013E0319E2
:101D2800962EF207770803110318013E03199D2E1A
:101D3800F307731CA02EA12E7F2F7B1CA42EA52E8B
:101D4800B02E7B0883120313A0000310200C013867
:101D5800A1002108FB00B22E0310FB0C701CB52E4D
:101D6800B62EB72EFB17013083120313A000730D94
:101D7800F30CF20CF10CF00CA00BBB2E0130A00000
:101D88002008FA077F2F7308803AFF007708803A07
:101D98007F02031DD92E76087202031DD92E7508FD
:101DA8007102031DD92E740870020318DC2EDD2E73
:101DB800372FFF3083120313A000FF30A100FF303C
:101DC800A200FF30A3007408A4007508A5007608D7
:101DD800A6007708A7007008A4027108031C710FF9
:101DE800F62EF72EA5027208031C720FFC2EFD2E8C
:101DF800A6027308031C730F022F032FA7022408DF
:101E0800A00725080318250F0A2F0B2FA10726085E
:101E18000318260F102F112FA20727080318270AC7
:101E2800A3072308F3002208F2002108F100200884
:101E3800F0008030A0002008F806FB09FB0A7B08A8
:101E4800031D272F282F452F0130F00700300318D6
:101E58000130F107003003180130F2070030031891
:101E68000130F307452F7408F0027508031C750F3D
:101E7800F1027608031C760FF2027708031C770F2D
:101E8800F3027308720471047004031D4C2F4D2F64
:101E98007B2F7B08031D512F522F7B2F0030F3001F
:101EA8000030F2000030F1000030F000FF2F013068
:101EB80083120313A0000310F00DF10DF20DF30DC2
:101EC800A00B5F2FFB1F692F6A2F6B2F70147B1CD1
:101ED8006E2F6F2F722F0314FB0D742F0310FB0D41
:101EE8007A080319782F792F7B2F0130FA02F21F15
:101EF8007E2F7F2F5B2FF901FB1F832F842F922FBB
:101F08007B087F390319892F8A2F8D2FF901F90A48
:101F1800922F701C902F912F922F8A2F79080319D6
:101F2800962F972FCD2F0130F0070030031801307E
:101F3800F107003003180130F207003003180130B0
:101F4800F307731CA82FA92FCD2F70088312031332
:101F5800A0007108A1007208A2007308A300013054
:101F6800A400230DA30CA20CA10CA00CA40BB52F4C
:101F78002308F3002208F2002108F1002008F000ED
:101F88007A0A0319C82FC92FCD2F0130A0002008C5
:101F9800FA077A0A0319D12FD22FD72F7A08031DEF
:101FA800D62FD72FE52F0030F3000030F200003095
:101FB800F1000030F0007A08031DE32FE42FE52F2D
:101FC800F8017A1CE82FE92FEB2FF217F12F7F3059
:101FD80083120313A0002008F2057A088312031362
:101FE800A0000310200CA1002108F300F81FFD2F0A
:101FF800FE2FFF2FF317080010308A000408840A08
:10200800820700345034453453344F340034543448
:1020180045344D3450340034563449344234003455
:102028004F3446344634003449344E345434003442
:0E2038004D344F34563400344F344E3400349F
:102D100064008001840A0406031900340406892E25
:102D20000A128A1104200A168A1183160313111439
:102D300008000A128A1104200A168A118316031346
:102D4000111508000A128A1104200A168A11700847
:102D50008312031393000800F00083160313981CDA
:102D6000B22EB32EAD2E7008831203139900080003
:102D70008312031388154E30F100EB30F000F00B96
:102D8000BF2EF10BBF2E8312031388110800F2002F
:102D90000A168A117C270A168A11720883120313F5
:102DA0008600881308110A168A11B8260A168A1195
:102DB00008008316031385018601870188018316A5
:102DC000031788018901003083120313A300013027
:102DD000A2008630A100A030A0000A128A15162099
:102DE0000A168A11080038300A168A11C7260A16F0
:102DF0008A110C300A168A11C7260A168A11013068
:102E00000A168A11C7260A168A1106300A168A116E
:102E1000C7260A168A1180300A168A11C7260A1692
:102E20008A110800F400242F740884000A168A11FD
:102E300000200A168A110A128A1504200A168A111D
:102E40000130F3007308F407740884000A168A112D
:102E500000200A168A11003A031D2F2F302F142F3D
:102E60000800803083120313AB062F08F3002E08EE
:102E7000F2002D08F1002C08F0002B08F7002A08BA
:102E8000F6002908F5002808F4000A128A156825BA
:102E90000A168A11730883120313AB007208AA0082
:102EA0007108A9007008A8000800F800F401F501F5
:102EB0007008F200F3017208F6007308F700781C3E
:102EC000622F632F692F7608F4070318F50A770835
:102ED000F50701300310F60DF70DFF3E031D6A2FB5
:102EE0000310F80C7808031D762F772F5F2F7508D5
:102EF000F1007408F0000800FF308312031386000D
:102F00008030F000700886058813081588114E304F
:102F1000F100EB30F000F00B8B2FF10B8B2F8312B5
:102F20000313881580300606031D972F982FA42FB2
:102F300088114E30F100EB30F000F00B9D2FF10BBB
:102F40009D2F83120313881508000A128A1104208A
:102F50000A168A118316031391150A128A11042086
:102F60000A168A11831203131308F200F301720880
:102F7000F4007308F5000A128A1104200A168A1157
:102F8000700871040319C52FC92F831603139116F6
:102F9000CC2F83160313911211167508F1007408D3
:102FA000F0000800F800033078020318D82FD92F5A
:102FB000FF2F10307302031CDE2FDF2FE02FFF2FB7
:102FC00078030319E42FE52FEB2FC0307304F600CC
:102FD0000030F700F02F80307304F6000030F70067
:102FE00076080A168A11C7260A168A110D30F500CE
:102FF000FB30F400F40BFA2FF50BFA2FFF2F08002B
:04400E00D4E0FFFFFC
:00000001FF
