:020000040000FA
:100000000A128A11DF2F0134F2001A2830304228F8
:1000100031304228323042283330422834304228AE
:10002000353042283630422837304228383042288E
:10003000393042287208F000F1017108003A0319C2
:10004000222842287008003A03190628013A0319A9
:100050000828033A03190A28013A03190C28073A19
:1000600003190E28013A03191028033A031912281C
:10007000013A031914280F3A03191628013A0319F3
:10008000182842280800831203132C088039AD0079
:100090002D08B6002C08AD002D07AE002E08BD00BF
:1000A000AB1F5328542855283D143D0803195928DF
:1000B0005A286A283D0A031D5E285F2867280030F9
:1000C000AC000030AB000030AA000030A900AB1734
:1000D000AC0172280030AC000030AB000030AA0048
:1000E0000030A90028088039AD002D08B606280880
:1000F000AD002D07AE002E08BE00A71F8028812866
:1001000082283E143E0803198628872897283E0A2D
:10011000031D8B288C2894280030A8000030A700ED
:100120000030A6000030A500A717A8019F280030C6
:10013000A8000030A7000030A6000030A500280865
:10014000270426042504031DA628A728C02800305C
:10015000AC000030AB000030AA000030A9008030B5
:10016000AB047F30AC043608AD002D08AC042C087D
:10017000A8002B08A7002A08A6002908A5001F2A06
:100180003D08031DC428C528CE280030A800003033
:10019000A7000030A6000030A5001F2A3D08AD00D2
:1001A000AE012E08B0003E082D02AF00031CB003C4
:1001B0002F087F3EB70030080318013E003EB8000C
:1001C0002C08B5002B08B4002A08B3002908B20097
:1001D0000030AC000030AB000030AA000030A900B5
:1001E0000030BC000030BB000030BA000030B90065
:1001F000BE0144293E080319FE28FF281F290130AB
:10020000AD000310B20DB30DB40DB50DAD0B01294A
:100210000130AD000310A90DAA0DAB0DAC0DAD0B57
:100220000A29BC1F14291529162929140130AD00EB
:100230000310B90DBA0DBB0DBC0DAD0B1829280864
:100240003502031D2D2927083402031D2D292608F8
:100250003302031D2D2925083202031C30293129C0
:1002600040293C172508B2022608031C260FB302BA
:100270002708031C270FB4022808031C280FB50207
:100280000130AD002D08BE071A303E02031C49297B
:100290004A29FA2835083404330432040319512951
:1002A00052297129391471290130AD000310A90DAB
:1002B000AA0DAB0DAC0DAD0B5629BC1F60296129F1
:1002C000622929140130AD000310B90DBA0DBB0D20
:1002D000BC0DAD0B6429FF30B7070318B80AFF3017
:1002E000B807AB1F742975295429BE01BC1F792991
:1002F0007A299629FF303905AD00FF303A05AE0066
:10030000FF303B05AF007F303C05B00030082F04C4
:100310002E042D0403198D298E299129BE01BE0AB0
:100320009629291C9429952996298E293E08031976
:100330009A299B29CC290130A907003003180130E4
:10034000AA07003003180130AB0700300318013052
:10035000AC072C1CAC29AD29CC292908AD002A08F2
:10036000AE002B08AF002C08B0000130B100300DFA
:10037000B00CAF0CAE0CAD0CB10BB7293008AC0013
:100380002F08AB002E08AA002D08A9000130B707DE
:100390000318B80A0030B8073808803AFF008030E8
:1003A0007F02031DD529FF303702031CD829D92924
:1003B000E729FF3083120313B7000030B800003084
:1003C000AC000030AB000030AA000030A90083125E
:1003D00003133808803AFF0080307F02031DF229A2
:1003E000013037020318F529F629032A8312031373
:1003F000B701B8010030AC000030AB000030AA00FB
:100400000030A900B601831203133708AD002D0890
:10041000BD003D1C0C2A0D2A0F2AAB17132A7F3072
:10042000AD002D08AB053D08AD0003102D0CAE004E
:100430002E08AC003608AD002D08AC04B728080023
:1004400007300A168A11E8230A128A110A168A113D
:1004500086210A128A110A168A11A2210A128A1109
:10046000003083120313A9000030A8002530A70034
:100470008030A6000A168A1106250A128A118312F4
:1004800003138501860187018801890102308316E3
:100490000313E2006208F30001300A168A115D229C
:1004A0000A128A1143300A168A11C1210A128A11CE
:1004B000063083160313E2006208F30001300A16C7
:1004C0008A115D220A128A1147300A168A11C12147
:1004D0000A128A110A3083160313E2006208F3003D
:1004E00001300A168A115D220A128A113B300A165F
:1004F0008A11C1210A128A110A168A112D210A12A3
:100500008A113130F0000030F1000A168A113F21C3
:100510000A128A110030F000F1000A168A11302206
:100520000A128A11700883160313E2006208CA00D7
:100530000A168A1136210A128A1103308316031310
:10054000E4000830E3007630E200E20BA52AE30B7A
:10055000A52AE40BA52A00000A168A112D210A12E9
:100560008A116130F0000030F1000A168A113F2133
:100570000A128A110030F000F1000A168A113022A6
:100580000A128A11700883160313E2006208C90078
:100590000A168A1136210A128A11033083160313B0
:1005A000E4000830E3007630E200E20BD52AE30BEA
:1005B000D52AE40BD52A00000A168A112D210A1229
:1005C0008A119130F0000030F1000A168A113F21A3
:1005D0000A128A110030F000F1000A168A11302246
:1005E0000A128A11700883160313E2006208C80019
:1005F0000A168A1136210A128A1103308316031350
:10060000E4000830E3007630E200E20B052BE30B58
:10061000052BE40B052B00000A168A112D210A1266
:100620008A11C130F0000030F1000A168A113F2112
:100630000A128A110030F000F1000A168A113022E5
:100640000A128A11700883160313E2006208CB00B5
:100650000A168A1136210A128A11033083160313EF
:10066000E4000830E3007630E200E20B352BE30BC8
:10067000352BE40B352B0000831603134A03031DAF
:10068000422B432B542B0230E2006208F30002306D
:100690000A168A115D220A128A113F300A168A113F
:1006A000C1210A128A11642B0230E2006208F300B1
:1006B00002300A168A115D220A128A114B300A167C
:1006C0008A11C1210A128A11831603134908031DD6
:1006D0006A2B6B2B7C2B0630E2006208F3000230A1
:1006E0000A168A115D220A128A113F300A168A11EF
:1006F000C1210A128A118C2B0630E2006208F30035
:1007000002300A168A115D220A128A114B300A162B
:100710008A11C1210A128A11831603134803031D8B
:10072000922B932BA42B0A30E2006208F3000230D4
:100730000A168A115D220A128A114B300A168A1192
:10074000C1210A128A11B42B0A30E2006208F300B8
:1007500002300A168A115D220A128A113F300A16E7
:100760008A11C1210A128A11153083160313E4007D
:100770004B30E300BD30E200E20BBC2BE30BBC2BA3
:10078000E40BBC2BC32B01300A168A1162210A121A
:100790008A11023083160313E2006208F30001306D
:1007A0000A168A115D220A128A1136300A168A1137
:1007B000C1210A128A11083083160313E20062086D
:1007C000F30001300A168A115D220A128A113130B3
:1007D0000A168A11C1210A128A11023083160313E4
:1007E000E2006208F30002300A168A115D220A1242
:1007F0008A112E300A168A1174210A128A110430C5
:1008000083160313E2006208F30002300A168A110D
:100810005D220A128A11DF300A168A1174210A1227
:100820008A11053083160313E2006208F3000230D8
:100830000A168A115D220A128A1143300A168A1199
:1008400074210A128A110B3083160313E200620826
:10085000F30002300A168A115D220A128A116730EB
:100860000A168A1174210A128A11BF3083120313E7
:10087000C2008030C1000030C0000030BF008316CD
:1008800003134B08E200E301E401E5016508F3000E
:100890006408F2006308F1006208F00000300A12F8
:1008A0008A1511200A128A11730883120313A800F3
:1008B0007208A7007108A6007008A5004430AC00BB
:1008C0007F30AB00C030AA000030A9000A128A11A4
:1008D00043200A128A11831203132808C60027082E
:1008E000C5002608C4002508C3000A128A1517226D
:1008F0000A128A1183120313420883160313E900B4
:1009000083120313410883160313E80083120313B1
:10091000400883160313E700831203133F0883166E
:100920000313E6006908DF006808DE006708DD00E1
:100930006608DC000A128A15CB200A128A11831677
:1009400003135F08ED005E08EC005D08EB005C0837
:10095000EA003B3083120313C2005B30C100CF308A
:10096000C0000F30BF003930D6009B30D5001D309D
:10097000D4006330D300831603136D08831203136E
:10098000DA00831603136C0883120313D90083164D
:1009900003136B0883120313D800831603136A082A
:1009A00083120313D7000A128A159F240A128A1190
:1009B000831203135608C6005508C5005408C40026
:1009C0005308C3000A128A1517220A128A118312C9
:1009D00003134208A8004108A7004008A6003F08EA
:1009E000A5003F30AC008030AB000030AA000030E2
:1009F000A9000A128A1143200A128A1183120313D2
:100A0000280883160313A3008312031327088316F1
:100A10000313A20083120313260883160313A100F5
:100A200083120313250883160313A000C330831217
:100A30000313C2008830C1009330C0003330BF00C0
:100A400083160313230883120313C60083160313AC
:100A5000220883120313C50083160313210883128F
:100A60000313C40083160313200883120313C30067
:100A70000A128A1517220A128A11831203134208D6
:100A80008316031793008312031341088316031779
:100A900092008312031340088316031791008312F8
:100AA00003133F08831603179000003083160313C7
:100AB000AF000030AE000030AD000030AC0041307F
:100AC00083120313D6002030D5000030D40000304C
:100AD000D30083160317130883120313DA00831657
:100AE0000317120883120313D90083160317110882
:100AF00083120313D80083160317100883120313FD
:100B0000D7000A128A159F240A128A11831203132E
:100B1000560883160313AB0083120313550883167C
:100B20000313AA0083120313540883160313A900A6
:100B300083120313530883160313A8002B08F30032
:100B40002A08F2002908F1002808F0000A168A1184
:100B50006D250A128A11710883160313B9007008F3
:100B6000B8000A30F0000030F1003908F30038080E
:100B7000F2000A168A11C3220A128A11700883161B
:100B80000313E2006208C0000A30F0000030F100F8
:100B90003908F3003808F2000A168A11FD220A12F9
:100BA0008A11710883160313B7007008B6000A3063
:100BB000F0000030F1003708F3003608F2000A16A2
:100BC0008A11C3220A128A11700883160313E200E5
:100BD0006208C1000A30F0000030F1003708F3006D
:100BE0003608F2000A168A11FD220A128A117008CC
:100BF00083160313E2006208C5000A30F0000030DB
:100C0000F1004508E200E3016208F2006308F30026
:100C10000A168A118F230A128A1170088316031389
:100C2000E4006408C600F30102300A168A115D224E
:100C30000A128A118316031346080A128A11042025
:100C40000A128A110A168A1174210A128A11F301F2
:100C5000F30A02300A168A115D220A128A118316DB
:100C6000031341080A128A1104200A128A110A1673
:100C70008A1174210A128A11033083160313E200C9
:100C80006208F30002300A168A115D220A128A11E4
:100C90008316031340080A128A1104200A128A11CB
:100CA0000A168A1174210A128A1142308312031320
:100CB000D600C830D5000030D4000030D3008316F1
:100CC00003132F0883120313DA00831603132E086D
:100CD00083120313D900831603132D088312031301
:100CE000D800831603132C0883120313D7000A12AB
:100CF0008A159F240A128A11831203135608831639
:100D00000313A70083120313550883160313A600C9
:100D100083120313540883160313A50083120313CD
:100D2000530883160313A4002708F3002608F200D3
:100D30002508F1002408F0000A168A116D250A1210
:100D40008A11710883160313B5007008B4000A30C5
:100D5000F0000030F1003508F3003408F2000A1604
:100D60008A11C3220A128A11700883160313E20043
:100D70006208BE000A30F0000030F1003508F300D0
:100D80003408F2000A168A11FD220A128A1171082B
:100D900083160313B3007008B2000A30F00000306D
:100DA000F1003308F3003208F2000A168A11C32258
:100DB0000A128A11700883160313E2006208BF004A
:100DC0000930E2006208F30002300A168A115D223F
:100DD0000A128A11831603133F080A128A1104208B
:100DE0000A128A110A168A1174210A128A110A300B
:100DF00083160313E2006208F30002300A168A1118
:100E00005D220A128A11831603133E080A128A1100
:100E100004200A128A110A168A1174210A128A11F0
:100E2000153083160313E4004B30E300BD30E200BD
:100E3000E20B182FE30B182FE40B182F1F2F013094
:100E40000A168A1162210A128A11831603134A08AC
:100E500003192B2F2C2F362F49030319302F312F35
:100E6000362F4803031D352F362F392FEE01EE0A9A
:100E70003A2FEE010A168A112D210A128A118030AA
:100E8000F0000030F1000A168A113F210A128A117F
:100E9000831603136E08E200E3016208F0006308A2
:100EA000F1000A168A113F210A128A110A168A11C4
:100EB00036210A128A11033083160313E400083026
:100EC000E3007630E200E20B632FE30B632FE40BC9
:100ED000632F0000831603134A080A168A1149215A
:100EE0000A128A11023083160313E4000430E3006F
:100EF000B930E200E20B7A2FE30B7A2FE40B7A2F62
:100F0000812F8316031349080A168A1149210A12F0
:100F10008A11023083160313E4000430E300B93071
:100F2000E200E20B912FE30B912FE40B912F982F0E
:100F30008316031348080A168A1149210A128A11D6
:100F4000023083160313E4000430E300B930E200FA
:100F5000E20BA82FE30BA82FE40BA82FAF2F8316CB
:100F600003134B080A168A1149210A128A1102300A
:100F700083160313E4000430E300B930E200E20B0F
:100F8000BF2FE30BBF2FE40BBF2FC62F00300A1675
:100F90008A1149210A128A11023083160313E400D0
:100FA0000430E300B930E200E20BD42FE30BD42F7E
:100FB000E40BD42FDB2F462A0A128A11002883164D
:100FC00003130A128A1103200A128A11EE008317F2
:100FD0009030840098300A168A1125210A128A114D
:100FE0008313A0308400CC300A168A1125210A12FE
:100FF0008A1183120313EE0183010A128A11202A37
:101004008312031388154E30F100EB30F000F00B1F
:101014000928F10B09288312031388110800F8002A
:1010240078080319162817282B28F31F1A281B28B9
:101034002B287009FA007109FB007209FC0073097E
:10104400FD00FA0A0319FB0A0319FC0A0319FD0A35
:1010540033287308FD007208FC007108FB00700857
:10106400FA007308720471047004031D3A283B28C3
:1010740044280030F3000030F2000030F10000306A
:10108400F000CA289630F4007408F900562801309C
:10109400F4007408F90701300310FD0CFC0CFB0C80
:1010A400FA0CFF3E031D4E28FE307D05031D5B2810
:1010B4005C28492878280130F4007408F9070130C5
:1010C400FA07003003180130FB0700300318013021
:1010D400FC07003003180130FD0701300310FD0C3C
:1010E400FC0CFB0CFA0CFF3E031D7028FF307D0541
:1010F400031D7D287E285D288A280130F9020130ED
:10110400F4000310FA0DFB0DFC0DFD0DF40B832808
:10111400FC1B8D288E28942802307902031893280A
:1011240094287F28791897289828A028FF30FA0552
:10113400FF30FB057F30FC05FF30FD050310F90C83
:101144007908F400F501F601F70118300310F40DE5
:10115400F50DF60DF70DFF3E031DA8287408FA04DB
:101164007508FB047608FC047708FD047808031965
:10117400BC28BD28C228F31FC028C128C228FD17D7
:101184007D08F3007C08F2007B08F1007A08F00087
:101194000800831603135F08F3005E08F2005D087D
:1011A400F1005C08F0000030F7000030F600003079
:1011B400F5000030F4000A168A1184260A128A15F2
:1011C4000318E528E628F528213083160313B00018
:1011D4000030B1000030DF000030DE000030DD0000
:1011E4000030DC00162A831603135F08F3005E0840
:1011F400F2005D08F1005C08F0000030F7000030F8
:10120400F6000030F5000030F4000A168A1141237C
:101214000A128A15031C0F2910291F29223083164C
:101224000313B0000030B1000030DF000030DE00F6
:101234000030DD000030DC00162ABF3083120313B7
:10124400C2008030C1000030C0000030BF00403018
:10125400D6000030D5000030D4000030D300E03098
:10126400ED006D08A400831603135F0883120313B3
:10127400A300831603135E0883120313A2008316CC
:1012840003135D0883120313A100831603135C0880
:1012940083120313A0000A168A1144240A128A1521
:1012A400831203132308DA002208D9002108D80086
:1012B4002008D7000A128A159F240A128A1583125D
:1012C40003135608C6005508C5005408C400530843
:1012D400C3000A128A1517220A128A1583120313ED
:1012E400420883160313DF00831203134108831695
:1012F4000313DE0083120313400883160313DD0077
:10130400831203133F0883160313DC00FF30E00746
:101314000318E10AFF30E1075F08CF005E08CE0042
:101324005D08CD005C08CC00053083120313ED008A
:101334006D0883160313D0000830D1000030D200AA
:101344000A168A1126270A128A15831603134F08D0
:10135400DF004E08DE004D08DD004C08DC005F08AD
:1013640083120313C200831603135E08831203134C
:10137400C100831603135D0883120313C000831690
:1013840003135C0883120313BF003F30D6003130CF
:10139400D5007230D4001830D300831603136008CC
:1013A400F0006108F1000030F11BFF30F200F3009F
:1013B40001300A128A1511200A128A157308831241
:1013C4000313DA007208D9007108D8007008D70036
:1013D4000A128A159F240A128A15831203135608C7
:1013E400C6005508C5005408C4005308C3000A12B7
:1013F4008A1517220A128A158312031342088316C8
:101404000313DF0083120313410883160313DE0062
:1014140083120313400883160313DD00831203139E
:101424003F0883160313DC000800831203134208E9
:101434008039C7004708CF004208C7004707C800E3
:101444004808D100C11F272A282A292A51145108E3
:1014540003192D2A2E2A3E2A510A031D322A332A21
:101464003B2A0030C2000030C1000030C000003010
:10147400BF00C117C201462A0030C2000030C100BB
:101484000030C0000030BF0046088039C70047085C
:10149400D00050084F060319502A512A522A4F17D8
:1014A4004608C7004707C8004808D000C51F5B2A84
:1014B4005C2A5D2A501450080319612A622A722A90
:1014C400500A031D662A672A6F2A0030C6000030BE
:1014D400C5000030C4000030C300C517C6017A2A15
:1014E4000030C6000030C5000030C4000030C30026
:1014F4005108500203187F2A802AC42A4F1F832AC6
:10150400842A882A8030C7004708CF065108C700BC
:101514004708D2005008C7004708D1005208C70046
:101524004708D0003F08C7004708D2004308C70057
:101534004708BF005208C7004708C3004008C70057
:101544004708D2004408C7004708C0005208C70033
:101554004708C4004108C7004708D2004508C7002F
:101564004708C1005208C7004708C5004208C70021
:101574004708D2004608C7004708C2005208C700FF
:101584004708C600D2015008C700C8014808CA006D
:1015940051084702C900031CCA034A08803AFF00E5
:1015A40080307F02031DD82A1A304902031CDB2A2B
:1015B400DC2A192B831203134208410440043F041C
:1015C400031DE52AE72A0130E82A0030C70047084E
:1015D400D2000030C2000030C1000030C000003032
:1015E400BF005008C7004708D100212B521CFB2A1A
:1015F400FC2A052B5208C7000310470C0138C80009
:101604004808D200072B0310D20C3F1C0A2B0B2BCB
:101614000C2BD2170130C700420DC20CC10CC00CF8
:10162400BF0CC70B0E2B0130C7004708D10783122C
:10163400031350085102031C202B212BF82A4F1BA3
:10164400242B252B702B5108031D292B2A2B332BDC
:101654000030C2000030C1000030C0000030BF00C4
:101664009E2C4308BF07440803110318013E0319C5
:101674003C2BC007450803110318013E0319432BF3
:10168400C107460803110318013E03194A2BC20778
:10169400421C4D2B4E2B242C521C512B522B5B2BBA
:1016A4005208C7000310470C0138C8004808D2008C
:1016B4005D2B0310D20C3F1C602B612B622BD217C5
:1016C4000130C700420DC20CC10CC00CBF0CC70BCB
:1016D400642B0130C7004708D107242C4208803A04
:1016E400FF004608803A7F02031D822B4508410211
:1016F400031D822B44084002031D822B43083F0232
:101704000318852B862BDE2BFF30C700FF30C80063
:10171400FF30C900FF30CA004308CB004408CC00A6
:101724004508CD004608CE003F08CB024008031C04
:10173400400F9D2B9E2BCC024108031C410FA32B71
:10174400A42BCD024208031C420FA92BAA2BCE02C4
:101754004B08C7074C0803184C0FB12BB22BC80712
:101764004D0803184D0FB72BB82BC9074E080318A3
:101774004E0ACA074A08C2004908C1004808C00006
:101784004708BF008030C7004708CF06D209D20AF5
:101794005208031DCE2BCF2BEC2B0130BF0700309A
:1017A40003180130C007003003180130C1070030AE
:1017B40003180130C207EC2B4308BF024408031C82
:1017C400440FC0024508031C450FC1024608031C10
:1017D400460FC2024208410440043F04031DF32B98
:1017E400F42B202C5208031DF82BF92B202C00304D
:1017F400C2000030C1000030C0000030BF009E2C89
:101804000130C7000310BF0DC00DC10DC20DC70BC1
:10181400042CD21F0E2C0F2C102C3F14521C132CF2
:10182400142C172C0314D20D192C0310D20D5108AB
:1018340003191D2C1E2C202C0130D102C11F232C76
:10184400242C022CD001D21F282C292C372C5208EE
:101854007F3903192E2C2F2C322CD001D00A372C8F
:101864003F1C352C362C372C2F2C500803193B2CBD
:101874003C2C702C0130BF07003003180130C00726
:10188400003003180130C107003003180130C207CB
:10189400421C4D2C4E2C702C3F08C7004008C80039
:1018A4004108C9004208CA000130CB004A0DCA0CE5
:1018B400C90CC80CC70CCB0B582C4A08C2004908E9
:1018C400C1004808C0004708BF00510A03196B2C27
:1018D4006C2C702C0130C7004708D107510A03193A
:1018E400742C752C7A2C5108031D792C7A2C882C95
:1018F4000030C2000030C1000030C0000030BF0022
:101904005108031D862C872C882CCF01511C8B2C4D
:101914008C2C8E2CC117922C7F30C7004708C10530
:101924005108C7000310470CC8004808C200CF1F65
:101934009C2C9D2C9E2CC21708008312031356085E
:101944008039DB005B08E0005608DB005B07DC0045
:101954005C08E600D51FAF2CB02CB12C66146608C9
:101964000319B52CB62CC52C660A031DBA2CBB2C46
:10197400C32C0030D6000030D5000030D400003035
:10198400D300D517CD2C0030D6000030D500003060
:10199400D4000030D3005A088039DB005B08E0062D
:1019A4005A08DB005B07DC005C08E500D91FDB2C70
:1019B400DC2CDD2C651465080319E12CE22CF12CD8
:1019C400650A031DE62CE72CEF2C0030DA0000300A
:1019D400D9000030D8000030D700D917F92C0030D6
:1019E400DA000030D9000030D8000030D700650894
:1019F4000319FD2CFE2C032D6608031D022D032D57
:101A04000C2D0030D6000030D5000030D40000305A
:101A1400D300FF2F5308DB005B08F00059080A16B7
:101A24008A11E0210A128A15710883120313EC004B
:101A34007008EB006B08DB00DC01DD01DE015E08F1
:101A4400E4005D08E3005C08E2005B08E1006C0868
:101A5400DB00DC01DD01DE015E08EA005D08E9006F
:101A64005C08E8005B08E7005408DB005B08F00052
:101A740058080A168A11E0210A128A15710883127D
:101A84000313EC007008EB006B08DB00DC01DD01E4
:101A9400DE015B08E1075C0803110318013E03192A
:101AA400542DE2075D0803110318013E03195B2D51
:101AB400E3075E0803110318013E0319622DE407CE
:101AC4006C08DB00DC01DD01DE015B08E7075C0874
:101AD40003110318013E0319702DE8075D08031173
:101AE4000318013E0319772DE9075E080311031853
:101AF400013E03197E2DEA075508DB005B08F00060
:101B040057080A168A11E0210A128A1571088312ED
:101B14000313EC007008EB006B08DB00DC01DD0153
:101B2400DE015B08E1075C0803110318013E031999
:101B34009C2DE2075D0803110318013E0319A32D30
:101B4400E3075E0803110318013E0319AA2DE407F5
:101B54006C08DB00DC01DD01DE015B08E7075C08E3
:101B640003110318013E0319B82DE8075D0803119A
:101B74000318013E0319BF2DE9075E08031103187A
:101B8400013E0319C62DEA070830DB000310E10DFE
:101B9400E20DE30DE40DDB0BC82D5408DB005B08FC
:101BA400F00057080A168A11E0210A128A157108F2
:101BB40083120313EC007008EB006B08DB006C0865
:101BC400DC00DD01DE015B08E1075C08031103189A
:101BD400013E0319EE2DE2075D0803110318013ECF
:101BE4000319F52DE3075E0803110318013E0319D9
:101BF400FC2DE4075308DB005B08F00058080A16C4
:101C04008A11E0210A128A15710883120313EC0069
:101C14007008EB006B08DB006C08DC00DD01DE0102
:101C24005B08E1075C0803110318013E03191B2E2E
:101C3400E2075D0803110318013E0319222EE3078E
:101C44005E0803110318013E0319292EE407083026
:101C5400DB000310E10DE20DE30DE40DDB0B2B2E95
:101C64005308DB005B08F00057080A168A11E021CC
:101C74000A128A15710883120313EC007008EB0032
:101C84006B08DB006C08DC00DD01DE015B08E107AA
:101C94005C0803110318013E0319512EE2075D0885
:101CA40003110318013E0319582EE3075E080311BC
:101CB4000318013E03195F2EE4075408DB005B0898
:101CC400F00059080A168A11E0210A128A157108CF
:101CD40083120313EC007008EB006B08DB006C0844
:101CE400DC00DD01DE015B08E7075C080311031873
:101CF400013E03197E2EE8075D0803110318013E17
:101D04000319852EE9075E0803110318013E031920
:101D14008C2EEA075508DB005B08F00058080A1609
:101D24008A11E0210A128A15710883120313EC0048
:101D34007008EB006B08DB006C08DC00DD01DE01E1
:101D44005B08E7075C0803110318013E0319AB2E77
:101D5400E8075D0803110318013E0319B22EE907D1
:101D64005E0803110318013E0319B92EEA0755084A
:101D7400DB005B08F00059080A168A11E0210A12F8
:101D84008A15710883120313EC007008EB006B08CA
:101D9400DB006C08DC00DD01DE0108300310DB0D24
:101DA400DC0DDD0DDE0DFF3E031DD02E5B08E707C5
:101DB4005C0803110318013E0319E12EE8075D08CE
:101DC40003110318013E0319E82EE9075E08031105
:101DD4000318013E0319EF2EEA076108DB006208CD
:101DE400DC006308DD006408DE0018300310DE0C3C
:101DF400DD0CDC0CDB0CFF3E031DF82E5B08E70753
:101E04005C0803110318013E0319092FE8075D0854
:101E140003110318013E0319102FE9075E0803118B
:101E24000318013E0319172FEA070830DB000310DB
:101E3400E10DE20DE30DE40DDB0B192F66086507D8
:101E4400DB00DC01DC0D5B08823EEB005C08031860
:101E5400013EFF3EEC004B2F0130DB000310E70D89
:101E6400E80DE90DEA0DDB0B302FE41F3A2F3B2F71
:101E74003C2F67140130DB000310E10DE20DE30D8C
:101E8400E40DDB0B3E2FFF30EB070318EC0AFF30A9
:101E9400EC07E91F4E2F4F2F2E2FE501E41F532F80
:101EA400542F702FFF306105DB00FF306205DC002A
:101EB400FF306305DD007F306405DE005E085D04ED
:101EC4005C045B040319672F682F6B2FE501E50A97
:101ED400702F671C6E2F6F2F702F682F65080319E2
:101EE400742F752FA62F0130E70700300318013037
:101EF400E807003003180130E90700300318013007
:101F0400EA076A1C862F872FA62F6708DB0068085C
:101F1400DC006908DD006A08DE000130DF005E0DC8
:101F2400DE0CDD0CDC0CDB0CDF0B912F5E08EA0011
:101F34005D08E9005C08E8005B08E7000130EB0796
:101F44000318EC0A0030EC076C08803AFF0080307C
:101F54007F02031DAF2FFF306B02031CB22FB32F80
:101F6400BE2F7F3083120313EA008030E900003073
:101F7400E8000030E700F32F831203136C08803A63
:101F8400FF0080307F02031DC92F01306B0203184C
:101F9400CC2FCD2FD92F003083120313EA00003049
:101FA400E9000030E8000030E700E001F32F83127D
:101FB40003136B08DB005B08E600FF30E705FF3026
:101FC400E8057F30E9050030EA05661CEA2FEB2FAF
:101FD400EC2FE9176608DB0003105B0CDC005C08DF
:101FE400EA006008DB005B08EA046A08D6006908B6
:101FF400D5006808D4006708D300080010308A00B0
:102004000408840A820700340034C0347F34443422
:102014000034003400340034C434FF347F343F349B
:102024008034EF34FF34BE349034E134A9343E3488
:10203400EC3482347634BE348234AD342B343E34C2
:102044000E343C34C334BD348734D13413343D347A
:1020540041347834D334BB340F34CF345B343B3421
:1020640063341D349B3439345034453453344F3441
:102074000034543445344D345034003456344934E7
:10208400423400344F3446344634003449344E34F8
:10209400543400344D344F34563400344F344E34B9
:0220A400003406
:10224A0064008001840A040603190034040626295E
:10225A000A168A1155210A168A11831603131114B4
:10226A0008000A168A1155210A168A1183160313C1
:10227A00111508000A168A1155210A168A117008C2
:10228A008312031393000800F00083160313981CAB
:10229A004F2950294A29700883120313990008000C
:1022AA008316031314195A295B29552911081F3952
:1022BA00031D6029612955290800F2000A168A11AE
:1022CA0007220A168A1172088312031386008813DA
:1022DA0008110A128A1502200A168A110800F20049
:1022EA000A168A1107220A168A1172088312031320
:1022FA008600881708110A128A1502200A168A11FE
:10230A0008008316031385018601870188010630B8
:10231A008900831603178801890100308312031389
:10232A00A3000130A2008630A100A030A0000A1646
:10233A008A118B220A168A11080038300A168A1165
:10234A0062210A168A110C300A168A1162210A16AB
:10235A008A1101300A168A1162210A168A11063078
:10236A000A168A1162210A168A1180300A168A11FF
:10237A0062210A168A110800F400D329740884001D
:10238A000A168A1100200A168A110A168A1174215D
:10239A000A168A110130F3007308F40774088400DE
:1023AA000A168A1100200A168A11003A031DDE292C
:1023BA00DF29C3290800F800F401F5017008F200CA
:1023CA00F3017208F6007308F700781CED29EE296C
:1023DA00F4297608F4070318F50A7708F507013097
:1023EA000310F60DF70DFF3E031DF5290310F80C37
:1023FA007808031D012A022AEA297508F1007408DF
:10240A00F0000800FF308312031386008030F000CA
:10241A00700886058813081588114E30F100EB30D4
:10242A00F000F00B162AF10B162A831203138815F3
:10243A0080300606031D222A232A2F2A88114E30AD
:10244A00F100EB30F000F00B282AF10B282A831256
:10245A000313881508000A168A1155210A168A11CB
:10246A008316031391150A168A1155210A168A1121
:10247A00831203131308F200F3017208F4007308BD
:10248A00F5000A168A1155210A168A117008710474
:10249A000319502A542A831603139116572A8316AE
:1024AA000313911211167508F1007408F000080060
:1024BA00F800033078020318632A642A8A2A103043
:1024CA007302031C692A6A2A6B2A8A2A7803031967
:1024DA006F2A702A762AC0307304F6000030F7009B
:1024EA007B2A80307304F6000030F70076080A165B
:1024FA008A1162210A168A110D30F500FB30F400A8
:10250A00F40B852AF50B852A8A2A080028308312BB
:10251A0003139400831603139101831203132008F3
:10252A00A4002108A5002208A6002308A70002305B
:10253A000310A40DA50DA60DA70DFF3E031D9D2A90
:10254A002708F3002608F2002508F1002408F00005
:10255A000030F7007A30F6001230F5000030F4004F
:10256A000A168A11A0240A168A117008FF3E8316D9
:10257A000313930094018715071608007008710465
:10258A000319C82AC92AF82AF501F50AD72A0130F7
:10259A000310F00DF10DFF3E031DCD2A0130F400AA
:1025AA007408F507F11FDA2ADB2ACC2A71087302AC
:1025BA00031DE12A70087202031CE42AE52AEB2AA9
:1025CA007008F2027108031CF303F30201300310CE
:1025DA00F10CF00CFF3E031DEC2A0130F502031D3D
:1025EA00F72AF82ADB2A7308F1007208F0000800BB
:1025FA00F501F601700871040319042B052B3C2B15
:10260A00F701F70A132B01300310F00DF10DFF3E0D
:10261A00031D092B0130F4007408F707F11F162B6C
:10262A00172B082B01300310F50DF60DFF3E031D85
:10263A00182B71087302031D242B70087202031CE5
:10264A00272B282B2F2B7008F2027108031CF30387
:10265A00F302751401300310F10CF00CFF3E031D58
:10266A00302B0130F702031D3B2B3C2B172B76082E
:10267A00F1007508F000080000307005F80000301D
:10268A007105F90080307205FA007F307305FB008E
:10269A007B087A0479047804031D542B552B5D2B8F
:1026AA000030F3000030F2000030F1000030F0009A
:1026BA0000307405F80000307505F90080307605A1
:1026CA00FA007F307705FB007B087A0479047804E6
:1026DA00031D702B712B792B0030F7000030F600A8
:1026EA000030F5000030F40077087306031D872BCD
:1026FA0076087206031D872B75087106031D872B42
:10270A007408700603198A2B8B2B8D2B03108E2BC2
:10271A0003140800F601F31F932B942B9B2BF20949
:10272A00F309F20A0319F30AF601F60AF11F9E2BBE
:10273A009F2BA42BF009F109F00A0319F10A70087A
:10274A0071040319A92BAA2BD92BF501F50AB82B69
:10275A0001300310F00DF10DFF3E031DAE2B0130C9
:10276A00F4007408F507F11FBB2BBC2BAD2B7108C5
:10277A007302031DC22B70087202031CC52BC62BE1
:10278A00CC2B7008F2027108031CF303F302013028
:10279A000310F10CF00CFF3E031DCD2B0130F502A6
:1027AA00031DD82BD92BBC2B76080319DD2BDE2B66
:1027BA00E32BF209F309F20A0319F30A7308F10089
:1027CA007208F0000800F200202C831603130F127F
:1027DA008F120F13422C831603130F168F120F1327
:1027EA00422C831603130F128F160F13422C8316D3
:1027FA0003130F168F160F13422C831603130F128F
:10280A008F120F17422C831603130F168F120F17EE
:10281A00422C831603130F128F160F17422C83169E
:10282A0003130F168F160F17422C831603130F125A
:10283A008F160F17422C7208F000F1017108003A46
:10284A000319282C1A2C7008003A0319EA2B013AAA
:10285A000319F02B033A0319F62B013A0319FC2B3F
:10286A00073A0319022C013A0319082C033A0319EF
:10287A000E2C013A0319142C1A2C0F140800831277
:10288A0003132308F3002208F2002108F1002008AC
:10289A00F0000030F7000030F6000030F50000309C
:1028AA00F4000A168A1141230A168A11031C5E2CA7
:1028BA005F2C702C83120313240884008313800175
:1028CA00840A80010030A3000030A2000030A10079
:1028DA000030A0009F2C8312031323087F39FC00C9
:1028EA00FD010310FC0DFD0D240884007C088313F0
:1028FA008000840A7D088000220D220D0139FC0027
:10290A00FD01240884007C088004840A7D08800470
:10291A002408840082308007840F00080318000A04
:10292A00FF00FF307F0780008403230880393F3887
:10293A00A300A21308000030FC000030FB000030A6
:10294A00FA000030F9007308720471047004031964
:10295A00AF2CB02CFD2CFD01FD0AC02C0130F80073
:10296A000310F00DF10DF20DF30DF80BB52C01303B
:10297A00F8007808FD07F31FC32CC42CB32C0130D0
:10298A00F8000310F90DFA0DFB0DFC0DF80BC62C1F
:10299A0073087702031DDB2C72087602031DDB2CF9
:1029AA0071087502031DDB2C70087402031CDE2CEF
:1029BA00DF2CEE2C7008F4027108031C710FF5026B
:1029CA007208031C720FF6027308031C730FF702D6
:1029DA00791401300310F30CF20CF10CF00CFF3EE9
:1029EA00031DEF2C0130FD02031DFC2CFD2CC42C11
:1029FA007C08F3007B08F2007A08F1007908F000FD
:102A0A000800831203132608AA002708AB00280827
:102A1A00AC002908AD0004300310AA0DAB0DAC0DB3
:102A2A00AD0DFF3E031D112D2D08F3002C08F200F9
:102A3A002B08F1002A08F0002608AE002708AF008C
:102A4A002808B0002908B10004300310AE0DAF0DFC
:102A5A00B00DB10DFF3E031D2A2D0030B200123019
:102A6A00B3007A30B4000030B5002E08B2022F0845
:102A7A00031C2F0F412D422DB3023008031C300FC7
:102A8A00472D482DB4023108031C310F4D2D4E2D10
:102A9A00B5023508F7003408F6003308F5003208A5
:102AAA00F4000A168A11E7250A168A117008831695
:102ABA00031399001815181283120313981718167E
:102ACA008316031398161813831203131813080096
:102ADA000310720D730DF4007408FA007A08031DCE
:102AEA00772D782D812D0030F3000030F200003070
:102AFA00F1000030F000E62D7008F4007108F500CE
:102B0A007208F6007308F7001F300310F70CF60C72
:102B1A00F50CF40CFF3E031D8A2D7408F8007808A2
:102B2A00F900F217FF30F005FF30F105FF30F2052A
:102B3A000030F3059630FA02FA1FA42DA52DBF2DF9
:102B4A007A08803A973E0318AB2DAC2DAD2D782D1F
:102B5A0001300310F30CF20CF10CF00CFF3E031DD4
:102B6A00AE2D0130F4007408FA07031DBD2DBE2DE9
:102B7A00AD2DD62D20307A02031CC42DC52DD12DA2
:102B8A00782D0130F4000310F00DF10DF20DF30D64
:102B9A00F40BC82D0130FA027A08031DD52DD62D63
:102BAA00C62D79080319DA2DDB2DE62DF009F10976
:102BBA00F209F309F00A0319F10A0319F20A0319CF
:102BCA00F30A080083120313A101F31FED2DEE2D62
:102BDA00FB2DF009F109F209F309F00A0319F10AC8
:102BEA000319F20A0319F30AA101A10AF71FFE2D1C
:102BFA00FF2D0E2EF409F509F609F709F40A03194F
:102C0A00F50A0319F60A0319F70A0130F8007808D9
:102C1A00A1060030A5000030A4000030A300003057
:102C2A00A200730872047104700403191D2E1E2E6B
:102C3A006B2EA001A00A2E2E0130F8000310F00D11
:102C4A00F10DF20DF30DF80B232E0130F800780880
:102C5A00A007F31F312E322E212E0130F800031067
:102C6A00A20DA30DA40DA50DF80B342E730877023F
:102C7A00031D492E72087602031D492E710875023A
:102C8A00031D492E70087402031C4C2E4D2E5C2E17
:102C9A007008F4027108031C710FF5027208031C14
:102CAA00720FF6027308031C730FF7022214013025
:102CBA000310F30CF20CF10CF00CFF3E031D5D2E19
:102CCA000130A002031D6A2E6B2E322E2108031931
:102CDA006F2E702E7B2EA209A309A409A509A20AA8
:102CEA000319A30A0319A40A0319A50A2508F3005C
:102CFA002408F2002308F1002208F000080000303E
:102D0A007005F80000307105F90080307205FA008C
:102D1A007F307305FB007B087A0479047804031D6D
:102D2A00972E982EA02E0030F3000030F2000030CB
:102D3A00F1000030F00000307405F800003075052D
:102D4A00F90080307605FA007F307705FB007B08B2
:102D5A007A0479047804031DB32EB42EBC2E0030F5
:102D6A00F7000030F6000030F5000030F400F31FE1
:102D7A00BF2EC02EE42E0030F8000030F9000030DB
:102D8A00FA008030FB007008F8027108031C710F0A
:102D9A00CF2ED02EF9027208031C720FD52ED62E12
:102DAA00FA027308031C730FDB2EDC2EFB027B086E
:102DBA00F3007A08F2007908F1007808F000F71FAA
:102DCA00E72EE82E0C2F0030F8000030F900003012
:102DDA00FA008030FB007408F8027508031C750FAE
:102DEA00F72EF82EF9027608031C760FFD2EFE2E1A
:102DFA00FA027708031C770F032F042FFB027B08C4
:102E0A00F7007A08F6007908F5007808F4008030AF
:102E1A00F3068030F70677087302031D1E2F760823
:102E2A007202031D1E2F75087102031D1E2F7408DE
:102E3A0070020318212F222F242F0310252F031489
:102E4A000800831603135108D30001300310D30D71
:102E5A00FF3E031D2B2F0310530D500784000A1643
:102E6A008A1100200A168A11D4000A168A11002033
:102E7A000A168A11D5000A168A1100200A168A1122
:102E8A00D6000A168A1100200A168A11D700570896
:102E9A00DB005608DA005508D9005408D800F12F8B
:102EAA00FF30D1070318D20AFF30D2075108D300E6
:102EBA0001300310D30DFF3E031D5E2F0310530D87
:102ECA00500784000A168A1100200A168A11D400B3
:102EDA000A168A1100200A168A11D5000A168A11C2
:102EEA0000200A168A11D6000A168A1100200A162C
:102EFA008A11D700570883120313C20083160313DB
:102F0A00560883120313C10083160313550883124C
:102F1A000313C00083160313540883120313BF005C
:102F2A00831603135B0883120313D6008316031355
:102F3A005A0883120313D500831603135908831200
:102F4A000313D40083160313580883120313D30000
:102F5A00831603134F0883120313DA00831603132D
:102F6A004E0883120313D900831603134D088312E4
:102F7A000313D800831603134C0883120313D700D4
:102F8A000A128A159F240A168A11831203135608F5
:102F9A00C6005508C5005408C4005308C3000A12E5
:102FAA008A1517220A168A118312031342088316F6
:102FBA000313DB0083120313410883160313DA0099
:102FCA0083120313400883160313D90083120313D1
:102FDA003F0883160313D80051085204031DF62F25
:102FEA00F72F552F5B08CF005A08CE005908CD009D
:062FFA005808CC0008009D
:04400E00D4E0FFFFFC
:00000001FF
