:020000040000FA
:100000000A128A11F32FF501F60170087104031921
:100010000A280B284228F701F70A19280130031093
:10002000F00DF10DFF3E031D0F280130F4007408A0
:10003000F707F11F1C281D280E2801300310F50DAD
:10004000F60DFF3E031D1E2871087302031D2A28AA
:1000500070087202031C2D282E2835287008F20221
:100060007108031CF303F302751401300310F10C43
:10007000F00CFF3E031D36280130F702031D412816
:1000800042281D287608F1007508F00008000310CA
:10009000720D730DF4007408FA007A08031D5128DC
:1000A00052285B280030F3000030F2000030F100ED
:1000B0000030F000C0287008F4007108F5007208E4
:1000C000F6007308F7001F300310F70CF60CF50C60
:1000D000F40CFF3E031D64287408F8007808F9004A
:1000E000F217FF30F005FF30F105FF30F205003068
:1000F000F3059630FA02FA1F7E287F2899287A089D
:10010000803A973E03188528862887285228013090
:100110000310F30CF20CF10CF00CFF3E031D8828C9
:100120000130F4007408FA07031D972898288728DF
:10013000B02820307A02031C9E289F28AB28522822
:100140000130F4000310F00DF10DF20DF30DF40B7E
:10015000A2280130FA027A08031DAF28B028A0288F
:1001600079080319B428B528C028F009F109F20963
:10017000F309F00A0319F10A0319F20A0319F30A41
:100180000800F80078080319C628C728DB28F31FE1
:10019000CA28CB28DB287009FA007109FB00720914
:1001A000FC007309FD00FA0A0319FB0A0319FC0A93
:1001B0000319FD0AE3287308FD007208FC007108AA
:1001C000FB007008FA007308720471047004031DC8
:1001D000EA28EB28F4280030F3000030F200003069
:1001E000F1000030F0007A299630F4007408F9002C
:1001F00006290130F4007408F90701300310FD0CE2
:10020000FC0CFB0CFA0CFF3E031DFE28FE307D05A6
:10021000031D0B290C29F92828290130F400740842
:10022000F9070130FA07003003180130FB070030EE
:1002300003180130FC07003003180130FD070130BE
:100240000310FD0CFC0CFB0CFA0CFF3E031D2029D7
:10025000FF307D05031D2D292E290D293A29013056
:10026000F9020130F4000310FA0DFB0DFC0DFD0D39
:10027000F40B3329FC1B3D293E2944290230790225
:100280000318432944292F29791847294829502937
:10029000FF30FA05FF30FB057F30FC05FF30FD0520
:1002A0000310F90C7908F400F501F601F701183094
:1002B0000310F40DF50DF60DF70DFF3E031D582943
:1002C0007408FA047508FB047608FC047708FD043A
:1002D000780803196C296D297229F31F7029712977
:1002E0007229FD177D08F3007C08F2007B08F100FD
:1002F0007A08F0000800831203134C088039CD00FF
:100300004D08D6004C08CD004D07CE004E08DD004C
:10031000CB1F8B298C298D295D145D080319912928
:100320009229A2295D0A031D962997299F29003049
:10033000CC000030CB000030CA000030C900CB1721
:10034000CC01AA290030CC000030CB000030CA001C
:100350000030C90048088039CD004D08D60648084D
:10036000CD004D07CE004E08DE00C71FB829B929C1
:10037000BA295E145E080319BE29BF29CF295E0A77
:10038000031DC329C429CC290030C8000030C70090
:100390000030C6000030C500C717C801D72900309B
:1003A000C8000030C7000030C6000030C500480853
:1003B000470446044504031DDE29DF29F8290030DF
:1003C000CC000030CB000030CA000030C9008030C3
:1003D000CB047F30CC045608CD004D08CC044C082B
:1003E000C8004B08C7004A08C6004908C500572B7B
:1003F0005D08031DFC29FD29062A0030C8000030D5
:10040000C7000030C6000030C500572B5D08CD0086
:10041000CE014E08D0005E084D02CF00031CD00371
:100420004F087F3ED70050080318013E003ED80019
:100430004C08D5004B08D4004A08D3004908D20024
:100440000030CC000030CB000030CA000030C900C2
:100450000030DC000030DB000030DA000030D90072
:10046000DE017C2A5E080319362A372A572A013012
:10047000CD000310D20DD30DD40DD50DCD0B392ADF
:100480000130CD000310C90DCA0DCB0DCC0DCD0B25
:10049000422ADC1F4C2A4D2A4E2A49140130CD0035
:1004A0000310D90DDA0DDB0DDC0DCD0B502A4808F9
:1004B0005502031D652A47085402031D652A460894
:1004C0005302031D652A45085202031C682A692A43
:1004D000782A5C174508D2024608031C460FD3024F
:1004E0004708031C470FD4024808031C480FD502D5
:1004F0000130CD004D08DE071A305E02031C812A50
:10050000822A322A55085404530452040319892AB2
:100510008A2AA92A5914A92A0130CD000310C90D2D
:10052000CA0DCB0DCC0DCD0B8E2ADC1F982A992A33
:100530009A2A49140130CD000310D90DDA0DDB0DD4
:10054000DC0DCD0B9C2AFF30D7070318D80AFF30EB
:10055000D807CB1FAC2AAD2A8C2ADE01DC1FB12ABA
:10056000B22ACE2AFF305905CD00FF305A05CE0001
:10057000FF305B05CF007F305C05D00050084F0492
:100580004E044D040319C52AC62AC92ADE01DE0A13
:10059000CE2A491CCC2ACD2ACE2AC62A5E080319A7
:1005A000D22AD32A042B0130C907003003180130A6
:1005B000CA07003003180130CB07003003180130A0
:1005C000CC074C1CE42AE52A042B4908CD004A0834
:1005D000CE004B08CF004C08D0000130D100500DA8
:1005E000D00CCF0CCE0CCD0CD10BEF2A5008CC0088
:1005F0004F08CB004E08CA004D08C9000130D7078C
:100600000318D80A0030D8075808803AFF00803015
:100610007F02031D0D2BFF305702031C102B112BE3
:100620001F2BFF3083120313D7000030D800003097
:10063000CC000030CB000030CA000030C90083126B
:1006400003135808803AFF0080307F02031D2A2BD5
:100650000130570203182D2B2E2B3B2B8312031333
:10066000D701D8010030CC000030CB000030CA00E8
:100670000030C900D601831203135708CD004D087E
:10068000DD005D1C442B452B472BCB174B2B7F30BC
:10069000CD004D08CB055D08CD0003104D0CCE00FC
:1006A0004E08CC005608CD004D08CC04EF290800B8
:1006B00007300A128A1576230A128A110A128A153D
:1006C00069210A128A110A128A1583210A128A11D3
:1006D000831203138501860187018801023083128A
:1006E0000313DF005F08F30001300A128A153E226F
:1006F0000A128A1101300A128A15A2210A128A11DD
:10070000073083120313DF005F08F30001300A1281
:100710008A153E220A128A1104300A128A15A22171
:100720000A128A110C3083120313DF005F08F300F2
:1007300001300A128A153E220A128A1107300A1263
:100740008A15A2210A128A11F301F30A02300A1251
:100750008A153E220A128A112E300A128A15572152
:100760000A128A11043083120313DF005F08F300BA
:1007700002300A128A153E220A128A1156300A12D3
:100780008A1557210A128A110B3083120313DF00D6
:100790005F08F30002300A128A153E220A128A11FB
:1007A0002E300A128A1557210A128A110E3083122E
:1007B0000313DF005F08F30002300A128A153E229D
:1007C0000A128A1156300A128A1557210A128A1102
:1007D0000A128A150D210A128A113130F0000030F8
:1007E000F1000A128A151F210A128A110030F00046
:1007F000F1000A128A1511220A128A117008831256
:100800000313DF005F08C4000A128A1516210A12BA
:100810008A11033083120313E1000830E0007630C0
:10082000DF00DF0B112CE00B112CE10B112C000071
:100830000A128A150D210A128A116130F000003067
:10084000F1000A128A151F210A128A110030F000E5
:10085000F1000A128A1511220A128A1170088312F5
:100860000313DF005F08C3000A128A1516210A125B
:100870008A11033083120313E1000830E000763060
:10088000DF00DF0B412CE00B412CE10B412C000081
:100890000A128A150D210A128A119130F0000030D7
:1008A000F1000A128A151F210A128A110030F00085
:1008B000F1000A128A1511220A128A117008831295
:1008C0000313DF005F08C2000A128A1516210A12FC
:1008D0008A11033083120313E1000830E000763000
:1008E000DF00DF0B712CE00B712CE10B712C000091
:1008F000423083120313C8004C30C7000030C600DA
:100900000030C5004408DF00E001E101E2016208B7
:10091000F3006108F2006008F1005F08F0000130A8
:100920000A128A11C1200A128A1173088312031352
:10093000CC007208CB007108CA007008C9000A1206
:100940008A117B210A128A11831203134808AF000F
:100950004708AE004608AD004508AC004230C8006C
:100960004C30C7000030C6000030C5004208DF0030
:10097000E001E101E2016208F3006108F2006008B1
:10098000F1005F08F00001300A128A11C1200A123A
:100990008A11730883120313CC007208CB0071080C
:1009A000CA007008C9000A128A117B210A128A1132
:1009B000831203134808AB004708AA004608A900A1
:1009C0004508A8004230C800C830C7000030C60043
:1009D0000030C5002F08CC002E08CB002D08CA001F
:1009E0002C08C9000A128A159F240A128A11831240
:1009F00003134808A7004708A6004608A5004508B5
:100A0000A4002708F3002608F2002508F1002408B6
:100A1000F0000A128A1147200A128A117108831203
:100A20000313B7007008B6000A30F0000030F10080
:100A30003708F3003608F2000A128A15A4220A12B7
:100A40008A11700883120313DF005F08BE000A30AA
:100A5000F0000030F1003708F3003608F2000A1207
:100A60008A1103200A128A11710883120313B50038
:100A70007008B4000A30F0000030F1003508F300CF
:100A80003408F2000A128A15A4220A128A11700888
:100A900083120313DF005F08BF002F08F3002E0846
:100AA000F2002D08F1002C08F0000A128A114720EC
:100AB0000A128A11700883120313DF005F08C10055
:100AC000F30102300A128A153E220A128A11831299
:100AD000031341080A128A15DE220A128A110A1229
:100AE0008A1557210A128A11023083120313DF007C
:100AF0005F08F30002300A128A153E220A128A1198
:100B0000831203133F080A128A15DE220A128A1181
:100B10000A128A1557210A128A110330831203130D
:100B2000DF005F08F30002300A128A153E220A1223
:100B30008A11831203133E080A128A15DE220A1252
:100B40008A110A128A1557210A128A110A30F000F6
:100B50000030F100831203134308DF00E0015F0857
:100B6000F2006008F3000A128A151D230A128A1186
:100B7000700883120313E1006108BB000A30F00023
:100B80000030F1004308DF00E0015F08F200600878
:100B9000F3000A128A1538240A128A117008831287
:100BA0000313E1006108BA000730DF005F08F300BB
:100BB00002300A128A153E220A128A118312031386
:100BC0003A080A128A15DE220A128A110A128A15B6
:100BD00057210A128A11083083120313DF005F08BD
:100BE000F30002300A128A153E220A128A11831279
:100BF00003133B080A128A15DE220A128A110A120E
:100C00008A1557210A128A11423083120313C80031
:100C1000C830C7000030C6000030C5002B08CC002B
:100C20002A08CB002908CA002808C9000A128A1518
:100C30009F240A128A11831203134808A30047084D
:100C4000A2004608A1004508A0002308F3002208DE
:100C5000F2002108F1002008F0000A128A11472052
:100C60000A128A11710883120313B3007008B200CC
:100C70000A30F0000030F1003308F3003208F200CF
:100C80000A128A15A4220A128A1170088312031309
:100C9000DF005F08BC000A30F0000030F1003308CC
:100CA000F3003208F2000A128A1103200A128A1194
:100CB000710883120313B1007008B0000A30F0000D
:100CC0000030F1003108F3003008F2000A128A15F2
:100CD000A4220A128A11700883120313DF005F082E
:100CE000BD002B08F3002A08F2002908F1002808AB
:100CF000F0000A128A1147200A128A117008831222
:100D00000313DF005F08C0000A30DF005F08F30054
:100D100002300A128A153E220A128A118312031324
:100D200040080A128A15DE220A128A110A128A154E
:100D300057210A128A110C3083120313DF005F0857
:100D4000F30002300A128A153E220A128A11831217
:100D500003133D080A128A15DE220A128A110A12AA
:100D60008A1557210A128A110D3083120313DF00EE
:100D70005F08F30002300A128A153E220A128A1115
:100D8000831203133C080A128A15DE220A128A1102
:100D90000A128A1557210A128A1129308312031365
:100DA000E1009630E0007E30DF00DF0BD52EE00B57
:100DB000D52EE10BD52E000001300A128A154521EF
:100DC0000A128A11023083120313DF005F08F30056
:100DD00001300A128A153E220A128A110A300A12BA
:100DE0008A15A2210A128A11F301F30A02300A12AB
:100DF0008A153E220A128A112E300A128A155721AC
:100E00000A128A11043083120313DF005F08F30013
:100E100002300A128A153E220A128A1156300A122C
:100E20008A1557210A128A11423083120313C8000F
:100E3000C830C7000030C6000030C5002F08CC0005
:100E40002E08CB002D08CA002C08C9000A128A15EA
:100E50009F240A128A11831203134808A700470827
:100E6000A6004608A5004508A4002708F3002608A8
:100E7000F2002508F1002408F0000A128A11472028
:100E80000A128A11710883120313B7007008B600A2
:100E90000A30F0000030F1003708F3003608F200A5
:100EA0000A128A15A4220A128A11700883120313E7
:100EB000DF005F08BE000A30F0000030F1003708A4
:100EC000F3003608F2000A128A1103200A128A116E
:100ED000710883120313B5007008B4000A30F000E3
:100EE0000030F1003508F3003408F2000A128A15C8
:100EF000A4220A128A11700883120313DF005F080C
:100F0000BF002F08F3002E08F2002D08F1002C0876
:100F1000F0000A128A1147200A128A1170088312FF
:100F20000313DF005F08C100F30102300A128A15C3
:100F30003E220A128A118312031341080A128A15EB
:100F4000DE220A128A110A128A1557210A128A1100
:100F5000023083120313DF005F08F30002300A122D
:100F60008A153E220A128A11831203133F080A12BD
:100F70008A15DE220A128A110A128A1557210A12CC
:100F80008A11033083120313DF005F08F30002307D
:100F90000A128A153E220A128A11831203133E088E
:100FA0000A128A15DE220A128A110A128A1557219C
:100FB0000A128A11293083120313E1009630E000EF
:100FC0007E30DF00DF0BE22FE00BE22FE10BE22FA0
:100FD000000001300A128A1545210A128A116E2B6F
:100FE0000A128A11002883132030840045300A1227
:100FF0008A1505210A128A1183010A128A11582BB7
:1010000008308A000408840A8207003453343134DB
:1010100000345334323400345334333400345334D2
:041020003434003430
:10120A0064008001840A04060319003404060629CE
:10121A000A128A1529210A128A1583160313111430
:10122A0008000A128A1529210A128A15831603133D
:10123A00111508000A128A1529210A128A1570083E
:10124A0083120313930008008316031314192E291B
:10125A002F29292911081F39031D3429352929293C
:10126A0008008312031388154E30F100EB30F000AA
:10127A00F00B3D29F10B3D29831203138811080055
:10128A00F2000A128A15E8210A128A1572088312D4
:10129A0003138600881308110A128A1536210A12C6
:1012AA008A150800F2000A128A15E8210A128A151C
:1012BA007208831203138600881708110A128A1506
:1012CA0036210A128A15080083160313850186013E
:1012DA008701880183160317880189010030831268
:1012EA000313C8000130C7008630C600A030C5000D
:1012FA000A128A156C220A128A15080038300A1254
:10130A008A1545210A128A150C300A128A154521B6
:10131A000A128A1501300A128A1545210A128A15FB
:10132A0006300A128A1545210A128A1580300A12D5
:10133A008A1545210A128A150800F400B42974088E
:10134A0084000A128A1500200A128A150A128A15BE
:10135A0057210A128A150130F3007308F40774083A
:10136A0084000A128A1500200A128A15003A031DFF
:10137A00BF29C029A4290800F800F401F501700862
:10138A00F200F3017208F6007308F700781CCE2900
:10139A00CF29D5297608F4070318F50A7708F5073F
:1013AA0001300310F60DF70DFF3E031DD629031079
:1013BA00F80C7808031DE229E329CB297508F10006
:1013CA007408F0000800FF3083120313860080308F
:1013DA00F000700886058813081588114E30F10050
:1013EA00EB30F000F00BF729F10BF7298312031306
:1013FA00881580300606031D032A042A102A88113C
:10140A004E30F100EB30F000F00B092AF10B092AFB
:10141A0083120313881508000A128A1529210A1251
:10142A008A158316031391150A128A1529210A129D
:10143A008A15831203131308F200F3017208F400E9
:10144A007308F5000A128A1529210A128A157008EA
:10145A0071040319312A352A831603139116382A7F
:10146A0083160313911211167508F1007408F0001F
:10147A000800F800033078020318442A452A6B2A28
:10148A0010307302031C4A2A4B2A4C2A6B2A78030F
:10149A000319502A512A572AC0307304F600003023
:1014AA00F7005C2A80307304F6000030F7007608F3
:1014BA000A128A1545210A128A150D30F500FB30E9
:1014CA00F400F40B662AF50B662A6B2A080028300A
:1014DA0083120313940083160313910183120313D7
:1014EA004508C9004608CA004708CB004808CC008E
:1014FA0002300310C90DCA0DCB0DCC0DFF3E031DE2
:10150A007E2A4C08F3004B08F2004A08F100490809
:10151A00F0000030F7007A30F6001230F5000030A3
:10152A00F4000A128A15D2230A128A157008FF3E9D
:10153A008316031393009401871507160800700891
:10154A0071040319A92AAA2AD92AF501F50AB82A7F
:10155A0001300310F00DF10DFF3E031DAE2A0130DC
:10156A00F4007408F507F11FBB2ABC2AAD2A7108DA
:10157A007302031DC22A70087202031CC52AC62AF6
:10158A00CC2A7008F2027108031CF303F30201303B
:10159A000310F10CF00CFF3E031DCD2A0130F502B9
:1015AA00031DD82AD92ABC2A7308F1007208F00050
:1015BA000800F200F42A30301C2B31301C2B323058
:1015CA001C2B33301C2B34301C2B35301C2B363063
:1015DA001C2B37301C2B38301C2B39301C2B720833
:1015EA00F000F1017108003A0319FC2A1C2B70085B
:1015FA00003A0319E02A013A0319E22A033A0319C5
:10160A00E42A013A0319E62A073A0319E82A013AB1
:10161A000319EA2A033A0319EC2A013A0319EE2AB2
:10162A000F3A0319F02A013A0319F22A1C2B08006F
:10163A00F601F31F212B222B292BF209F309F20AB7
:10164A000319F30AF601F60AF11F2C2B2D2B322B64
:10165A00F009F109F00A0319F10A70087104031973
:10166A00372B382B672BF501F50A462B013003106F
:10167A00F00DF10DFF3E031D3C2B0130F400740800
:10168A00F507F11F492B4A2B3B2B71087302031DE7
:10169A00502B70087202031C532B542B5A2B7008C0
:1016AA00F2027108031CF303F30201300310F10C78
:1016BA00F00CFF3E031D5B2B0130F502031D662B68
:1016CA00672B4A2B760803196B2B6C2B712BF209AB
:1016DA00F309F20A0319F30A7308F1007208F00019
:1016EA000800F200AE2B831603130F128F120F138A
:1016FA00D02B831603130F168F120F13D02B8316BA
:10170A0003130F128F160F13D02B831603130F1602
:10171A008F160F13D02B831603130F128F120F1766
:10172A00D02B831603130F168F120F17D02B831685
:10173A0003130F128F160F17D02B831603130F16CE
:10174A008F160F17D02B831603130F128F160F172E
:10175A00D02B7208F000F1017108003A0319B62B78
:10176A00A82B7008003A0319782B013A03197E2B2B
:10177A00033A0319842B013A03198A2B073A0319EE
:10178A00902B013A0319962B033A03199C2B013A21
:10179A000319A22BA82B0F1408000030FC000030FC
:1017AA00FB000030FA000030F9007308720471047B
:1017BA0070040319E12BE22B2F2CFD01FD0AF22BF9
:1017CA000130F8000310F00DF10DF20DF30DF80BD6
:1017DA00E72B0130F8007808FD07F31FF52BF62BED
:1017EA00E52B0130F8000310F90DFA0DFB0DFC0D85
:1017FA00F80BF82B73087702031D0D2C720876027A
:10180A00031D0D2C71087502031D0D2C700874023E
:10181A00031C102C112C202C7008F4027108031CD4
:10182A00710FF5027208031C720FF6027308031C8B
:10183A00730FF702791401300310F30CF20CF10C58
:10184A00F00CFF3E031D212C0130FD02031D2E2C3E
:10185A002F2CF62B7C08F3007B08F2007A08F100A3
:10186A007908F0000800F601F11F3C2C3D2C442CAD
:10187A00F009F109F00A0319F10AF601F60AF31F51
:10188A00472C482C512CF209F309F20A0319F30ADE
:10189A000130F4007408F606F701F80170087104C3
:1018AA000319582C592C902CF501F50A672C013094
:1018BA000310F00DF10DFF3E031D5D2C0130F40005
:1018CA007408F507F11F6A2C6B2C5C2C013003108D
:1018DA00F70DF80DFF3E031D6C2C71087302031DF2
:1018EA00782C70087202031C7B2C7C2C832C7008C9
:1018FA00F2027108031CF303F30277140130031098
:10190A00F10CF00CFF3E031D842C0130F502031D7F
:10191A008F2C902C6B2C76080319942C952C9A2CCE
:10192A00F709F809F70A0319F80A7808F10077089D
:10193A00F00008008312031348088039F900790877
:10194A00CD004808F9007907FA007A08D300C71FC2
:10195A00AF2CB02CB12C531453080319B52CB62C48
:10196A00C52C530A031DBA2CBB2CC32C0030C8004B
:10197A000030C7000030C6000030C500C717CD2CA4
:10198A000030C8000030C7000030C6000030C50073
:10199A004C088039F9007908CD064C08F900790716
:1019AA00FA007A08D200CB1FDB2CDC2CDD2C521477
:1019BA0052080319E12CE22CF12C520A031DE62CE1
:1019CA00E72CEF2C0030CC000030CB000030CA00EE
:1019DA000030C900CB17F92C0030CC000030CB0006
:1019EA000030CA000030C90052080319FD2CFE2C31
:1019FA00032D5308031D022D032D0C2D0030C800A2
:101A0A000030C7000030C6000030C500FF2F45086F
:101A1A00F9007908F0004B080A128A15C1210A1246
:101A2A008A15710883120313D9007008D800580860
:101A3A00F900FA01FB01FC017C08D1007B08D00007
:101A4A007A08CF007908CE005908F900FA01FB019B
:101A5A00FC017C08D7007B08D6007A08D5007908F3
:101A6A00D4004608F9007908F0004A080A128A15D3
:101A7A00C1210A128A15710883120313D90070084A
:101A8A00D8005808F900FA01FB01FC017908CE07D1
:101A9A007A0803110318013E0319542DCF077B0856
:101AAA0003110318013E03195B2DD0077C080311AB
:101ABA000318013E0319622DD1075908F900FA01EA
:101ACA00FB01FC017908D4077A0803110318013EC7
:101ADA000319702DD5077B0803110318013E03195A
:101AEA00772DD6077C0803110318013E03197E2DB2
:101AFA00D7074708F9007908F00049080A128A1539
:101B0A00C1210A128A15710883120313D9007008B9
:101B1A00D8005808F900FA01FB01FC017908CE0740
:101B2A007A0803110318013E03199C2DCF077B087D
:101B3A0003110318013E0319A32DD0077C080311D2
:101B4A000318013E0319AA2DD1075908F900FA0111
:101B5A00FB01FC017908D4077A0803110318013E36
:101B6A000319B82DD5077B0803110318013E031981
:101B7A00BF2DD6077C0803110318013E0319C62D91
:101B8A00D7070830F9000310CE0DCF0DD00DD10DB7
:101B9A00F90BC82D4608F9007908F00049080A121D
:101BAA008A15C1210A128A15710883120313D900F2
:101BBA007008D8005808F9005908FA00FB01FC011E
:101BCA007908CE077A0803110318013E0319EE2D8E
:101BDA00CF077B0803110318013E0319F52DD0071F
:101BEA007C0803110318013E0319FC2DD10745088F
:101BFA00F9007908F0004A080A128A15C1210A1266
:101C0A008A15710883120313D9007008D80058087E
:101C1A00F9005908FA00FB01FC017908CE077A0895
:101C2A0003110318013E03191B2ECF077B0803116A
:101C3A000318013E0319222ED0077C08031103184A
:101C4A00013E0319292ED1070830F9000310CE0DE1
:101C5A00CF0DD00DD10DF90B2B2E4508F9007908BF
:101C6A00F00049080A128A15C1210A128A15710858
:101C7A0083120313D9007008D8005808F9005908CC
:101C8A00FA00FB01FC017908CE077A080311031850
:101C9A00013E0319512ECF077B0803110318013E99
:101CAA000319582ED0077C0803110318013E0319A3
:101CBA005F2ED1074608F9007908F0004B080A128E
:101CCA008A15C1210A128A15710883120313D900D1
:101CDA007008D8005808F9005908FA00FB01FC01FD
:101CEA007908D4077A0803110318013E03197E2ED6
:101CFA00D5077B0803110318013E0319852ED60761
:101D0A007C0803110318013E03198C2ED7074708D4
:101D1A00F9007908F0004A080A128A15C1210A1244
:101D2A008A15710883120313D9007008D80058085D
:101D3A00F9005908FA00FB01FC017908D4077A086E
:101D4A0003110318013E0319AB2ED5077B080311B3
:101D5A000318013E0319B22ED6077C080311031893
:101D6A00013E0319B92ED7074708F9007908F00090
:101D7A004B080A128A15C1210A128A1571088312A0
:101D8A000313D9007008D8005808F9005908FA0056
:101D9A00FB01FC0108300310F90DFA0DFB0DFC0DD7
:101DAA00FF3E031DD02E7908D4077A0803110318C1
:101DBA00013E0319E12ED5077B0803110318013EE2
:101DCA000319E82ED6077C0803110318013E0319EC
:101DDA00EF2ED7074E08F9004F08FA005008FB000B
:101DEA005108FC0018300310FC0CFB0CFA0CF90C1F
:101DFA00FF3E031DF82E7908D4077A080311031849
:101E0A00013E0319092FD5077B0803110318013E68
:101E1A000319102FD6077C0803110318013E031972
:101E2A00172FD7070830F9000310CE0DCF0DD00DAC
:101E3A00D10DF90B192F53085207F900FA01FA0DBF
:101E4A007908823ED8007A080318013EFF3ED9007D
:101E5A004B2F0130F9000310D40DD50DD60DD70D37
:101E6A00F90B302FD11F3A2F3B2F3C2F541401303E
:101E7A00F9000310CE0DCF0DD00DD10DF90B3E2F69
:101E8A00FF30D8070318D90AFF30D907D61F4E2FBB
:101E9A004F2F2E2FD201D11F532F542F702FFF30C7
:101EAA004E05F900FF304F05FA00FF305005FB00E0
:101EBA007F305105FC007C087B047A0479040319FD
:101ECA00672F682F6B2FD201D20A702F541C6E2FE6
:101EDA006F2F702F682F52080319742F752FA62F92
:101EEA000130D407003003180130D5070030031839
:101EFA000130D607003003180130D707571C862F48
:101F0A00872FA62F5408F9005508FA005608FB0037
:101F1A005708FC000130FD007C0DFC0CFB0CFA0C90
:101F2A00F90CFD0B912F7C08D7007B08D6007A08A4
:101F3A00D5007908D4000130D8070318D90A00302F
:101F4A00D9075908803AFF0080307F02031DAF2F5E
:101F5A00FF305802031CB22FB32FBE2F7F308312DB
:101F6A000313D7008030D6000030D5000030D400EB
:101F7A00F32F831203135908803AFF0080307F023F
:101F8A00031DC92F013058020318CC2FCD2FD92F8A
:101F9A00003083120313D7000030D6000030D5007A
:101FAA000030D400CD01F32F831203135808F9002F
:101FBA007908D300FF30D405FF30D5057F30D60528
:101FCA000030D705531CEA2FEB2FEC2FD6175308F6
:101FDA00F9000310790CFA007A08D7004D08F900C5
:101FEA007908D7045708C8005608C7005508C6001C
:061FFA005408C5000800B8
:04400E00D4E0FFFFFC
:00000001FF
