:020000040000FA
:060000000A128A11EB2F29
:10000C000310720D730DF4007408FA007A08031DC6
:10001C00102811281A280030F3000030F2000030AC
:10002C00F1000030F0007F287008F4007108F50032
:10003C007208F6007308F7001F300310F70CF60C6B
:10004C00F50CF40CFF3E031D23287408F800780807
:10005C00F900F217FF30F005FF30F105FF30F20523
:10006C000030F3059630FA02FA1F3D283E28582836
:10007C007A08803A973E03184428452846281128C8
:10008C0001300310F30CF20CF10CF00CFF3E031DCD
:10009C0047280130F4007408FA07031D5628572826
:1000AC0046286F2820307A02031C5D285E286A28B7
:1000BC0011280130F4000310F00DF10DF20DF30DC9
:1000CC00F40B61280130FA027A08031D6E286F28A0
:1000DC005F2879080319732874287F28F009F1091F
:1000EC00F209F309F00A0319F10A0319F20A0319C8
:1000FC00F30A08008312031337088039B800380854
:10010C00C1003708B8003807B9003908C800B61F55
:10011C009028912892284814480803199628972863
:10012C00A728480A031D9B289C28A4280030B70048
:10013C000030B6000030B5000030B400B617B7017F
:10014C00AF280030B7000030B6000030B5000030EA
:10015C00B40033088039B8003808C1063308B80039
:10016C003807B9003908C900B21FBD28BE28BF28FE
:10017C00491449080319C328C428D428490A031D63
:10018C00C828C928D1280030B3000030B200003094
:10019C00B1000030B000B217B301DC280030B3005E
:1001AC000030B2000030B1000030B000330832042F
:1001BC0031043004031DE328E428FD280030B70087
:1001CC000030B6000030B5000030B4008030B6040A
:1001DC007F30B7044108B8003808B7043708B300BB
:1001EC003608B2003508B1003408B0005C2A480863
:1001FC00031D012902290B290030B3000030B20085
:10020C000030B1000030B0005C2A4808B800B901D9
:10021C003908BB0049083802BA00031CBB033A0872
:10022C007F3EC2003B080318013E003EC300370866
:10023C00C0003608BF003508BE003408BD000030D1
:10024C00B7000030B6000030B5000030B40000300C
:10025C00C7000030C6000030C5000030C400C90122
:10026C008129490803193B293C295C290130B80034
:10027C000310BD0DBE0DBF0DC00DB80B3E290130D6
:10028C00B8000310B40DB50DB60DB70DB80B47295A
:10029C00C71F51295229532934140130B8000310B7
:1002AC00C40DC50DC60DC70DB80B5529330840023A
:1002BC00031D6A2932083F02031D6A2931083E02D8
:1002CC00031D6A2930083D02031C6D296E297D2906
:1002DC0047173008BD023108031C310FBE0232082B
:1002EC00031C320FBF023308031C330FC002013052
:1002FC00B8003808C9071A304902031C8629872917
:10030C00372940083F043E043D0403198E298F29E8
:10031C00AE294414AE290130B8000310B40DB50D4C
:10032C00B60DB70DB80B9329C71F9D299E299F2980
:10033C0034140130B8000310C40DC50DC60DC70D23
:10034C00B80BA129FF30C2070318C30AFF30C3073B
:10035C00B61FB129B2299129C901C71FB629B729DE
:10036C00D329FF304405B800FF304505B900FF30F4
:10037C004605BA007F304705BB003B083A043904F8
:10038C0038040319CA29CB29CE29C901C90AD32992
:10039C00341CD129D229D329CB2949080319D729AF
:1003AC00D829092A0130B407003003180130B507E9
:1003BC00003003180130B607003003180130B707BE
:1003CC00371CE929EA29092A3408B8003508B9008C
:1003DC003608BA003708BB000130BC003B0DBB0C23
:1003EC00BA0CB90CB80CBC0BF4293B08B7003A0892
:1003FC00B6003908B5003808B4000130C20703183C
:10040C00C30A0030C3074308803AFF0080307F02E4
:10041C00031D122AFF304202031C152A162A242A15
:10042C00FF3083120313C2000030C3000030B7004A
:10043C000030B6000030B5000030B4008312031356
:10044C004308803AFF0080307F02031D2F2A0130C1
:10045C0042020318322A332A402A83120313C201A0
:10046C00C3010030B7000030B6000030B5000030DA
:10047C00B400C101831203134208B8003808C80045
:10048C00481C492A4A2A4C2AB617502A7F30B800F1
:10049C003808B6054808B8000310380CB9003908FC
:1004AC00B7004108B8003808B704F4280800073032
:1004BC000A168A11D7260A128A110A168A11A6243C
:1004CC000A128A110A168A11C0240A128A110030E3
:1004DC0083120313A9000030A8002530A700803038
:1004EC00A6000A168A1199270A128A11831203137D
:1004FC008501860187018801023083120313CA002B
:10050C004A08F30001300A168A119F250A128A1133
:10051C000F300A168A11DF240A128A110630831250
:10052C000313CA004A08F30001300A168A119F25EA
:10053C000A128A1113300A168A11DF240A128A1140
:10054C000A3083120313CA004A08F30001300A165A
:10055C008A119F250A128A110B300A168A11DF2480
:10056C000A128A110A168A113E240A128A11313093
:10057C00F0000030F1000A168A1150240A128A1178
:10058C000030F000F1000A168A1172250A128A1145
:10059C00700883120313CA004A08EC000A168A1169
:1005AC0047240A128A11033083120313CC0008303B
:1005BC00CB007630CA00CA0BE12ACB0BE12ACC0B5C
:1005CC00E12A00000A168A113E240A128A116130AF
:1005DC00F0000030F1000A168A1150240A128A1118
:1005EC000030F000F1000A168A1172250A128A11E5
:1005FC00700883120313CA004A08EB000A168A110A
:10060C0047240A128A11033083120313CC000830DA
:10061C00CB007630CA00CA0B112BCB0B112BCC0B99
:10062C00112B00000A168A113E240A128A119130ED
:10063C00F0000030F1000A168A1150240A128A11B7
:10064C000030F000F1000A168A1172250A128A1184
:10065C00700883120313CA004A08EA000A168A11AA
:10066C0047240A128A11033083120313CC0008307A
:10067C00CB007630CA00CA0B412BCB0B412BCC0BD9
:10068C00412B00000A168A113E240A128A11C1302D
:10069C00F0000030F1000A168A1150240A128A1157
:1006AC000030F000F1000A168A1172250A128A1124
:1006BC00700883120313CA004A08E9000A168A114B
:1006CC0047240A128A11033083120313CC0008301A
:1006DC00CB007630CA00CA0B712BCB0B712BCC0B19
:1006EC00712B00000A168A113E240A128A11F1306D
:1006FC00F0000030F1000A168A1150240A128A11F7
:10070C000030F000F1000A168A1172250A128A11C3
:10071C00700883120313CA004A08E8000A168A11EB
:10072C0047240A128A11033083120313CC000830B9
:10073C00CB007630CA00CA0BA12BCB0BA12BCC0B58
:10074C00A12B0000403083120313B300C030B20061
:10075C000030B1000030B0006908CA00CB01CC01F8
:10076C00CD014D08F3004C08F2004B08F1004A088B
:10077C00F00001300A128A154D210A128A117308F1
:10078C0083120313AB007208AA007108A900700849
:10079C00A8004430AF003130AE008030AD000030E6
:1007AC00AC000A168A11FE240A128A118312031352
:1007BC002B08B7002A08B6002908B5002808B40091
:1007CC000A128A1180200A128A1183120313330829
:1007DC00D5003208D4003108D3003008D2004230A2
:1007EC00B3004C30B2000030B1000030B0006908EA
:1007FC00CA00CB01CC01CD014D08F3004C08F2002E
:10080C004B08F1004A08F00001300A128A154D21FC
:10081C000A128A11730883120313B7007208B60008
:10082C007108B5007008B4000A128A1180200A12EF
:10083C008A11831203133308D1003208D000310817
:10084C00CF003008CE004230A300C830A2000030E8
:10085C00A1000030A0005508A7005408A6005308BA
:10086C00A5005208A4000A128A159F240A128A11A4
:10087C0083120313230883160313A7008312031395
:10088C00220883160313A600831203132108831670
:10089C000313A50083120313200883160313A4006B
:1008AC002708F3002608F2002508F1002408F000C0
:1008BC000A128A1106200A128A1171088312031374
:1008CC00DD007008DC000A30F0000030F1005D083B
:1008DC00F3005C08F2000A168A1105260A128A1126
:1008EC00700883120313CA004A08E4000A30F000AF
:1008FC000030F1005D08F3005C08F2000A128A1562
:10090C0005200A128A11710883120313DB00700888
:10091C00DA000A30F0000030F1005B08F3005A08EE
:10092C00F2000A168A1105260A128A11700883121F
:10093C000313CA004A08E5005508F3005408F200F6
:10094C005308F1005208F0000A128A1106200A120C
:10095C008A11700883120313CA004A08E700F301D6
:10096C0002300A168A119F250A128A118312031368
:10097C0067080A168A113F260A128A110A168A116A
:10098C0094240A128A11023083120313CA004A08F3
:10099C00F30002300A168A119F250A128A1183125B
:1009AC00031365080A168A113F260A128A110A16C1
:1009BC008A1194240A128A11033083120313CA0079
:1009CC004A08F30002300A168A119F250A128A116E
:1009DC008312031364080A168A113F260A128A111D
:1009EC000A168A1194240A128A110A30F000003077
:1009FC00F100831203136C08CA00CB014A08F20001
:100A0C004B08F3000A168A117E260A128A11700806
:100A1C0083120313CC004C08E1000A30F0000030C4
:100A2C00F1006C08CA00CB014A08F2004B08F30035
:100A3C000A128A1549200A128A11700883120313AC
:100A4C00CC004C08E0000730CA004A08F300023022
:100A5C000A168A119F250A128A1183120313600841
:100A6C000A168A113F260A128A110A168A11942430
:100A7C000A128A11083083120313CA004A08F300C1
:100A8C0002300A168A119F250A128A118312031347
:100A9C0061080A168A113F260A128A110A168A114F
:100AAC0094240A128A11423083120313A300C83013
:100ABC00A2000030A1000030A0005108A70050088F
:100ACC00A6004F08A5004E08A4000A128A159F2400
:100ADC000A128A1183120313230883160313A3002B
:100AEC0083120313220883160313A2008312031329
:100AFC00210883160313A100831203132008831605
:100B0C000313A0002308F3002208F2002108F100CF
:100B1C002008F0000A128A1106200A128A117108A4
:100B2C0083120313D9007008D8000A30F00000308B
:100B3C00F1005908F3005808F2000A168A1105262C
:100B4C000A128A11700883120313CA004A08E200C1
:100B5C000A30F0000030F1005908F3005808F20098
:100B6C000A128A1505200A128A11710883120313BE
:100B7C00D7007008D6000A30F0000030F10057089A
:100B8C00F3005608F2000A168A1105260A128A1179
:100B9C00700883120313CA004A08E3005108F300DB
:100BAC005008F2004F08F1004E08F0000A128A11AA
:100BBC0006200A128A11700883120313CA004A080D
:100BCC00E6000A30CA004A08F30002300A168A11FD
:100BDC009F250A128A118312031366080A168A11BA
:100BEC003F260A128A110A168A1194240A128A11B3
:100BFC000C3083120313CA004A08F30002300A16A1
:100C0C008A119F250A128A118312031363080A168C
:100C1C008A113F260A128A110A168A1194240A1282
:100C2C008A110D3083120313CA004A08F3000230F4
:100C3C000A168A119F250A128A118312031362085D
:100C4C000A168A113F260A128A110A168A1194244E
:100C5C000A128A11293083120313CC009630CB0070
:100C6C007E30CA00CA0B382ECB0B382ECC0B382E4C
:100C7C00000001300A168A1182240A128A110230ED
:100C8C0083120313CA004A08F30001300A168A11B2
:100C9C009F250A128A1106300A168A11DF240A12BD
:100CAC008A11083083120313CA004A08F30001307A
:100CBC000A168A119F250A128A1101300A168A1106
:100CCC00DF240A128A11043083120313CA004A0863
:100CDC00F30002300A168A119F250A128A11B030CD
:100CEC000A168A1194240A128A11053083120313EE
:100CFC00CA004A08F30002300A168A119F250A120C
:100D0C008A1143300A168A1194240A128A110B3064
:100D1C0083120313CA004A08F30002300A168A1120
:100D2C009F250A128A1167300A168A1194240A1216
:100D3C008A11423083120313A300C830A200003082
:100D4C00A1000030A0005508A7005408A6005308C5
:100D5C00A5005208A4000A128A159F240A128A11AF
:100D6C0083120313230883160313A70083120313A0
:100D7C00220883160313A60083120313210883167B
:100D8C000313A50083120313200883160313A40076
:100D9C002708F3002608F2002508F1002408F000CB
:100DAC000A128A1106200A128A117108831203137F
:100DBC00DD007008DC000A30F0000030F1005D0846
:100DCC00F3005C08F2000A168A1105260A128A1131
:100DDC00700883120313CA004A08E4000A30F000BA
:100DEC000030F1005D08F3005C08F2000A128A156D
:100DFC0005200A128A11710883120313DB00700894
:100E0C00DA000A30F0000030F1005B08F3005A08F9
:100E1C00F2000A168A1105260A128A11700883122A
:100E2C000313CA004A08E5005508F3005408F20001
:100E3C005308F1005208F0000A128A1106200A1217
:100E4C008A11700883120313CA004A08E700F301E1
:100E5C0002300A168A119F250A128A118312031373
:100E6C0067080A168A113F260A128A110A168A1175
:100E7C0094240A128A11023083120313CA004A08FE
:100E8C00F30002300A168A119F250A128A11831266
:100E9C00031365080A168A113F260A128A110A16CC
:100EAC008A1194240A128A11033083120313CA0084
:100EBC004A08F30002300A168A119F250A128A1179
:100ECC008312031364080A168A113F260A128A1128
:100EDC000A168A1194240A128A11293083120313D8
:100EEC00CC009630CB007E30CA00CA0B7B2FCB0BCC
:100EFC007B2FCC0B7B2F000001300A168A11822429
:100F0C000A128A11831203136C080A168A115A24C6
:100F1C000A128A111A3083120313CB00F730CA005D
:100F2C00CA0B962FCB0B962F9B2F831203136B0898
:100F3C000A168A115A240A128A111A3083120313C0
:100F4C00CB00F730CA00CA0BA92FCB0BA92FAE2FA1
:100F5C00831203136A080A168A115A240A128A1178
:100F6C001A3083120313CB00F730CA00CA0BBC2F04
:100F7C00CB0BBC2FC12F8312031369080A168A11DD
:100F8C005A240A128A111A3083120313CB00F73039
:100F9C00CA00CA0BCF2FCB0BCF2FD42F8312031326
:100FAC0068080A168A115A240A128A111A308312F6
:100FBC000313CB00F730CA00CA0BE22FCB0BE22F86
:100FCC00E72F822A0A128A11002883134E308400DC
:100FDC006D300A168A1136240A128A11A030840048
:100FEC00A8300A168A1136240A128A1183010A12B1
:040FFC008A115D2ACF
:10100A00F501F6017008710403190C280D2844280B
:10101A00F701F70A1B2801300310F00DF10DFF3E0E
:10102A00031D11280130F4007408F707F11F1E2868
:10103A001F28102801300310F50DF60DFF3E031D81
:10104A00202871087302031D2C2870087202031CE1
:10105A002F28302837287008F2027108031CF3037E
:10106A00F302751401300310F10CF00CFF3E031D5E
:10107A0038280130F702031D432844281F28760820
:10108A00F1007508F0000800F601F11F4D284E28FE
:10109A005528F009F109F00A0319F10AF601F60ACE
:1010AA00F31F582859286228F209F309F20A03198A
:1010BA00F30A0130F4007408F606F701F801700823
:1010CA007104031969286A28A128F501F50A782804
:1010DA0001300310F00DF10DFF3E031D6E280130A3
:1010EA00F4007408F507F11F7B287C286D2801306D
:1010FA000310F70DF80DFF3E031D7D2871087302DA
:10110A00031D892870087202031C8C288D289428D4
:10111A007008F2027108031CF303F302771401301A
:10112A000310F10CF00CFF3E031D95280130F50267
:10113A00031DA028A1287C2876080319A528A6281B
:10114A00AB28F709F809F70A0319F80A7808F10031
:10115A007708F000080083120313A101F31FB628D1
:10116A00B728C428F009F109F209F309F00A0319AA
:10117A00F10A0319F20A0319F30AA101A10AF71FD6
:10118A00C728C828D728F409F509F609F709F40A7F
:10119A000319F50A0319F60A0319F70A0130F800C8
:1011AA007808A1060030A5000030A4000030A30092
:1011BA000030A20073087204710470040319E6284F
:1011CA00E7283429A001A00AF7280130F800031003
:1011DA00F00DF10DF20DF30DF80BEC280130F800CB
:1011EA007808A007F31FFA28FB28EA280130F8003C
:1011FA000310A20DA30DA40DA50DF80BFD2873086D
:10120A007702031D122972087602031D122971083A
:10121A007502031D122970087402031C1529162968
:10122A0025297008F4027108031C710FF50272086F
:10123A00031C720FF6027308031C730FF7022214C1
:10124A0001300310F30CF20CF10CF00CFF3E031DFD
:10125A0026290130A002031D33293429FB2821083D
:10126A000319382939294429A209A309A409A50976
:10127A00A20A0319A30A0319A40A0319A50A25082D
:10128A00F3002408F2002308F1002208F000080005
:10129A00F80078080319522953296729F31F562998
:1012AA00572967297009FA007109FB007209FC00C5
:1012BA007309FD00FA0A0319FB0A0319FC0A031948
:1012CA00FD0A6F297308FD007208FC007108FB0013
:1012DA007008FA007308720471047004031D7629F9
:1012EA00772980290030F3000030F2000030F10045
:1012FA000030F000062A9630F4007408F9009229AA
:10130A000130F4007408F90701300310FD0CFC0CDD
:10131A00FB0CFA0CFF3E031D8A29FE307D05031DD6
:10132A00972998298529B4290130F4007408F90706
:10133A000130FA07003003180130FB0700300318A8
:10134A000130FC07003003180130FD07013003109B
:10135A00FD0CFC0CFB0CFA0CFF3E031DAC29FF3004
:10136A007D05031DB929BA299929C6290130F9022F
:10137A000130F4000310FA0DFB0DFC0DFD0DF40B0A
:10138A00BF29FC1BC929CA29D029023079020318AE
:10139A00CF29D029BB297918D329D429DC29FF30B0
:1013AA00FA05FF30FB057F30FC05FF30FD05031011
:1013BA00F90C7908F400F501F601F7011830031069
:1013CA00F40DF50DF60DF70DFF3E031DE429740823
:1013DA00FA047508FB047608FC047708FD0478080B
:1013EA000319F829F929FE29F31FFC29FD29FE29E9
:1013FA00FD177D08F3007C08F2007B08F1007A08EB
:10140A00F00008007308803983120313A000200833
:10141A00F8007308A0002007A1002108FA00F21FB3
:10142A00172A182A192A7A147A0803191D2A1E2A31
:10143A002E2A7A0A031D222A232A2B2A0030F30095
:10144A000030F2000030F1000030F000F217F30132
:10145A00362A0030F3000030F2000030F10000308C
:10146A00F00077088039A0002008F900790878068A
:10147A000319402A412A422A78177708A000200730
:10148A00A1002108F900F61F4B2A4C2A4D2A79148B
:10149A0079080319512A522A622A790A031D562AFF
:1014AA00572A5F2A0030F7000030F6000030F500B6
:1014BA000030F400F617F7016A2A0030F70000300E
:1014CA00F6000030F5000030F4007A0879020318BB
:1014DA006F2A702AB42A781F732A742A782A8030CD
:1014EA00A0002008F8067A08A0002008FB00790866
:1014FA00A0002008FA007B08A0002008F900700864
:10150A00A0002008FB007408A0002008F0007B0857
:10151A00A0002008F4007108A0002008FB0075084C
:10152A00A0002008F1007B08A0002008F50072083E
:10153A00A0002008FB007608A0002008F2007B0823
:10154A00A0002008F6007308A0002008FB00770816
:10155A00A0002008F3007B08A0002008F700FB0188
:10156A007908A000A1012108A3007A082002A2009C
:10157A00031CA3032308803AFF0080307F02031D67
:10158A00C82A1A302202031CCB2ACC2A0D2B730834
:10159A00720471047004031DD32AD52A0130D62A95
:1015AA00003083120313A0002008FB000030F30070
:1015BA000030F2000030F1000030F0007908A0009D
:1015CA002008FA00132B7B1CEB2AEC2AF72A7B084B
:1015DA0083120313A0000310200C0138A100210874
:1015EA00FB00F92A0310FB0C701CFC2AFD2AFE2AB8
:1015FA00FB17013083120313A000730DF30CF20CD6
:10160A00F10CF00CA00B022B0130A0002008FA0705
:10161A0079087A02031C122B132BE82A781B162B43
:10162A00172B662B7A08031D1B2B1C2B252B00302E
:10163A00F3000030F2000030F1000030F0009E2C80
:10164A007408F007750803110318013E03192E2BBD
:10165A00F107760803110318013E0319352BF20727
:10166A00770803110318013E03193C2BF307731C77
:10167A003F2B402B1E2C7B1C432B442B4F2B7B08D0
:10168A0083120313A0000310200C0138A1002108C3
:10169A00FB00512B0310FB0C701C542B552B562BA3
:1016AA00FB17013083120313A000730DF30CF20C25
:1016BA00F10CF00CA00B5A2B0130A0002008FA07FD
:1016CA001E2C7308803AFF007708803A7F02031DB8
:1016DA00782B76087202031D782B75087102031D98
:1016EA00782B7408700203187B2B7C2BD62BFF30C7
:1016FA0083120313A000FF30A100FF30A200FF30C5
:10170A00A3007408A4007508A5007608A600770847
:10171A00A7007008A4027108031C710F952B962B61
:10172A00A5027208031C720F9B2B9C2BA60273083E
:10173A00031C730FA12BA22BA7022408A0072508BC
:10174A000318250FA92BAA2BA10726080318260F71
:10175A00AF2BB02BA20727080318270AA3072308D1
:10176A00F3002208F2002108F1002008F00080307E
:10177A00A0002008F806FB09FB0A7B08031DC62BFC
:10178A00C72BE42B0130F007003003180130F107B2
:10179A00003003180130F207003003180130F30754
:1017AA00E42B7408F0027508031C750FF102760821
:1017BA00031C760FF2027708031C770FF3027308F3
:1017CA00720471047004031DEB2BEC2B1A2C7B089A
:1017DA00031DF02BF12B1A2C0030F3000030F2001D
:1017EA000030F1000030F0009E2C01308312031308
:1017FA00A0000310F00DF10DF20DF30DA00BFE2B5E
:10180A00FB1F082C092C0A2C70147B1C0D2C0E2C87
:10181A00112C0314FB0D132C0310FB0D7A0803196A
:10182A00172C182C1A2C0130FA02F21F1D2C1E2C10
:10183A00FA2BF901FB1F222C232C312C7B087F3930
:10184A000319282C292C2C2CF901F90A312C701C8B
:10185A002F2C302C312C292C79080319352C362CB5
:10186A006C2C0130F007003003180130F10700300A
:10187A0003180130F207003003180130F307731C14
:10188A00472C482C6C2C700883120313A000710893
:10189A00A1007208A2007308A3000130A400230D5E
:1018AA00A30CA20CA10CA00CA40B542C2308F3002B
:1018BA002208F2002108F1002008F0007A0A031930
:1018CA00672C682C6C2C0130A0002008FA077A0AD1
:1018DA000319702C712C762C7A08031D752C762C22
:1018EA00842C0030F3000030F2000030F1000030A8
:1018FA00F0007A08031D822C832C842CF8017A1CB0
:10190A00872C882C8A2CF217902C7F308312031391
:10191A00A0002008F2057A0883120313A00003101E
:10192A00200CA1002108F300F81F9C2C9D2C9E2C52
:10193A00F31708008312031323088039F900790882
:10194A00A8002308F9007907FA007A08AE00A21F56
:10195A00AF2CB02CB12C2E142E080319B52CB62C92
:10196A00C52C2E0A031DBA2CBB2CC32C0030A30095
:10197A000030A2000030A1000030A000A217CD2C38
:10198A000030A3000030A2000030A1000030A00007
:10199A0027088039F9007908A8062708F900790785
:1019AA00FA007A08AD00A61FDB2CDC2CDD2C2D14E6
:1019BA002D080319E12CE22CF12C2D0A031DE62C2B
:1019CA00E72CEF2C0030A7000030A6000030A5005D
:1019DA000030A400A617F92C0030A7000030A6009A
:1019EA000030A5000030A4002D080319FD2CFE2CA0
:1019FA00032D2E08031D022D032D0C2D0030A300EC
:101A0A000030A2000030A1000030A000FF2F200803
:101A1A00F9007908F00026080A168A1122250A1206
:101A2A008A15710883120313B4007008B3003308CF
:101A3A00F900FA01FB01FC017C08AC007B08AB0051
:101A4A007A08AA007908A9003408F900FA01FB010A
:101A5A00FC017C08B2007B08B1007A08B000790862
:101A6A00AF002108F9007908F00025080A168A1142
:101A7A0022250A128A15710883120313B40070080A
:101A8A00B3003308F900FA01FB01FC017908A90740
:101A9A007A0803110318013E0319542DAA077B087B
:101AAA0003110318013E03195B2DAB077C080311D0
:101ABA000318013E0319622DAC073408F900FA0134
:101ACA00FB01FC017908AF077A0803110318013EEC
:101ADA000319702DB0077B0803110318013E03197F
:101AEA00772DB1077C0803110318013E03197E2DD7
:101AFA00B2072208F9007908F00024080A168A11A8
:101B0A0022250A128A15710883120313B400700879
:101B1A00B3003308F900FA01FB01FC017908A907AF
:101B2A007A0803110318013E03199C2DAA077B08A2
:101B3A0003110318013E0319A32DAB077C080311F7
:101B4A000318013E0319AA2DAC073408F900FA015B
:101B5A00FB01FC017908AF077A0803110318013E5B
:101B6A000319B82DB0077B0803110318013E0319A6
:101B7A00BF2DB1077C0803110318013E0319C62DB6
:101B8A00B2070830F9000310A90DAA0DAB0DAC0D70
:101B9A00F90BC82D2108F9007908F00024080A1663
:101BAA008A1122250A128A15710883120313B400B6
:101BBA007008B3003308F9003408FA00FB01FC018D
:101BCA007908A9077A0803110318013E0319EE2DB3
:101BDA00AA077B0803110318013E0319F52DAB0769
:101BEA007C0803110318013E0319FC2DAC072008D9
:101BFA00F9007908F00025080A168A1122250A1226
:101C0A008A15710883120313B4007008B3003308ED
:101C1A00F9003408FA00FB01FC017908A9077A08DF
:101C2A0003110318013E03191B2EAA077B0803118F
:101C3A000318013E0319222EAB077C08031103186F
:101C4A00013E0319292EAC070830F9000310A90D2B
:101C5A00AA0DAB0DAC0DF90B2B2E2008F900790853
:101C6A00F00024080A168A1122250A128A15710818
:101C7A0083120313B4007008B3003308F900340860
:101C8A00FA00FB01FC017908A9077A080311031875
:101C9A00013E0319512EAA077B0803110318013EBE
:101CAA000319582EAB077C0803110318013E0319C8
:101CBA005F2EAC072108F9007908F00026080A16F9
:101CCA008A1122250A128A15710883120313B40095
:101CDA007008B3003308F9003408FA00FB01FC016C
:101CEA007908AF077A0803110318013E03197E2EFB
:101CFA00B0077B0803110318013E0319852EB107AB
:101D0A007C0803110318013E03198C2EB20722081E
:101D1A00F9007908F00025080A168A1122250A1204
:101D2A008A15710883120313B4007008B3003308CC
:101D3A00F9003408FA00FB01FC017908AF077A08B8
:101D4A0003110318013E0319AB2EB0077B080311D8
:101D5A000318013E0319B22EB1077C0803110318B8
:101D6A00013E0319B92EB2072208F9007908F000DA
:101D7A0026080A168A1122250A128A157108831260
:101D8A000313B4007008B3003308F9003408FA00EA
:101D9A00FB01FC0108300310F90DFA0DFB0DFC0DD7
:101DAA00FF3E031DD02E7908AF077A0803110318E6
:101DBA00013E0319E12EB0077B0803110318013E07
:101DCA000319E82EB1077C0803110318013E031911
:101DDA00EF2EB2072908F9002A08FA002B08FB009F
:101DEA002C08FC0018300310FC0CFB0CFA0CF90C44
:101DFA00FF3E031DF82E7908AF077A08031103186E
:101E0A00013E0319092FB0077B0803110318013E8D
:101E1A000319102FB1077C0803110318013E031997
:101E2A00172FB2070830F9000310A90DAA0DAB0D40
:101E3A00AC0DF90B192F2E082D07F900FA01FA0D2E
:101E4A007908823EB3007A080318013EFF3EB400C7
:101E5A004B2F0130F9000310AF0DB00DB10DB20DCB
:101E6A00F90B302FAC1F3A2F3B2F3C2F2F14013088
:101E7A00F9000310A90DAA0DAB0DAC0DF90B3E2FFD
:101E8A00FF30B3070318B40AFF30B407B11F4E2F4F
:101E9A004F2F2E2FAD01AC1F532F542F702FFF3011
:101EAA002905F900FF302A05FA00FF302B05FB004F
:101EBA007F302C05FC007C087B047A047904031922
:101ECA00672F682F6B2FAD01AD0A702F2F1C6E2F55
:101EDA006F2F702F682F2D080319742F752FA62FB7
:101EEA000130AF07003003180130B0070030031883
:101EFA000130B107003003180130B207321C862FB7
:101F0A00872FA62F2F08F9003008FA003108FB00A6
:101F1A003208FC000130FD007C0DFC0CFB0CFA0CB5
:101F2A00F90CFD0B912F7C08B2007B08B1007A08EE
:101F3A00B0007908AF000130B3070318B40A0030C3
:101F4A00B4073408803AFF0080307F02031DAF2FA8
:101F5A00FF303302031CB22FB32FBE2F7F30831200
:101F6A000313B2008030B1000030B0000030AF007F
:101F7A00F32F831203133408803AFF0080307F0264
:101F8A00031DC92F013033020318CC2FCD2FD92FAF
:101F9A00003083120313B2000030B1000030B000E9
:101FAA000030AF00A801F32F831203133308F9009E
:101FBA007908AE00FF30AF05FF30B0057F30B105BC
:101FCA000030B2052E1CEA2FEB2FEC2FB1172E088A
:101FDA00F9000310790CFA007A08B2002808F9000F
:101FEA007908B2043208A3003108A2003008A1001F
:101FFA002F08A000080010308A000408840A82070B
:10200A0000345034453453344F3400345434453456
:10201A004D3450340034563449344234003449344F
:0E202A004E34543400344D344F3456340034A8
:10286C0064008001840A0406031900340406372C22
:10287C000A168A1166240A168A1183160313111478
:10288C0008000A168A1166240A168A118316031385
:10289C00111508000A168A1166240A168A11700886
:1028AC008312031393000800F00083160313981C83
:1028BC00602C612C5B2C70088312031399000800A8
:1028CC008316031314196B2C6C2C662C11081F39EE
:1028DC00031D712C722C662C0800831203138815AF
:1028EC004E30F100EB30F000F00B7A2CF10B7A2C1F
:1028FC008312031388110800F2000A168A11492565
:10290C000A168A11720883120313860088130811A1
:10291C000A168A1173240A168A110800F2000A1684
:10292C008A1149250A168A1172088312031386002C
:10293C00881708110A168A1173240A168A110800BE
:10294C0083160313850186018701880183160317FB
:10295C0088018901003083120313A3000130A20007
:10296C008630A100A030A0000A168A11CD250A16C7
:10297C008A11080038300A168A1182240A168A1124
:10298C000C300A168A1182240A168A1101300A1692
:10299C008A1182240A168A1106300A168A11822498
:1029AC000A168A1180300A168A1182240A168A1194
:1029BC000800F400F12C740884000A168A11002017
:1029CC000A168A110A168A1194240A168A110130E1
:1029DC00F3007308F407740884000A168A110020A7
:1029EC000A168A11003A031DFC2CFD2CE12C080060
:1029FC00803083120313AB062F08F3002E08F2006D
:102A0C002D08F1002C08F0002B08F7002A08F6001E
:102A1C002908F5002808F4000A128A1507220A165C
:102A2C008A11730883120313AB007208AA00710891
:102A3C00A9007008A8000800F800F401F50170085E
:102A4C00F200F3017208F6007308F700781C2F2DC2
:102A5C00302D362D7608F4070318F50A7708F5079C
:102A6C0001300310F60DF70DFF3E031D372D03103B
:102A7C00F80C7808031D432D442D2C2D7508F100FE
:102A8C007408F0000800FF308312031386008030B6
:102A9C00F000700886058813081588114E30F10077
:102AAC00EB30F000F00B582DF10B582D8312031363
:102ABC00881580300606031D642D652D712D881137
:102ACC004E30F100EB30F000F00B6A2DF10B6A2D5B
:102ADC0083120313881508000A168A1166240A1635
:102AEC008A118316031391150A168A1166240A1685
:102AFC008A11831203131308F200F3017208F40015
:102B0C007308F5000A168A1166240A168A117008D1
:102B1C0071040319922D962D831603139116992D7A
:102B2C0083160313911211167508F1007408F00046
:102B3C000800F800033078020318A52DA62DCC2D23
:102B4C0010307302031CAB2DAC2DAD2DCC2D7803A6
:102B5C000319B12DB22DB82DC0307304F60000301E
:102B6C00F700BD2D80307304F6000030F7007608B6
:102B7C000A168A1182240A168A110D30F500FB30D0
:102B8C00F400F40BC72DF50BC72DCC2D0800283005
:102B9C0083120313940083160313910183120313FE
:102BAC002008A4002108A5002208A6002308A700DD
:102BBC0002300310A40DA50DA60DA70DFF3E031D9D
:102BCC00DF2D2708F3002608F2002508F100240861
:102BDC00F0000030F7007A30F6001230F5000030CB
:102BEC00F4000A168A1133270A168A117008FF3E60
:102BFC0083160313930094018715071608007008B9
:102C0C00710403190A2E0B2E3A2EF501F50A192E12
:102C1C0001300310F00DF10DFF3E031D0F2E01309E
:102C2C00F4007408F507F11F1C2E1D2E0E2E7108D2
:102C3C007302031D232E70087202031C262E272EEE
:102C4C002D2E7008F2027108031CF303F3020130FD
:102C5C000310F10CF00CFF3E031D2E2E0130F5027B
:102C6C00031D392E3A2E1D2E7308F1007208F00048
:102C7C000800F200552E30307D2E31307D2E323052
:102C8C007D2E33307D2E34307D2E35307D2E3630FA
:102C9C007D2E37307D2E38307D2E39307D2E7208CA
:102CAC00F000F1017108003A03195D2E7D2E7008B9
:102CBC00003A0319412E013A0319432E033A031922
:102CCC00452E013A0319472E073A0319492E013AAA
:102CDC0003194B2E033A03194D2E013A03194F2EAB
:102CEC000F3A0319512E013A0319532E7D2E080069
:102CFC00F601F31F822E832E8A2EF209F309F20AB3
:102D0C000319F30AF601F60AF11F8D2E8E2E932E5F
:102D1C00F009F109F00A0319F10A7008710403199A
:102D2C00982E992EC82EF501F50AA72E0130031006
:102D3C00F00DF10DFF3E031D9D2E0130F4007408C3
:102D4C00F507F11FAA2EAB2E9C2E71087302031DE2
:102D5C00B12E70087202031CB42EB52EBB2E700857
:102D6C00F2027108031CF303F30201300310F10C9F
:102D7C00F00CFF3E031DBC2E0130F502031DC72EC7
:102D8C00C82EAB2E76080319CC2ECD2ED22EF209DE
:102D9C00F309F20A0319F30A7308F1007208F00040
:102DAC000800F2000F2F831603130F128F120F134C
:102DBC00312F831603130F168F120F13312F831617
:102DCC0003130F128F160F13312F831603130F16C5
:102DDC008F160F13312F831603130F128F120F1729
:102DEC00312F831603130F168F120F17312F8316E3
:102DFC0003130F128F160F17312F831603130F1691
:102E0C008F160F17312F831603130F128F160F17F0
:102E1C00312F7208F000F1017108003A0319172FD5
:102E2C00092F7008003A0319D92E013A0319DF2E25
:102E3C00033A0319E52E013A0319EB2E073A03194D
:102E4C00F12E013A0319F72E033A0319FD2E013A1C
:102E5C000319032F092F0F1408000030FC00003059
:102E6C00FB000030FA000030F900730872047104A2
:102E7C0070040319422F432F902FFD01FD0A532F8D
:102E8C000130F8000310F00DF10DF20DF30DF80BFD
:102E9C00482F0130F8007808FD07F31F562F572FE5
:102EAC00462F0130F8000310F90DFA0DFB0DFC0D47
:102EBC00F80B592F73087702031D6E2F72087602D8
:102ECC00031D6E2F71087502031D6E2F700874029E
:102EDC00031C712F722F812F7008F4027108031CD0
:102EEC00710FF5027208031C720FF6027308031CB3
:102EFC00730FF702791401300310F30CF20CF10C80
:102F0C00F00CFF3E031D822F0130FD02031D8F2F9D
:102F1C00902F572F7C08F3007B08F2007A08F10001
:102F2C007908F0000800831203132608AA0027086A
:102F3C00AB002808AC002908AD0004300310AA0D22
:102F4C00AB0DAC0DAD0DFF3E031DA42F2D08F300F2
:102F5C002C08F2002B08F1002A08F0002608AE001D
:102F6C002708AF002808B0002908B100043003106E
:102F7C00AE0DAF0DB00DB10DFF3E031DBD2F0030DA
:102F8C00B2001230B3007A30B4000030B5002E0815
:102F9C00B2022F08031C2F0FD42FD52FB3023008E9
:102FAC00031C300FDA2FDB2FB4023108031C310F56
:102FBC00E02FE12FB5023508F7003408F60033088E
:102FCC00F5003208F4000A128A15B0200A168A118C
:102FDC007008831603139900181518128312031323
:102FEC0098171816831603139816181383120313C5
:042FFC00181308009E
:04400E00D4E0FFFFFC
:00000001FF
