:020000040000FA
:060000000A128A11DF2F35
:100010000134831203132608AA002708AB0028081E
:10002000AC002908AD0004300310AA0DAB0DAC0DD7
:10003000AD0DFF3E031D14282D08F3002C08F2001F
:100040002B08F1002A08F0002608AE002708AF00B0
:100050002808B0002908B10004300310AE0DAF0D20
:10006000B00DB10DFF3E031D2D280030B20012303F
:10007000B3007A30B4000030B5002E08B2022F0869
:10008000031C2F0F44284528B3023008031C300FEF
:100090004A284B28B4023108031C310F502851283C
:1000A000B5023508F7003408F6003308F5003208C9
:1000B000F4000A168A112D250A128A117008831677
:1000C00003139900181518128312031398171816A2
:1000D00083160313981618138312031318130800BA
:1000E000831603135F08F3005E08F2005D08F10059
:1000F0005C08F0000030F7000030F6000030F5003A
:100100000030F4000A168A11CA250A128A1103184F
:100110008A288B289A28213083160313B0000030D8
:10012000B1000030DF000030DE000030DD000030C4
:10013000DC00BB29831603135F08F3005E08F2009E
:100140005D08F1005C08F0000030F7000030F600B8
:100150000030F5000030F4000A168A11EE220A126F
:100160008A11031CB428B528C4282230831603132F
:10017000B0000030B1000030DF000030DE000030A1
:10018000DD000030DC00BB29BF3083120313C20046
:100190008030C1000030C0000030BF004030D600C9
:1001A0000030D5000030D4000030D300E030ED0046
:1001B0006D08A400831603135F0883120313A300C2
:1001C000831603135E0883120313A200831603131E
:1001D0005D0883120313A100831603135C088312C6
:1001E0000313A0000A168A11F1230A128A1183123E
:1001F00003132308DA002208D9002108D8002008B8
:10020000D7000A128A159F240A128A118312031337
:100210005608C6005508C5005408C4005308C3005A
:100220000A128A1517220A128A118312031342082E
:1002300083160313DF00831203134108831603138D
:10024000DE0083120313400883160313DD008312BC
:1002500003133F0883160313DC00FF30E007031885
:10026000E10AFF30E1075F08CF005E08CE005D08BD
:10027000CD005C08CC00053083120313ED006D083F
:1002800083160313D0000830D1000030D2000A16C4
:100290008A1126270A128A11831603134F08DF00DA
:1002A0004E08DE004D08DD004C08DC005F088312BC
:1002B0000313C200831603135E0883120313C100E5
:1002C000831603135D0883120313C0008316031300
:1002D0005C0883120313BF003F30D6003130D500D5
:1002E0007230D4001830D300831603136008F00076
:1002F0006108F1000030F11BFF30F200F300013023
:100300000A168A116C260A128A11730883120313C3
:10031000DA007208D9007108D8007008D7000A12F4
:100320008A159F240A128A11831203135608C600E5
:100330005508C5005408C4005308C3000A128A15A2
:1003400017220A128A118312031342088316031319
:10035000DF0083120313410883160313DE008312A8
:100360000313400883160313DD00831203133F08B1
:1003700083160313DC00080007300A168A11952340
:100380000A128A110A168A112E210A128A110A16D5
:100390008A114A210A128A11003083120313A9001C
:1003A0000030A8002530A7008030A6000A128A116C
:1003B00009200A128A11831203138501860187011D
:1003C00088018901023083160313E2006208F300FA
:1003D00001300A168A1105220A128A1143300A16C0
:1003E0008A1169210A128A11063083160313E2006A
:1003F0006208F30001300A168A1105220A128A11D6
:1004000047300A168A1169210A128A110A308316A6
:100410000313E2006208F30001300A168A11052274
:100420000A128A113B300A168A1169210A128A11AE
:100430000A168A11C6200A128A113130F0000030E3
:10044000F1000A168A11D8200A128A110030F00031
:10045000F1000A168A11D8210A128A11700883162F
:100460000313E2006208CA000A168A11CF200A129A
:100470008A11033083160313E4000830E30076305A
:10048000E200E20B412AE30B412AE40B412A00007F
:100490000A168A11C6200A128A116130F000003053
:1004A000F1000A168A11D8200A128A110030F000D1
:1004B000F1000A168A11D8210A128A1170088316CF
:1004C0000313E2006208C9000A168A11CF200A123B
:1004D0008A11033083160313E4000830E3007630FA
:1004E000E200E20B712AE30B712AE40B712A00008F
:1004F0000A168A11C6200A128A119130F0000030C3
:10050000F1000A168A11D8200A128A110030F00070
:10051000F1000A168A11D8210A128A11700883166E
:100520000313E2006208C8000A168A11CF200A12DB
:100530008A11033083160313E4000830E300763099
:10054000E200E20BA12AE30BA12AE40BA12A00009E
:100550000A168A11C6200A128A11C130F000003032
:10056000F1000A168A11D8200A128A110030F00010
:10057000F1000A168A11D8210A128A11700883160E
:100580000313E2006208CB000A168A11CF200A1278
:100590008A11033083160313E4000830E300763039
:1005A000E200E20BD12AE30BD12AE40BD12A0000AE
:1005B0000A168A11C6200A128A11E130F0000030B2
:1005C000F1000A168A11D8200A128A110030F000B0
:1005D000F1000A168A11D8210A128A1170088316AE
:1005E0000313E2006208C7000A168A11CF200A121C
:1005F0008A11033083160313E4000830E3007630D9
:10060000E200E20B012BE30B012BE40B012B0000BA
:10061000831603134803031D0E2B0F2B112BEE0122
:10062000132BEE01EE0A0A168A11C6200A128A114D
:100630008030F0000030F1000A168A11D8200A122A
:100640008A11831603136E08E200E3016208F000CA
:100650006308F1000A168A11D8200A128A110A16B4
:100660008A11CF200A128A11033083160313E40083
:100670000830E3007630E200E20B3C2BE30B3C2B2E
:10068000E40B3C2B0000831603134A080A168A1158
:10069000E2200A128A11023083160313E4000430A8
:1006A000E300B930E200E20B532BE30B532BE40BD6
:1006B000532B5A2B8316031349080A168A11E2207A
:1006C0000A128A11023083160313E4000430E30097
:1006D000B930E200E20B6A2BE30B6A2BE40B6A2BC6
:1006E000712B8316031348080A168A11E2200A1296
:1006F0008A11023083160313E4000430E300B9309A
:10070000E200E20B812BE30B812BE40B812B882B86
:10071000831603134B080A168A11E2200A128A1163
:10072000023083160313E4000430E300B930E20022
:10073000E20B982BE30B982BE40B982B9F2B831643
:10074000031347080A168A11E2200A128A1102309E
:1007500083160313E4000430E300B930E200E20B37
:10076000AF2BE30BAF2BE40BAF2BB62B831603138E
:100770004A03031DBC2BBD2BCE2B0230E2006208C6
:10078000F30002300A168A1105220A128A113F303C
:100790000A168A1169210A128A11DE2B0230E20040
:1007A0006208F30002300A168A1105220A128A1121
:1007B0004B300A168A1169210A128A118316031313
:1007C0004908031DE42BE52BF62B0630E2006208F6
:1007D000F30002300A168A1105220A128A113F30EC
:1007E0000A168A1169210A128A11062C0630E200C3
:1007F0006208F30002300A168A1105220A128A11D1
:100800004B300A168A1169210A128A1183160313C2
:100810004803031D0C2C0D2C1E2C0A30E20062082C
:10082000F30002300A168A1105220A128A114B308F
:100830000A168A1169210A128A112E2C0A30E20046
:100840006208F30002300A168A1105220A128A1180
:100850003F300A168A1169210A128A11153083164F
:100860000313E4004B30E300BD30E200E20B362C12
:10087000E30B362CE40B362C3D2C01300A168A1182
:100880000A210A128A11023083160313E200620859
:10089000F30001300A168A1105220A128A11363035
:1008A0000A168A1169210A128A1108308316031365
:1008B000E2006208F30001300A168A1105220A12CA
:1008C0008A1131300A168A1169210A128A110230FE
:1008D00083160313E2006208F30002300A168A113D
:1008E00005220A128A112E300A168A111C210A12B8
:1008F0008A11043083160313E2006208F300023009
:100900000A168A1105220A128A11DF300A168A1184
:100910001C210A128A11053083160313E2006208B3
:10092000F30002300A168A1105220A128A11433096
:100930000A168A111C210A128A110B30831603131E
:10094000E2006208F30002300A168A1105220A1238
:100950008A1167300A168A111C210A128A11BF30C7
:1009600083120313C2008030C1000030C000003089
:10097000BF00831603134B08E200E301E401E50125
:100980006508F3006408F2006308F1006208F000F3
:1009900000300A168A116C260A128A117308831213
:1009A0000313A8007208A7007108A6007008A5002C
:1009B0004430AC007F30AB00C030AA000030A9004A
:1009C0000A128A153A200A128A1183120313280880
:1009D000C6002708C5002608C4002508C3000A125F
:1009E0008A1517220A128A118312031342088316EA
:1009F0000313E90083120313410883160313E8006D
:100A000083120313400883160313E70083120313B2
:100A10003F0883160313E6006908DF006808DE005C
:100A20006708DD006608DC000A128A1170200A12CD
:100A30008A11831603135F08ED005E08EC005D0861
:100A4000EB005C08EA003B3083120313C2005B300A
:100A5000C100CF30C0000F30BF003930D6009B300E
:100A6000D5001D30D4006330D300831603136D0806
:100A700083120313DA00831603136C088312031323
:100A8000D900831603136B0883120313D80083164F
:100A900003136A0883120313D7000A128A159F24CE
:100AA0000A128A11831203135608C6005508C5009E
:100AB0005408C4005308C3000A128A1517220A12E8
:100AC0008A11831203134208A8004108A7004008B6
:100AD000A6003F08A5003F30AC008030AB000030DE
:100AE000AA000030A9000A128A153A200A128A11B7
:100AF00083120313280883160313A300831203131E
:100B0000270883160313A2008312031326088316F3
:100B10000313A10083120313250883160313A000F7
:100B2000C33083120313C2008830C1009330C00069
:100B30003330BF0083160313230883120313C60048
:100B400083160313220883120313C50083160313AD
:100B5000210883120313C400831603132008831291
:100B60000313C3000A128A1517220A128A1183126C
:100B700003134208831603179300831203134108DB
:100B8000831603179200831203134008831603177A
:100B90009100831203133F0883160317900043301C
:100BA00083120313A8009630A7000030A60000307F
:100BB000A500831603134708E200E301E401E50101
:100BC0006508F3006408F2006308F1006208F000B1
:100BD00001300A168A116C260A128A1173088312D0
:100BE0000313AC007208AB007108AA007008A900DA
:100BF0000A128A153A200A128A118312031328084E
:100C000083160313AF0083120313270883160313FD
:100C1000AE0083120313260883160313AD0083125C
:100C20000313250883160313AC004130831203130A
:100C3000D6002030D5000030D4000030D300831619
:100C40000317130883120313DA008316031712081D
:100C500083120313D9008316031711088312031399
:100C6000D80083160317100883120313D7000A1243
:100C70008A159F240A128A118312031356088316B9
:100C80000313AB0083120313550883160313AA0042
:100C900083120313540883160313A900831203134A
:100CA000530883160313A8002B08F3002A08F20048
:100CB0002908F1002808F0000A168A11B3240A1244
:100CC0008A11710883160313B9007008B8000A303E
:100CD000F0000030F1003908F3003808F2000A1281
:100CE0008A1500200A128A11700883160313E20085
:100CF0006208C0000A30F0000030F1003908F3004B
:100D00003808F2000A168A11AA220A128A117108FA
:100D100083160313B7007008B6000A30F0000030E5
:100D2000F1003708F3003608F2000A128A15002095
:100D30000A128A11700883160313E2006208C100C8
:100D40000A30F0000030F1003708F3003608F200F6
:100D50000A168A11AA220A128A117008831603132E
:100D6000E2006208C5000A30F0000030F1004508DA
:100D7000E200E3016208F2006308F3000A168A1138
:100D80003C230A128A11700883160313E4006408D6
:100D9000C600F30102300A168A1105220A128A11CE
:100DA0008316031346080A168A116B220A128A1147
:100DB0000A168A111C210A128A11F301F30A023061
:100DC0000A168A1105220A128A1183160313410892
:100DD0000A168A116B220A128A110A168A111C211C
:100DE0000A128A11033083160313E2006208F3002B
:100DF00002300A168A1105220A128A118316031379
:100E000040080A168A116B220A128A110A168A11E0
:100E10001C210A128A11423083120313D600C830F3
:100E2000D5000030D4000030D300831603132F0800
:100E300083120313DA00831603132E08831203139D
:100E4000D900831603132D0883120313D8008316C9
:100E500003132C0883120313D7000A128A159F2448
:100E60000A128A1183120313560883160313A7006C
:100E700083120313550883160313A600831203136A
:100E8000540883160313A500831203135308831613
:100E90000313A4002708F3002608F2002508F10038
:100EA0002408F0000A168A11B3240A128A11710864
:100EB00083160313B5007008B4000A30F000003048
:100EC000F1003508F3003408F2000A128A150020F8
:100ED0000A128A11700883160313E2006208BE002A
:100EE0000A30F0000030F1003508F3003408F20059
:100EF0000A168A11AA220A128A117108831603138C
:100F0000B3007008B2000A30F0000030F10033087E
:100F1000F3003208F2000A128A1500200A128A1120
:100F2000700883160313E2006208BF000930E20074
:100F30006208F30002300A168A1105220A128A1189
:100F4000831603133F080A168A116B220A128A11AC
:100F50000A168A111C210A128A110A3083160313F9
:100F6000E2006208F30002300A168A1105220A1212
:100F70008A11831603133E080A168A116B220A127D
:100F80008A110A168A111C210A128A111530831639
:100F90000313E4004B30E300BD30E200E20BCE2F40
:100FA000E30BCE2FE40BCE2FD52F01300A168A117A
:100FB0000A210A128A11E2290A128A1100288316CC
:100FC00003130A128A1108200A128A11EE008317ED
:100FD0009030840098300A168A11BE200A128A11B5
:100FE0008313A0308400CC300A168A11BE200A1266
:100FF0008A1183120313EE0183010A128A11BC299C
:10100000700871040319052806283528F501F50A2A
:10101000142801300310F00DF10DFF3E031D0A28C6
:101020000130F4007408F507F11F17281828092863
:1010300071087302031D1E2870087202031C212808
:10104000222828287008F2027108031CF303F30217
:1010500001300310F10CF00CFF3E031D2928013074
:10106000F502031D3428352818287308F10072088A
:10107000F0000800831203132C088039AD002D08FE
:10108000B6002C08AD002D07AE002E08BD00AB1F2A
:101090004A284B284C283D143D0803195028512854
:1010A00061283D0A031D552856285E280030AC00F3
:1010B0000030AB000030AA000030A900AB17AC0133
:1010C00069280030AC000030AB000030AA000030CE
:1010D000A90028088039AD002D08B6062808AD0003
:1010E0002D07AE002E08BE00A71F77287828792884
:1010F0003E143E0803197D287E288E283E0A031DD3
:10110000822883288B280030A8000030A7000030F8
:10111000A6000030A500A717A80196280030A80057
:101120000030A7000030A6000030A50028082704E2
:1011300026042504031D9D289E28B7280030AC00F6
:101140000030AB000030AA000030A9008030AB04B2
:101150007F30AC043608AD002D08AC042C08A80084
:101160002B08A7002A08A6002908A500162A3D0872
:10117000031DBB28BC28C5280030A8000030A700EC
:101180000030A6000030A500162A3D08AD00AE01D3
:101190002E08B0003E082D02AF00031CB0032F083C
:1011A0007F3EB70030080318013E003EB8002C080F
:1011B000B5002B08B4002A08B3002908B20000309B
:1011C000AC000030AB000030AA000030A9000030B5
:1011D000BC000030BB000030BA000030B900BE01D6
:1011E0003B293E080319F528F62816290130AD00E1
:1011F0000310B20DB30DB40DB50DAD0BF8280130D1
:10120000AD000310A90DAA0DAB0DAC0DAD0B01295E
:10121000BC1F0B290C290D2929140130AD00031026
:10122000B90DBA0DBB0DBC0DAD0B0F292808350249
:10123000031D242927083402031D2429260833020C
:10124000031D242925083202031C272928293729B0
:101250003C172508B2022608031C260FB3022708F4
:10126000031C270FB4022808031C280FB502013005
:10127000AD002D08BE071A303E02031C402941294B
:10128000F128350834043304320403194829492964
:101290006829391468290130AD000310A90DAA0D81
:1012A000AB0DAC0DAD0B4D29BC1F57295829592941
:1012B00029140130AD000310B90DBA0DBB0DBC0DE2
:1012C000AD0B5B29FF30B7070318B80AFF30B8072A
:1012D000AB1F6B296C294B29BE01BC1F70297129DA
:1012E0008D29FF303905AD00FF303A05AE00FF30E3
:1012F0003B05AF007F303C05B00030082F042E04C2
:101300002D040319842985298829BE01BE0A8D2947
:10131000291C8B298C298D2985293E08031991299F
:101320009229C3290130A907003003180130AA0708
:10133000003003180130AB07003003180130AC0750
:101340002C1CA329A429C3292908AD002A08AE0012
:101350002B08AF002C08B0000130B100300DB00CEC
:10136000AF0CAE0CAD0CB10BAE293008AC002F08A1
:10137000AB002E08AA002D08A9000130B7070318FA
:10138000B80A0030B8073808803AFF0080307F0282
:10139000031DCC29FF303702031CCF29D029DE29B9
:1013A000FF3083120313B7000030B8000030AC00E8
:1013B0000030AB000030AA000030A90083120313F4
:1013C0003808803AFF0080307F02031DE929013090
:1013D00037020318EC29ED29FA2983120313B70108
:1013E000B8010030AC000030AB000030AA00003083
:1013F000A900B601831203133708AD002D08BD0004
:101400003D1C032A042A062AAB170A2A7F30AD00A6
:101410002D08AB053D08AD0003102D0CAE002E08C5
:10142000AC003608AD002D08AC04AE2808008312CD
:10143000031342088039C7004708CF004208C7009D
:101440004707C8004808D100C11F272A282A292A8F
:101450005114510803192D2A2E2A3E2A510A031D20
:10146000322A332A3B2A0030C2000030C10000304B
:10147000C0000030BF00C117C201462A0030C200C0
:101480000030C1000030C0000030BF004608803985
:10149000C7004708D00050084F060319502A512AA8
:1014A000522A4F174608C7004707C8004808D0000F
:1014B000C51F5B2A5C2A5D2A501450080319612A53
:1014C000622A722A500A031D662A672A6F2A003090
:1014D000C6000030C5000030C4000030C300C5178E
:1014E000C6017A2A0030C6000030C5000030C400B2
:1014F0000030C3005108500203187F2A802AC42AF2
:101500004F1F832A842A882A8030C7004708CF06C5
:101510005108C7004708D2005008C7004708D1004B
:101520005208C7004708D0003F08C7004708D2004C
:101530004308C7004708BF005208C7004708C30058
:101540004008C7004708D2004408C7004708C00049
:101550005208C7004708C4004108C7004708D20026
:101560004508C7004708C1005208C7004708C50022
:101570004208C7004708D2004608C7004708C20013
:101580005208C7004708C600D2015008C700C8016A
:101590004808CA0051084702C900031CCA034A0888
:1015A000803AFF0080307F02031DD82A1A3049029A
:1015B000031CDB2ADC2A192B831203134208410483
:1015C00040043F04031DE52AE72A0130E82A0030E1
:1015D000C7004708D2000030C2000030C100003010
:1015E000C0000030BF005008C7004708D100212BC1
:1015F000521CFB2AFC2A052B5208C7000310470C7B
:101600000138C8004808D200072B0310D20C3F1C39
:101610000A2B0B2B0C2BD2170130C700420DC20C2A
:10162000C10CC00CBF0CC70B0E2B0130C700470804
:10163000D1078312031350085102031C202B212BC6
:10164000F82A4F1B242B252B702B5108031D292B07
:101650002A2B332B0030C2000030C1000030C00004
:101660000030BF009E2C4308BF0744080311031835
:10167000013E03193C2BC007450803110318013E26
:101680000319432BC107460803110318013E031930
:101690004A2BC207421C4D2B4E2B242C521C512B83
:1016A000522B5B2B5208C7000310470C0138C800AF
:1016B0004808D2005D2B0310D20C3F1C602B612B1D
:1016C000622BD2170130C700420DC20CC10CC00CF6
:1016D000BF0CC70B642B0130C7004708D107242C6F
:1016E0004208803AFF004608803A7F02031D822BA1
:1016F00045084102031D822B44084002031D822B32
:1017000043083F020318852B862BDE2BFF30C700D2
:10171000FF30C800FF30C900FF30CA004308CB00CB
:101720004408CC004508CD004608CE003F08CB0257
:101730004008031C400F9D2B9E2BCC024108031C2C
:10174000410FA32BA42BCD024208031C420FA92B4F
:10175000AA2BCE024B08C7074C0803184C0FB12B1D
:10176000B22BC8074D0803184D0FB72BB82BC9076C
:101770004E0803184E0ACA074A08C2004908C100A9
:101780004808C0004708BF008030C7004708CF06A0
:10179000D209D20A5208031DCE2BCF2BEC2B0130DD
:1017A000BF07003003180130C007003003180130B4
:1017B000C107003003180130C207EC2B4308BF02F9
:1017C0004408031C440FC0024508031C450FC10216
:1017D0004608031C460FC2024208410440043F046D
:1017E000031DF32BF42B202C5208031DF82BF92B8F
:1017F000202C0030C2000030C1000030C00000309A
:10180000BF009E2C0130C7000310BF0DC00DC10DDD
:10181000C20DC70B042CD21F0E2C0F2C102C3F1402
:10182000521C132C142C172C0314D20D192C03103A
:10183000D20D510803191D2C1E2C202C0130D10271
:10184000C11F232C242C022CD001D21F282C292C80
:10185000372C52087F3903192E2C2F2C322CD00113
:10186000D00A372C3F1C352C362C372C2F2C500807
:1018700003193B2C3C2C702C0130BF07003003189F
:101880000130C007003003180130C10700300318D1
:101890000130C207421C4D2C4E2C702C3F08C70053
:1018A0004008C8004108C9004208CA000130CB0006
:1018B0004A0DCA0CC90CC80CC70CCB0B582C4A08D3
:1018C000C2004908C1004808C0004708BF00510ACB
:1018D00003196B2C6C2C702C0130C7004708D10702
:1018E000510A0319742C752C7A2C5108031D792C7C
:1018F0007A2C882C0030C2000030C1000030C000BB
:101900000030BF005108031D862C872C882CCF0186
:10191000511C8B2C8C2C8E2CC117922C7F30C70025
:101920004708C1055108C7000310470CC800480804
:10193000C200CF1F9C2C9D2C9E2CC2170800831226
:10194000031356088039DB005B08E0005608DB0013
:101950005B07DC005C08E600D51FAF2CB02CB12C77
:10196000661466080319B52CB62CC52C660A031D2F
:10197000BA2CBB2CC32C0030D6000030D500003070
:10198000D4000030D300D517CD2C0030D600003065
:10199000D5000030D4000030D3005A088039DB0075
:1019A0005B08E0065A08DB005B07DC005C08E5002A
:1019B000D91FDB2CDC2CDD2C651465080319E12C08
:1019C000E22CF12C650A031DE62CE72CEF2C0030ED
:1019D000DA000030D9000030D8000030D700D91725
:1019E000F92C0030DA000030D9000030D800003087
:1019F000D70065080319FD2CFE2C032D6608031D76
:101A0000022D032D0C2D0030D6000030D500003003
:101A1000D4000030D300FF2F5308DB005B08F00038
:101A200059080A168A1188210A128A157108831228
:101A30000313EC007008EB006B08DB00DC01DD0138
:101A4000DE015E08E4005D08E3005C08E2005B087C
:101A5000E1006C08DB00DC01DD01DE015E08EA006C
:101A60005D08E9005C08E8005B08E7005408DB005B
:101A70005B08F00058080A168A1188210A128A1594
:101A8000710883120313EC007008EB006B08DB0095
:101A9000DC01DD01DE015B08E1075C0803110318CE
:101AA000013E0319542DE2075D0803110318013E9E
:101AB00003195B2DE3075E0803110318013E0319A8
:101AC000622DE4076C08DB00DC01DD01DE015B0850
:101AD000E7075C0803110318013E0319702DE8079E
:101AE0005D0803110318013E0319772DE9075E080D
:101AF00003110318013E03197E2DEA075508DB0088
:101B00005B08F00057080A168A1188210A128A1504
:101B1000710883120313EC007008EB006B08DB0004
:101B2000DC01DD01DE015B08E1075C08031103183D
:101B3000013E03199C2DE2075D0803110318013EC5
:101B40000319A32DE3075E0803110318013E0319CF
:101B5000AA2DE4076C08DB00DC01DD01DE015B0877
:101B6000E7075C0803110318013E0319B82DE807C5
:101B70005D0803110318013E0319BF2DE9075E0834
:101B800003110318013E0319C62DEA070830DB00D4
:101B90000310E10DE20DE30DE40DDB0BC82D54083D
:101BA000DB005B08F00057080A168A1188210A1228
:101BB0008A15710883120313EC007008EB006B08A0
:101BC000DB006C08DC00DD01DE015B08E1075C087E
:101BD00003110318013E0319EE2DE2075D080311FE
:101BE0000318013E0319F52DE3075E0803110318DE
:101BF000013E0319FC2DE4075308DB005B08F000ED
:101C000058080A168A1188210A128A157108831247
:101C10000313EC007008EB006B08DB006C08DC00C1
:101C2000DD01DE015B08E1075C0803110318013EDA
:101C300003191B2EE2075D0803110318013E031967
:101C4000222EE3075E0803110318013E0319292E13
:101C5000E4070830DB000310E10DE20DE30DE40DB5
:101C6000DB0B2B2E5308DB005B08F00057080A162D
:101C70008A1188210A128A15710883120313EC0055
:101C80007008EB006B08DB006C08DC00DD01DE0196
:101C90005B08E1075C0803110318013E0319512E8C
:101CA000E2075D0803110318013E0319582EE307EC
:101CB0005E0803110318013E03195F2EE407540860
:101CC000DB005B08F00059080A168A1188210A1205
:101CD0008A15710883120313EC007008EB006B087F
:101CE000DB006C08DC00DD01DE015B08E7075C0857
:101CF00003110318013E03197E2EE8075D08031146
:101D00000318013E0319852EE9075E080311031825
:101D1000013E03198C2EEA075508DB005B08F00032
:101D200058080A168A1188210A128A157108831226
:101D30000313EC007008EB006B08DB006C08DC00A0
:101D4000DD01DE015B08E7075C0803110318013EB3
:101D50000319AB2EE8075D0803110318013E0319B0
:101D6000B22EE9075E0803110318013E0319B92ECC
:101D7000EA075508DB005B08F00059080A168A11CB
:101D800088210A128A15710883120313EC00700867
:101D9000EB006B08DB006C08DC00DD01DE010830C5
:101DA0000310DB0DDC0DDD0DDE0DFF3E031DD02E1F
:101DB0005B08E7075C0803110318013E0319E12ED5
:101DC000E8075D0803110318013E0319E82EE9072F
:101DD0005E0803110318013E0319EF2EEA0761089C
:101DE000DB006208DC006308DD006408DE001830F8
:101DF0000310DE0CDD0CDC0CDB0CFF3E031DF82EAB
:101E00005B08E7075C0803110318013E0319092F5B
:101E1000E8075D0803110318013E0319102FE907B5
:101E20005E0803110318013E0319172FEA07083053
:101E3000DB000310E10DE20DE30DE40DDB0B192FC8
:101E400066086507DB00DC01DC0D5B08823EEB0009
:101E50005C080318013EFF3EEC004B2F0130DB0015
:101E60000310E70DE80DE90DEA0DDB0B302FE41F41
:101E70003A2F3B2F3C2F67140130DB000310E10D9C
:101E8000E20DE30DE40DDB0B3E2FFF30EB070318F3
:101E9000EC0AFF30EC07E91F4E2F4F2F2E2FE501E4
:101EA000E41F532F542F702FFF306105DB00FF30EC
:101EB0006205DC00FF306305DD007F306405DE0075
:101EC0005E085D045C045B040319672F682F6B2FA9
:101ED000E501E50A702F671C6E2F6F2F702F682F9A
:101EE00065080319742F752FA62F0130E7070030FE
:101EF00003180130E807003003180130E90700300B
:101F000003180130EA076A1C862F872FA62F67085F
:101F1000DB006808DC006908DD006A08DE000130CB
:101F2000DF005E0DDE0CDD0CDC0CDB0CDF0B912F1B
:101F30005E08EA005D08E9005C08E8005B08E7006D
:101F40000130EB070318EC0A0030EC076C08803A0C
:101F5000FF0080307F02031DAF2FFF306B02031C98
:101F6000B22FB32FBE2F7F3083120313EA008030CD
:101F7000E9000030E8000030E700F32F831203137C
:101F80006C08803AFF0080307F02031DC92F0130AA
:101F90006B020318CC2FCD2FD92F003083120313DF
:101FA000EA000030E9000030E8000030E700E0011E
:101FB000F32F831203136B08DB005B08E600FF308E
:101FC000E705FF30E8057F30E9050030EA05661CCB
:101FD000EA2FEB2FEC2FE9176608DB0003105B0CF0
:101FE000DC005C08EA006008DB005B08EA046A08C1
:101FF000D6006908D5006808D4006708D300080037
:1020000010308A000408840A820700340034C03487
:102010007F3444340034003400340034C434FF349A
:102020007F343F348034EF34FF34BE349034E134B5
:10203000A9343E34EC3482347634BE348234AD3448
:102040002B343E340E343C34C334BD348734D13465
:1020500013343D3441347834D334BB340F34CF346B
:102060005B343B3463341D349B3439345034453451
:1020700053344F340034543445344D3450340034E8
:1020800056344934423400344F34463446340034F4
:1020900049344E34543400344D344F3456340034C3
:0620A0004F344E34003401
:10217C0064008001840A0406031900340406BF2895
:10218C000A168A11EE200A168A11831603131114EB
:10219C0008000A168A11EE200A168A1183160313F8
:1021AC00111508000A168A11EE200A168A117008F9
:1021BC008312031393000800F00083160313981C7A
:1021CC00E828E928E3287008831203139900080013
:1021DC00831603131419F328F428EE2811081F3959
:1021EC00031DF928FA28EE2808008312031388151A
:1021FC004E30F100EB30F000F00B0229F10B02290C
:10220C008312031388110800F2000A168A11AF21F9
:10221C000A168A1172088312031386008813081198
:10222C000A168A11FB200A168A110800F2000A16F7
:10223C008A11AF210A168A117208831203138600C1
:10224C00881708110A168A11FB200A168A11080031
:10225C0083160313850186018701880106308900E6
:10226C008316031788018901003083120313A3001E
:10227C000130A2008630A100A030A0000A168A11FD
:10228C0033220A168A11080038300A168A110A21DC
:10229C000A168A110C300A168A110A210A168A119A
:1022AC0001300A168A110A210A168A1106300A16FA
:1022BC008A110A210A168A1180300A168A110A21FB
:1022CC000A168A110800F4007B29740884000A1687
:1022DC008A1100200A168A110A168A111C210A1664
:1022EC008A110130F3007308F407740884000A168D
:1022FC008A1100200A168A11003A031D86298729A3
:10230C006B290800F800F401F5017008F200F301E4
:10231C007208F6007308F700781C952996299C29F9
:10232C007608F4070318F50A7708F507013003104F
:10233C00F60DF70DFF3E031D9D290310F80C7808D0
:10234C00031DA929AA2992297508F1007408F00027
:10235C000800FF308312031386008030F0007008F1
:10236C0086058813081588114E30F100EB30F0000B
:10237C00F00BBE29F10BBE29831203138815803094
:10238C000606031DCA29CB29D72988114E30F10026
:10239C00EB30F000F00BD029F10BD0298312031392
:1023AC00881508000A168A11EE200A168A1183165F
:1023BC00031391150A168A11EE200A168A1183123C
:1023CC0003131308F200F3017208F4007308F5000C
:1023DC000A168A11EE200A168A1170087104031964
:1023EC00F829FC29831603139116FF29831603136E
:1023FC00911211167508F1007408F0000800F8002D
:10240C000330780203180B2A0C2A322A103073027C
:10241C00031C112A122A132A322A78030319172AA9
:10242C00182A1E2AC0307304F6000030F700232A45
:10243C0080307304F6000030F70076080A168A1113
:10244C000A210A168A110D30F500FB30F400F40B4A
:10245C002D2AF50B2D2A322A08002830831203135B
:10246C009400831603139101831203132008A40014
:10247C002108A5002208A6002308A700023003109B
:10248C00A40DA50DA60DA70DFF3E031D452A27087B
:10249C00F3002608F2002508F1002408F0000030B3
:1024AC00F7007A30F6001230F5000030F4000A160E
:1024BC008A114D240A168A117008FF3E83160313E5
:1024CC0093009401871507160800F200812A30301A
:1024DC00A92A3130A92A3230A92A3330A92A34301A
:1024EC00A92A3530A92A3630A92A3730A92A3830FA
:1024FC00A92A3930A92A7208F000F1017108003AB2
:10250C000319892AA92A7008003A03196D2A013A7D
:10251C0003196F2A033A0319712A013A0319732A12
:10252C00073A0319752A013A0319772A033A031952
:10253C00792A013A03197B2A0F3A03197D2A013AA9
:10254C0003197F2AA92A0800F501F6017008710405
:10255C000319B12AB22AE92AF701F70AC02A013075
:10256C000310F00DF10DFF3E031DB62A0130F400EF
:10257C007408F707F11FC32AC42AB52A01300310C7
:10258C00F50DF60DFF3E031DC52A71087302031DE0
:10259C00D12A70087202031CD42AD52ADC2A7008AE
:1025AC00F2027108031CF303F302751401300310DB
:1025BC00F10CF00CFF3E031DDD2A0130F702031D68
:1025CC00E82AE92AC42A7608F1007508F000080008
:1025DC0000307005F80000307105F900803072058C
:1025EC00FA007F307305FB007B087A0479047804C9
:1025FC00031D012B022B0A2B0030F3000030F200DC
:10260C000030F1000030F00000307405F8000030AC
:10261C007505F90080307605FA007F307705FB00F0
:10262C007B087A0479047804031D1D2B1E2B262BA2
:10263C000030F7000030F6000030F5000030F400F8
:10264C0077087306031D342B76087206031D342B92
:10265C0075087106031D342B740870060319372B8B
:10266C00382B3A2B03103B2B03140800F601F31FF5
:10267C00402B412B482BF209F309F20A0319F30AF8
:10268C00F601F60AF11F4B2B4C2B512BF009F109DB
:10269C00F00A0319F10A700871040319562B572B11
:1026AC00862BF501F50A652B01300310F00DF10DA9
:1026BC00FF3E031D5B2B0130F4007408F507F11F7E
:1026CC00682B692B5A2B71087302031D6F2B700832
:1026DC007202031C722B732B792B7008F202710897
:1026EC00031CF303F30201300310F10CF00CFF3E5A
:1026FC00031D7A2B0130F502031D852B862B692BCC
:10270C00760803198A2B8B2B902BF209F309F20A0A
:10271C000319F30A7308F1007208F0000800F200C4
:10272C00CD2B831603130F128F120F13EF2B83165F
:10273C0003130F168F120F13EF2B831603130F12A5
:10274C008F160F13EF2B831603130F168F160F1301
:10275C00EF2B831603130F128F120F17EF2B831609
:10276C0003130F168F120F17EF2B831603130F1271
:10277C008F160F17EF2B831603130F168F160F17C9
:10278C00EF2B831603130F128F160F17EF2B7208F4
:10279C00F000F1017108003A0319D52BC72B700812
:1027AC00003A0319972B013A03199D2B033A03198D
:1027BC00A32B013A0319A92B073A0319AF2B013AA2
:1027CC000319B52B033A0319BB2B013A0319C12B7F
:1027DC00C72B0F140800831203132308F3002208DD
:1027EC00F2002108F1002008F0000030F700003062
:1027FC00F6000030F5000030F4000A168A11EE22C3
:10280C000A168A11031C0B2C0C2C1D2C831203137F
:10281C002408840083138001840A80010030A30003
:10282C000030A2000030A1000030A0004C2C83121C
:10283C00031323087F39FC00FD010310FC0DFD0D73
:10284C00240884007C0883138000840A7D0880009F
:10285C00220D220D0139FC00FD01240884007C08A6
:10286C008004840A7D088004240884008230800758
:10287C00840F00080318000AFF00FF307F07800058
:10288C008403230880393F38A300A21308000030CA
:10289C00FC000030FB000030FA000030F900730837
:1028AC0072047104700403195C2C5D2CAA2CFD01BC
:1028BC00FD0A6D2C0130F8000310F00DF10DF20D36
:1028CC00F30DF80B622C0130F8007808FD07F31FAC
:1028DC00702C712C602C0130F8000310F90DFA0DDE
:1028EC00FB0DFC0DF80B732C73087702031D882C61
:1028FC0072087602031D882C71087502031D882C42
:10290C0070087402031C8B2C8C2C9B2C7008F4020A
:10291C007108031C710FF5027208031C720FF6028A
:10292C007308031C730FF702791401300310F30CB6
:10293C00F20CF10CF00CFF3E031D9C2C0130FD023F
:10294C00031DA92CAA2C712C7C08F3007B08F20027
:10295C007A08F1007908F00008000310720D730D6D
:10296C00F4007408FA007A08031DBD2CBE2CC72C89
:10297C000030F3000030F2000030F1000030F000C5
:10298C002C2D7008F4007108F5007208F60073081D
:10299C00F7001F300310F70CF60CF50CF40CFF3E8F
:1029AC00031DD02C7408F8007808F900F217FF30DA
:1029BC00F005FF30F105FF30F2050030F3059630DD
:1029CC00FA02FA1FEA2CEB2C052D7A08803A973E76
:1029DC000318F12CF22CF32CBE2C01300310F30C49
:1029EC00F20CF10CF00CFF3E031DF42C0130F40042
:1029FC007408FA07031D032D042DF32C1C2D203015
:102A0C007A02031C0A2D0B2D172DBE2C0130F4005D
:102A1C000310F00DF10DF20DF30DF40B0E2D013032
:102A2C00FA027A08031D1B2D1C2D0C2D7908031995
:102A3C00202D212D2C2DF009F109F209F309F00AB2
:102A4C000319F10A0319F20A0319F30A0800831295
:102A5C000313A101F31F332D342D412DF009F1097E
:102A6C00F209F309F00A0319F10A0319F20A03191E
:102A7C00F30AA101A10AF71F442D452D542DF40989
:102A8C00F509F609F709F40A0319F50A0319F60A08
:102A9C000319F70A0130F8007808A1060030A500E8
:102AAC000030A4000030A3000030A20073087204B0
:102ABC00710470040319632D642DB12DA001A00ABB
:102ACC00742D0130F8000310F00DF10DF20DF30D23
:102ADC00F80B692D0130F8007808A007F31F772D4B
:102AEC00782D672D0130F8000310A20DA30DA40D55
:102AFC00A50DF80B7A2D73087702031D8F2D720824
:102B0C007602031D8F2D71087502031D8F2D700821
:102B1C007402031C922D932DA22D7008F4027108DF
:102B2C00031C710FF5027208031C720FF602730876
:102B3C00031C730FF702221401300310F30CF20C78
:102B4C00F10CF00CFF3E031DA32D0130A002031D60
:102B5C00B02DB12D782D21080319B52DB62DC12D11
:102B6C00A209A309A409A509A20A0319A30A031916
:102B7C00A40A0319A50A2508F3002408F200230867
:102B8C00F1002208F000080000307005F800003059
:102B9C007105F90080307205FA007F307305FB0077
:102BAC007B087A0479047804031DDD2DDE2DE62DD7
:102BBC000030F3000030F2000030F1000030F00083
:102BCC0000307405F80000307505F900803076058A
:102BDC00FA007F307705FB007B087A0479047804CF
:102BEC00031DF92DFA2D022E0030F7000030F600EF
:102BFC000030F5000030F400F31F052E062E2A2EAF
:102C0C000030F8000030F9000030FA008030FB0092
:102C1C007008F8027108031C710F152E162EF9029C
:102C2C007208031C720F1B2E1C2EFA027308031C55
:102C3C00730F212E222EFB027B08F3007A08F20080
:102C4C007908F1007808F000F71F2D2E2E2E522E49
:102C5C000030F8000030F9000030FA008030FB0042
:102C6C007408F8027508031C750F3D2E3E2EF902F0
:102C7C007608031C760F432E442EFA027708031CA9
:102C8C00770F492E4A2EFB027B08F7007A08F600D4
:102C9C007908F5007808F4008030F3068030F706E8
:102CAC0077087302031D642E76087202031D642ECE
:102CBC0075087102031D642E740870020318672EC8
:102CCC00682E6A2E03106B2E03140800F800780887
:102CDC000319712E722E862EF31F752E762E862ECC
:102CEC007009FA007109FB007209FC007309FD0000
:102CFC00FA0A0319FB0A0319FC0A0319FD0A8E2EA2
:102D0C007308FD007208FC007108FB007008FA00E3
:102D1C007308720471047004031D952E962E9F2E59
:102D2C000030F3000030F2000030F1000030F00011
:102D3C00252F9630F4007408F900B12E0130F40000
:102D4C007408F90701300310FD0CFC0CFB0CFA0C99
:102D5C00FF3E031DA92EFE307D05031DB62EB72E9A
:102D6C00A42ED32E0130F4007408F9070130FA07B1
:102D7C00003003180130FB07003003180130FC074A
:102D8C00003003180130FD0701300310FD0CFC0C62
:102D9C00FB0CFA0CFF3E031DCB2EFF307D05031DF3
:102DAC00D82ED92EB82EE52E0130F9020130F400C0
:102DBC000310FA0DFB0DFC0DFD0DF40BDE2EFC1BB0
:102DCC00E82EE92EEF2E023079020318EE2EEF2EAC
:102DDC00DA2E7918F22EF32EFB2EFF30FA05FF3087
:102DEC00FB057F30FC05FF30FD050310F90C79085D
:102DFC00F400F501F601F70118300310F40DF50D90
:102E0C00F60DF70DFF3E031D032F7408FA04750829
:102E1C00FB047608FC047708FD0478080319172FC7
:102E2C00182F1D2FF31F1B2F1C2F1D2FFD177D0877
:102E3C00F3007C08F2007B08F1007A08F00008002F
:102E4C00831603135108D30001300310D30DFF3E3A
:102E5C00031D2B2F0310530D500784000A168A11E3
:102E6C0000200A168A11D4000A168A1100200A16AC
:102E7C008A11D5000A168A1100200A168A11D6006A
:102E8C000A168A1100200A168A11D7005708DB008F
:102E9C005608DA005508D9005408D800F12FFF3035
:102EAC00D1070318D20AFF30D2075108D3000130E2
:102EBC000310D30DFF3E031D5E2F0310530D50075F
:102ECC0084000A168A1100200A168A11D4000A16E8
:102EDC008A1100200A168A11D5000A168A110020C0
:102EEC000A168A11D6000A168A1100200A168A11AF
:102EFC00D700570883120313C20083160313560816
:102F0C0083120313C1008316031355088312031392
:102F1C00C00083160313540883120313BF008316D7
:102F2C0003135B0883120313D600831603135A088A
:102F3C0083120313D500831603135908831203134A
:102F4C00D40083160313580883120313D30083167B
:102F5C0003134F0883120313DA00831603134E086E
:102F6C0083120313D900831603134D088312031322
:102F7C00D800831603134C0883120313D7000A12CC
:102F8C008A159F240A168A11831203135608C60049
:102F9C005508C5005408C4005308C3000A128A150A
:102FAC0017220A168A11831203134208831603137D
:102FBC00DB0083120313410883160313DA00831218
:102FCC000313400883160313D900831203133F081D
:102FDC0083160313D80051085204031DF62FF72F44
:102FEC00552F5B08CF005A08CE005908CD00580861
:042FFC00CC000800FD
:04400E00D4E0FFFFFC
:00000001FF
