:020000040000FA
:060000000A128A11E72F2D
:10001200F8000330780203180F2810283628103011
:100022007302031C1528162817283628780303198B
:100032001B281C282228C0307304F6000030F70069
:10004200272880307304F6000030F70076080A167D
:100052008A1153210A128A110D30F500FB30F40087
:10006200F40B3128F50B31283628080083120313CC
:100072002C088039AD002D08B6002C08AD002D07E4
:10008200AE002E08BD00AB1F4728482849283D1462
:100092003D0803194D284E285E283D0A031D5228AB
:1000A20053285B280030AC000030AB000030AA00BF
:1000B2000030A900AB17AC0166280030AC0000305C
:1000C200AB000030AA000030A90028088039AD003A
:1000D2002D08B6062808AD002D07AE002E08BE007A
:1000E200A71F7428752876283E143E0803197A281B
:1000F2007B288B283E0A031D7F2880288828003011
:10010200A8000030A7000030A6000030A500A71705
:10011200A80193280030A8000030A7000030A600F4
:100122000030A5002808270426042504031D9A2868
:100132009B28B4280030AC000030AB000030AA008D
:100142000030A9008030AB047F30AC043608AD002B
:100152002D08AC042C08A8002B08A7002A08A6002A
:100162002908A500132A3D08031DB828B928C2286A
:100172000030A8000030A7000030A6000030A50023
:10018200132A3D08AD00AE012E08B0003E082D0234
:10019200AF00031CB0032F087F3EB70030080318DE
:1001A200013E003EB8002C08B5002B08B4002A0816
:1001B200B3002908B2000030AC000030AB000030C0
:1001C200AA000030A9000030BC000030BB000030A3
:1001D200BA000030B900BE0138293E080319F228DE
:1001E200F32813290130AD000310B20DB30DB40D85
:1001F200B50DAD0BF5280130AD000310A90DAA0D08
:10020200AB0DAC0DAD0BFE28BC1F082909290A292C
:1002120029140130AD000310B90DBA0DBB0DBC0D90
:10022200AD0B0C2928083502031D212927083402A9
:10023200031D212926083302031D21292508320224
:10024200031C2429252934293C172508B202260833
:10025200031C260FB3022708031C270FB402280829
:10026200031C280FB5020130AD002D08BE071A305D
:100272003E02031C3D293E29EE283508340433048E
:1002820032040319452946296529391465290130A3
:10029200AD000310A90DAA0DAB0DAC0DAD0B4A2993
:1002A200BC1F54295529562929140130AD000310C9
:1002B200B90DBA0DBB0DBC0DAD0B5829FF30B707F8
:1002C2000318B80AFF30B807AB1F68296929482903
:1002D200BE01BC1F6D296E298A29FF303905AD0088
:1002E200FF303A05AE00FF303B05AF007F303C05E2
:1002F200B00030082F042E042D040319812982290D
:100302008529BE01BE0A8A29291C882989298A29A8
:1003120082293E0803198E298F29C0290130A90795
:10032200003003180130AA07003003180130AB0770
:10033200003003180130AC072C1CA029A129C029C8
:100342002908AD002A08AE002B08AF002C08B00027
:100352000130B100300DB00CAF0CAE0CAD0CB10BD6
:10036200AB293008AC002F08AB002E08AA002D08DC
:10037200A9000130B7070318B80A0030B8073808D7
:10038200803AFF0080307F02031DC929FF30370207
:10039200031CCC29CD29DB29FF3083120313B700BC
:1003A2000030B8000030AC000030AB000030AA00D2
:1003B2000030A900831203133808803AFF0080300E
:1003C2007F02031DE629013037020318E929EA29D1
:1003D200F72983120313B701B8010030AC000030D3
:1003E200AB000030AA000030A900B601831203134B
:1003F2003708AD002D08BD003D1C002A012A032A42
:10040200AB17072A7F30AD002D08AB053D08AD00C4
:1004120003102D0CAE002E08AC003608AD002D08DE
:10042200AC04AB28080007300A168A11E8230A1226
:100432008A110A168A1177210A128A110A168A115A
:1004420091210A128A11003083120313A90000308D
:10045200A8002530A7008030A6000A168A110625BA
:100462000A128A118312031385018601870188010A
:10047200023083160313E2006208F30001300A120D
:100482008A1109200A128A1143300A168A11B021F0
:100492000A128A11063083160313E2006208F3007F
:1004A20001300A128A1109200A128A1147300A16EB
:1004B2008A11B0210A128A110A3083160313E2004C
:1004C2006208F30001300A128A1109200A128A1105
:1004D2003B300A168A11B0210A128A110A168A11B1
:1004E2001E210A128A113130F0000030F1000A1682
:1004F2008A1130210A128A110030F000F1000A1626
:100502008A111F220A128A11700883160313E2004D
:100512006208CA000A168A1127210A128A110330B8
:1005220083160313E4000830E3007630E200E20BA6
:10053200982AE30B982AE40B982A00000A168A11DB
:100542001E210A128A116130F0000030F1000A16F1
:100552008A1130210A128A110030F000F1000A16C5
:100562008A111F220A128A11700883160313E200ED
:100572006208C9000A168A1127210A128A11033059
:1005820083160313E4000830E3007630E200E20B46
:10059200C82AE30BC82AE40BC82A00000A168A11EB
:1005A2001E210A128A119130F0000030F1000A1661
:1005B2008A1130210A128A110030F000F1000A1665
:1005C2008A111F220A128A11700883160313E2008D
:1005D2006208C8000A168A1127210A128A110330FA
:1005E20083160313E4000830E3007630E200E20BE6
:1005F200F82AE30BF82AE40BF82A00000A168A11FB
:100602001E210A128A11C130F0000030F1000A16D0
:100612008A1130210A128A110030F000F1000A1604
:100622008A111F220A128A11700883160313E2002C
:100632006208CB000A168A1127210A128A11033096
:1006420083160313E4000830E3007630E200E20B85
:10065200282BE30B282BE40B282B00000A168A1107
:100662001E210A128A11E130F0000030F1000A1650
:100672008A1130210A128A110030F000F1000A16A4
:100682008A111F220A128A11700883160313E200CC
:100692006208C7000A168A1127210A128A1103303A
:1006A20083160313E4000830E3007630E200E20B25
:1006B200582BE30B582BE40B582B00008316031323
:1006C2004A03031D652B662B772B0230E20062087A
:1006D200F30002300A128A1109200A128A113F30ED
:1006E2000A168A11B0210A128A11872B0230E200FF
:1006F2006208F30002300A128A1109200A128A11D2
:100702004B300A168A11B0210A128A11831603137A
:100712004908031D8D2B8E2B9F2B0630E2006208A9
:10072200F30002300A128A1109200A128A113F309C
:100732000A168A11B0210A128A11AF2B0630E20082
:100742006208F30002300A128A1109200A128A1181
:100752004B300A168A11B0210A128A11831603132A
:100762004803031DB52BB62BC72B0A30E2006208E3
:10077200F30002300A128A1109200A128A114B3040
:100782000A168A11B0210A128A11D72B0A30E20006
:100792006208F30002300A128A1109200A128A1131
:1007A2003F300A168A11B0210A128A1115308316B7
:1007B2000313E4004B30E300BD30E200E20BDF2B19
:1007C200E30BDF2BE40BDF2BE62B01300A168A1139
:1007D20053210A128A11023083160313E2006208BF
:1007E200F30001300A128A1109200A128A113630E6
:1007F2000A168A11B0210A128A11083083160313CD
:10080200E2006208F30001300A128A1109200A127A
:100812008A1131300A168A11B0210A128A11023065
:1008220083160313E2006208F30002300A128A11EF
:1008320009200A128A112E300A168A1165210A121B
:100842008A11043083160313E2006208F3000230B7
:100852000A128A1109200A128A11DF300A168A1135
:1008620065210A128A11053083160313E200620819
:10087200F30002300A128A1109200A128A11433047
:100882000A168A1165210A128A110B308316031384
:10089200E2006208F30002300A128A1109200A12E9
:1008A2008A1167300A168A1165210A128A11BF302D
:1008B20083120313C2008030C1000030C000003038
:1008C200BF00831603134B08E200E301E401E501D4
:1008D2006508F3006408F2006308F1006208F000A2
:1008E20000300A128A1511200A128A117308831223
:1008F2000313A8007208A7007108A6007008A500DB
:100902004430AC007F30AB00C030AA000030A900F8
:100912000A128A1137200A128A1183120313280835
:10092200C6002708C5002608C4002508C3000A120D
:100932008A1517220A128A11831203134208831698
:100942000313E90083120313410883160313E8001B
:1009520083120313400883160313E7008312031361
:100962003F0883160313E6006908DF006808DE000B
:100972006708DD006608DC000A128A15CB200A121D
:100982008A11831603135F08ED005E08EC005D0810
:10099200EB005C08EA003B3083120313C2005B30B9
:1009A200C100CF30C0000F30BF003930D6009B30BD
:1009B200D5001D30D4006330D300831603136D08B5
:1009C20083120313DA00831603136C0883120313D2
:1009D200D900831603136B0883120313D8008316FE
:1009E20003136A0883120313D7000A128A159F247D
:1009F2000A128A11831203135608C6005508C5004D
:100A02005408C4005308C3000A128A1517220A1296
:100A12008A11831203134208A8004108A700400864
:100A2200A6003F08A5003F30AC008030AB0000308C
:100A3200AA000030A9000A128A1137200A128A116C
:100A420083120313280883160313A30083120313CC
:100A5200270883160313A2008312031326088316A2
:100A62000313A10083120313250883160313A000A6
:100A7200C33083120313C2008830C1009330C00018
:100A82003330BF0083160313230883120313C600F7
:100A920083160313220883120313C500831603135C
:100AA200210883120313C400831603132008831240
:100AB2000313C3000A128A1517220A128A1183121B
:100AC200031342088316031793008312031341088A
:100AD2008316031792008312031340088316031729
:100AE2009100831203133F088316031790004330CB
:100AF20083120313A8009630A7000030A60000302E
:100B0200A500831603134708E200E301E401E501AF
:100B12006508F3006408F2006308F1006208F0005F
:100B220001300A128A1511200A128A1173088312DF
:100B32000313AC007208AB007108AA007008A90088
:100B42000A128A1137200A128A1183120313280803
:100B520083160313AF0083120313270883160313AC
:100B6200AE0083120313260883160313AD0083120B
:100B72000313250883160313AC00413083120313B9
:100B8200D6002030D5000030D4000030D3008316C8
:100B92000317130883120313DA00831603171208CC
:100BA20083120313D9008316031711088312031348
:100BB200D80083160317100883120313D7000A12F2
:100BC2008A159F240A128A11831203135608831668
:100BD2000313AB0083120313550883160313AA00F1
:100BE20083120313540883160313A90083120313F9
:100BF200530883160313A8002B08F3002A08F200F7
:100C02002908F1002808F0000A168A116D250A1237
:100C12008A11710883160313B9007008B8000A30EC
:100C2200F0000030F1003908F3003808F2000A162B
:100C32008A1184220A128A11700883160313E200B1
:100C42006208C0000A30F0000030F1003908F300F9
:100C52003808F2000A168A11FD220A128A11710856
:100C620083160313B7007008B6000A30F000003094
:100C7200F1003708F3003608F2000A168A118422BE
:100C82000A128A11700883160313E2006208C10077
:100C92000A30F0000030F1003708F3003608F200A5
:100CA2000A168A11FD220A128A117008831603138A
:100CB200E2006208C5000A30F0000030F100450889
:100CC200E200E3016208F2006308F3000A168A11E7
:100CD2008F230A128A11700883160313E400640832
:100CE200C600F30102300A128A1109200A128A117F
:100CF2008316031346080A168A11BE220A128A11A3
:100D02000A168A1165210A128A11F301F30A0230C6
:100D12000A128A1109200A128A1183160313410842
:100D22000A168A11BE220A128A110A168A1165212E
:100D32000A128A11033083160313E2006208F300D9
:100D420002300A128A1109200A128A118316031329
:100D520040080A168A11BE220A128A110A168A113C
:100D620065210A128A11423083120313D600C83059
:100D7200D5000030D4000030D300831603132F08AF
:100D820083120313DA00831603132E08831203134C
:100D9200D900831603132D0883120313D800831678
:100DA20003132C0883120313D7000A128A159F24F7
:100DB2000A128A1183120313560883160313A7001B
:100DC20083120313550883160313A6008312031319
:100DD200540883160313A5008312031353088316C2
:100DE2000313A4002708F3002608F2002508F100E7
:100DF2002408F0000A168A116D250A128A11710858
:100E020083160313B5007008B4000A30F0000030F6
:100E1200F1003508F3003408F2000A168A11842220
:100E22000A128A11700883160313E2006208BE00D8
:100E32000A30F0000030F1003508F3003408F20007
:100E42000A168A11FD220A128A11710883160313E7
:100E5200B3007008B2000A30F0000030F10033082D
:100E6200F3003208F2000A168A1184220A128A1149
:100E7200700883160313E2006208BF000930E20023
:100E82006208F30002300A128A1109200A128A113A
:100E9200831603133F080A168A11BE220A128A1108
:100EA2000A168A1165210A128A110A30831603135F
:100EB200E2006208F30002300A128A1109200A12C3
:100EC2008A11831603133E080A168A11BE220A12D9
:100ED2008A110A168A1165210A128A11153083169F
:100EE2000313E4004B30E300BD30E200E20B772F46
:100EF200E30B772FE40B772F7E2F01300A168A112E
:100F020053210A128A11831603134A080A168A11F8
:100F12003A210A128A111A3083160313E300F730BA
:100F2200E200E20B922FE30B922F972F831603130B
:100F320049080A168A113A210A128A111A308316AE
:100F42000313E300F730E200E20BA52FE30BA52F1A
:100F5200AA2F8316031348080A168A113A210A1285
:100F62008A111A3083160313E300F730E200E20B12
:100F7200B82FE30BB82FBD2F831603134B080A16A5
:100F82008A113A210A128A111A3083160313E300D6
:100F9200F730E200E20BCB2FE30BCB2FD02F8316DF
:100FA200031347080A168A113A210A128A111A30C3
:100FB20083160313E300F730E200E20BDE2FE30BAC
:100FC200DE2FE32F392A0A128A1100288312031313
:100FD200EE018313A0308400CC300A168A11162148
:100FE2000A128A1183179030840098300A168A11E7
:0E0FF20016210A128A1183010A128A11142A8A
:101004008312031388154E30F100EB30F000F00B1F
:101014000928F10B09288312031388110800F8002A
:1010240078080319162817282B28F31F1A281B28B9
:101034002B287009FA007109FB007209FC0073097E
:10104400FD00FA0A0319FB0A0319FC0A0319FD0A35
:1010540033287308FD007208FC007108FB00700857
:10106400FA007308720471047004031D3A283B28C3
:1010740044280030F3000030F2000030F10000306A
:10108400F000CA289630F4007408F900562801309C
:10109400F4007408F90701300310FD0CFC0CFB0C80
:1010A400FA0CFF3E031D4E28FE307D05031D5B2810
:1010B4005C28492878280130F4007408F9070130C5
:1010C400FA07003003180130FB0700300318013021
:1010D400FC07003003180130FD0701300310FD0C3C
:1010E400FC0CFB0CFA0CFF3E031D7028FF307D0541
:1010F400031D7D287E285D288A280130F9020130ED
:10110400F4000310FA0DFB0DFC0DFD0DF40B832808
:10111400FC1B8D288E28942802307902031893280A
:1011240094287F28791897289828A028FF30FA0552
:10113400FF30FB057F30FC05FF30FD050310F90C83
:101144007908F400F501F601F70118300310F40DE5
:10115400F50DF60DF70DFF3E031DA8287408FA04DB
:101164007508FB047608FC047708FD047808031965
:10117400BC28BD28C228F31FC028C128C228FD17D7
:101184007D08F3007C08F2007B08F1007A08F00087
:101194000800831603135F08F3005E08F2005D087D
:1011A400F1005C08F0000030F7000030F600003079
:1011B400F5000030F4000A168A1184260A128A15F2
:1011C4000318E528E628F528213083160313B00018
:1011D4000030B1000030DF000030DE000030DD0000
:1011E4000030DC00162A831603135F08F3005E0840
:1011F400F2005D08F1005C08F0000030F7000030F8
:10120400F6000030F5000030F4000A168A1141237C
:101214000A128A15031C0F2910291F29223083164C
:101224000313B0000030B1000030DF000030DE00F6
:101234000030DD000030DC00162ABF3083120313B7
:10124400C2008030C1000030C0000030BF00403018
:10125400D6000030D5000030D4000030D300E03098
:10126400ED006D08A400831603135F0883120313B3
:10127400A300831603135E0883120313A2008316CC
:1012840003135D0883120313A100831603135C0880
:1012940083120313A0000A168A1144240A128A1521
:1012A400831203132308DA002208D9002108D80086
:1012B4002008D7000A128A159F240A128A1583125D
:1012C40003135608C6005508C5005408C400530843
:1012D400C3000A128A1517220A128A1583120313ED
:1012E400420883160313DF00831203134108831695
:1012F4000313DE0083120313400883160313DD0077
:10130400831203133F0883160313DC00FF30E00746
:101314000318E10AFF30E1075F08CF005E08CE0042
:101324005D08CD005C08CC00053083120313ED008A
:101334006D0883160313D0000830D1000030D200AA
:101344000A168A1126270A128A15831603134F08D0
:10135400DF004E08DE004D08DD004C08DC005F08AD
:1013640083120313C200831603135E08831203134C
:10137400C100831603135D0883120313C000831690
:1013840003135C0883120313BF003F30D6003130CF
:10139400D5007230D4001830D300831603136008CC
:1013A400F0006108F1000030F11BFF30F200F3009F
:1013B40001300A128A1511200A128A157308831241
:1013C4000313DA007208D9007108D8007008D70036
:1013D4000A128A159F240A128A15831203135608C7
:1013E400C6005508C5005408C4005308C3000A12B7
:1013F4008A1517220A128A158312031342088316C8
:101404000313DF0083120313410883160313DE0062
:1014140083120313400883160313DD00831203139E
:101424003F0883160313DC000800831203134208E9
:101434008039C7004708CF004208C7004707C800E3
:101444004808D100C11F272A282A292A51145108E3
:1014540003192D2A2E2A3E2A510A031D322A332A21
:101464003B2A0030C2000030C1000030C000003010
:10147400BF00C117C201462A0030C2000030C100BB
:101484000030C0000030BF0046088039C70047085C
:10149400D00050084F060319502A512A522A4F17D8
:1014A4004608C7004707C8004808D000C51F5B2A84
:1014B4005C2A5D2A501450080319612A622A722A90
:1014C400500A031D662A672A6F2A0030C6000030BE
:1014D400C5000030C4000030C300C517C6017A2A15
:1014E4000030C6000030C5000030C4000030C30026
:1014F4005108500203187F2A802AC42A4F1F832AC6
:10150400842A882A8030C7004708CF065108C700BC
:101514004708D2005008C7004708D1005208C70046
:101524004708D0003F08C7004708D2004308C70057
:101534004708BF005208C7004708C3004008C70057
:101544004708D2004408C7004708C0005208C70033
:101554004708C4004108C7004708D2004508C7002F
:101564004708C1005208C7004708C5004208C70021
:101574004708D2004608C7004708C2005208C700FF
:101584004708C600D2015008C700C8014808CA006D
:1015940051084702C900031CCA034A08803AFF00E5
:1015A40080307F02031DD82A1A304902031CDB2A2B
:1015B400DC2A192B831203134208410440043F041C
:1015C400031DE52AE72A0130E82A0030C70047084E
:1015D400D2000030C2000030C1000030C000003032
:1015E400BF005008C7004708D100212B521CFB2A1A
:1015F400FC2A052B5208C7000310470C0138C80009
:101604004808D200072B0310D20C3F1C0A2B0B2BCB
:101614000C2BD2170130C700420DC20CC10CC00CF8
:10162400BF0CC70B0E2B0130C7004708D10783122C
:10163400031350085102031C202B212BF82A4F1BA3
:10164400242B252B702B5108031D292B2A2B332BDC
:101654000030C2000030C1000030C0000030BF00C4
:101664009E2C4308BF07440803110318013E0319C5
:101674003C2BC007450803110318013E0319432BF3
:10168400C107460803110318013E03194A2BC20778
:10169400421C4D2B4E2B242C521C512B522B5B2BBA
:1016A4005208C7000310470C0138C8004808D2008C
:1016B4005D2B0310D20C3F1C602B612B622BD217C5
:1016C4000130C700420DC20CC10CC00CBF0CC70BCB
:1016D400642B0130C7004708D107242C4208803A04
:1016E400FF004608803A7F02031D822B4508410211
:1016F400031D822B44084002031D822B43083F0232
:101704000318852B862BDE2BFF30C700FF30C80063
:10171400FF30C900FF30CA004308CB004408CC00A6
:101724004508CD004608CE003F08CB024008031C04
:10173400400F9D2B9E2BCC024108031C410FA32B71
:10174400A42BCD024208031C420FA92BAA2BCE02C4
:101754004B08C7074C0803184C0FB12BB22BC80712
:101764004D0803184D0FB72BB82BC9074E080318A3
:101774004E0ACA074A08C2004908C1004808C00006
:101784004708BF008030C7004708CF06D209D20AF5
:101794005208031DCE2BCF2BEC2B0130BF0700309A
:1017A40003180130C007003003180130C1070030AE
:1017B40003180130C207EC2B4308BF024408031C82
:1017C400440FC0024508031C450FC1024608031C10
:1017D400460FC2024208410440043F04031DF32B98
:1017E400F42B202C5208031DF82BF92B202C00304D
:1017F400C2000030C1000030C0000030BF009E2C89
:101804000130C7000310BF0DC00DC10DC20DC70BC1
:10181400042CD21F0E2C0F2C102C3F14521C132CF2
:10182400142C172C0314D20D192C0310D20D5108AB
:1018340003191D2C1E2C202C0130D102C11F232C76
:10184400242C022CD001D21F282C292C372C5208EE
:101854007F3903192E2C2F2C322CD001D00A372C8F
:101864003F1C352C362C372C2F2C500803193B2CBD
:101874003C2C702C0130BF07003003180130C00726
:10188400003003180130C107003003180130C207CB
:10189400421C4D2C4E2C702C3F08C7004008C80039
:1018A4004108C9004208CA000130CB004A0DCA0CE5
:1018B400C90CC80CC70CCB0B582C4A08C2004908E9
:1018C400C1004808C0004708BF00510A03196B2C27
:1018D4006C2C702C0130C7004708D107510A03193A
:1018E400742C752C7A2C5108031D792C7A2C882C95
:1018F4000030C2000030C1000030C0000030BF0022
:101904005108031D862C872C882CCF01511C8B2C4D
:101914008C2C8E2CC117922C7F30C7004708C10530
:101924005108C7000310470CC8004808C200CF1F65
:101934009C2C9D2C9E2CC21708008312031356085E
:101944008039DB005B08E0005608DB005B07DC0045
:101954005C08E600D51FAF2CB02CB12C66146608C9
:101964000319B52CB62CC52C660A031DBA2CBB2C46
:10197400C32C0030D6000030D5000030D400003035
:10198400D300D517CD2C0030D6000030D500003060
:10199400D4000030D3005A088039DB005B08E0062D
:1019A4005A08DB005B07DC005C08E500D91FDB2C70
:1019B400DC2CDD2C651465080319E12CE22CF12CD8
:1019C400650A031DE62CE72CEF2C0030DA0000300A
:1019D400D9000030D8000030D700D917F92C0030D6
:1019E400DA000030D9000030D8000030D700650894
:1019F4000319FD2CFE2C032D6608031D022D032D57
:101A04000C2D0030D6000030D5000030D40000305A
:101A1400D300FF2F5308DB005B08F00059080A16B7
:101A24008A11CF210A128A15710883120313EC005C
:101A34007008EB006B08DB00DC01DD01DE015E08F1
:101A4400E4005D08E3005C08E2005B08E1006C0868
:101A5400DB00DC01DD01DE015E08EA005D08E9006F
:101A64005C08E8005B08E7005408DB005B08F00052
:101A740058080A168A11CF210A128A15710883128E
:101A84000313EC007008EB006B08DB00DC01DD01E4
:101A9400DE015B08E1075C0803110318013E03192A
:101AA400542DE2075D0803110318013E03195B2D51
:101AB400E3075E0803110318013E0319622DE407CE
:101AC4006C08DB00DC01DD01DE015B08E7075C0874
:101AD40003110318013E0319702DE8075D08031173
:101AE4000318013E0319772DE9075E080311031853
:101AF400013E03197E2DEA075508DB005B08F00060
:101B040057080A168A11CF210A128A1571088312FE
:101B14000313EC007008EB006B08DB00DC01DD0153
:101B2400DE015B08E1075C0803110318013E031999
:101B34009C2DE2075D0803110318013E0319A32D30
:101B4400E3075E0803110318013E0319AA2DE407F5
:101B54006C08DB00DC01DD01DE015B08E7075C08E3
:101B640003110318013E0319B82DE8075D0803119A
:101B74000318013E0319BF2DE9075E08031103187A
:101B8400013E0319C62DEA070830DB000310E10DFE
:101B9400E20DE30DE40DDB0BC82D5408DB005B08FC
:101BA400F00057080A168A11CF210A128A15710803
:101BB40083120313EC007008EB006B08DB006C0865
:101BC400DC00DD01DE015B08E1075C08031103189A
:101BD400013E0319EE2DE2075D0803110318013ECF
:101BE4000319F52DE3075E0803110318013E0319D9
:101BF400FC2DE4075308DB005B08F00058080A16C4
:101C04008A11CF210A128A15710883120313EC007A
:101C14007008EB006B08DB006C08DC00DD01DE0102
:101C24005B08E1075C0803110318013E03191B2E2E
:101C3400E2075D0803110318013E0319222EE3078E
:101C44005E0803110318013E0319292EE407083026
:101C5400DB000310E10DE20DE30DE40DDB0B2B2E95
:101C64005308DB005B08F00057080A168A11CF21DD
:101C74000A128A15710883120313EC007008EB0032
:101C84006B08DB006C08DC00DD01DE015B08E107AA
:101C94005C0803110318013E0319512EE2075D0885
:101CA40003110318013E0319582EE3075E080311BC
:101CB4000318013E03195F2EE4075408DB005B0898
:101CC400F00059080A168A11CF210A128A157108E0
:101CD40083120313EC007008EB006B08DB006C0844
:101CE400DC00DD01DE015B08E7075C080311031873
:101CF400013E03197E2EE8075D0803110318013E17
:101D04000319852EE9075E0803110318013E031920
:101D14008C2EEA075508DB005B08F00058080A1609
:101D24008A11CF210A128A15710883120313EC0059
:101D34007008EB006B08DB006C08DC00DD01DE01E1
:101D44005B08E7075C0803110318013E0319AB2E77
:101D5400E8075D0803110318013E0319B22EE907D1
:101D64005E0803110318013E0319B92EEA0755084A
:101D7400DB005B08F00059080A168A11CF210A1209
:101D84008A15710883120313EC007008EB006B08CA
:101D9400DB006C08DC00DD01DE0108300310DB0D24
:101DA400DC0DDD0DDE0DFF3E031DD02E5B08E707C5
:101DB4005C0803110318013E0319E12EE8075D08CE
:101DC40003110318013E0319E82EE9075E08031105
:101DD4000318013E0319EF2EEA076108DB006208CD
:101DE400DC006308DD006408DE0018300310DE0C3C
:101DF400DD0CDC0CDB0CFF3E031DF82E5B08E70753
:101E04005C0803110318013E0319092FE8075D0854
:101E140003110318013E0319102FE9075E0803118B
:101E24000318013E0319172FEA070830DB000310DB
:101E3400E10DE20DE30DE40DDB0B192F66086507D8
:101E4400DB00DC01DC0D5B08823EEB005C08031860
:101E5400013EFF3EEC004B2F0130DB000310E70D89
:101E6400E80DE90DEA0DDB0B302FE41F3A2F3B2F71
:101E74003C2F67140130DB000310E10DE20DE30D8C
:101E8400E40DDB0B3E2FFF30EB070318EC0AFF30A9
:101E9400EC07E91F4E2F4F2F2E2FE501E41F532F80
:101EA400542F702FFF306105DB00FF306205DC002A
:101EB400FF306305DD007F306405DE005E085D04ED
:101EC4005C045B040319672F682F6B2FE501E50A97
:101ED400702F671C6E2F6F2F702F682F65080319E2
:101EE400742F752FA62F0130E70700300318013037
:101EF400E807003003180130E90700300318013007
:101F0400EA076A1C862F872FA62F6708DB0068085C
:101F1400DC006908DD006A08DE000130DF005E0DC8
:101F2400DE0CDD0CDC0CDB0CDF0B912F5E08EA0011
:101F34005D08E9005C08E8005B08E7000130EB0796
:101F44000318EC0A0030EC076C08803AFF0080307C
:101F54007F02031DAF2FFF306B02031CB22FB32F80
:101F6400BE2F7F3083120313EA008030E900003073
:101F7400E8000030E700F32F831203136C08803A63
:101F8400FF0080307F02031DC92F01306B0203184C
:101F9400CC2FCD2FD92F003083120313EA00003049
:101FA400E9000030E8000030E700E001F32F83127D
:101FB40003136B08DB005B08E600FF30E705FF3026
:101FC400E8057F30E9050030EA05661CEA2FEB2FAF
:101FD400EC2FE9176608DB0003105B0CDC005C08DF
:101FE400EA006008DB005B08EA046A08D6006908B6
:101FF400D5006808D4006708D300080010308A00B0
:102004000408840A820700340034C0347F34443422
:102014000034003400340034C434FF347F343F349B
:102024008034EF34FF34BE349034E134A9343E3488
:10203400EC3482347634BE348234AD342B343E34C2
:102044000E343C34C334BD348734D13413343D347A
:1020540041347834D334BB340F34CF345B343B3421
:1020640063341D349B3439345034453453344F3441
:102074000034543445344D345034003456344934E7
:10208400423400344F3446344634003449344E34F8
:10209400543400344D344F34563400344F344E34B9
:0220A400003406
:10222C0064008001840A040603190034040617298B
:10223C000A168A1146210A168A11831603131114E1
:10224C0008000A168A1146210A168A1183160313EE
:10225C00111508000A168A1146210A168A117008EF
:10226C008312031393000800F00083160313981CC9
:10227C00402941293B297008831203139900080057
:10228C008316031314194B294C29462911081F399D
:10229C00031D5129522946290800F2000A168A11F9
:1022AC00F6210A168A11720883120313860088130A
:1022BC0008110A128A1502200A168A110800F20067
:1022CC000A168A11F6210A168A1172088312031350
:1022DC008600881708110A128A1502200A168A111C
:1022EC000800831603138501860187018801831674
:1022FC00031788018901003083120313A3000130F6
:10230C00A2008630A100A030A0000A168A114C222F
:10231C000A168A11080038300A168A1153210A1637
:10232C008A110C300A168A1153210A168A110130AF
:10233C000A168A1153210A168A1106300A168A11B6
:10234C0053210A168A1180300A168A1153210A1653
:10235C008A110800F400C229740884000A168A1134
:10236C0000200A168A110A168A1165210A168A118A
:10237C000130F3007308F407740884000A168A11FC
:10238C0000200A168A11003A031DCD29CE29B22944
:10239C000800F800F401F5017008F200F30172086E
:1023AC00F6007308F700781CDC29DD29E329760890
:1023BC00F4070318F50A7708F50701300310F60D3A
:1023CC00F70DFF3E031DE4290310F80C7808031DDC
:1023DC00F029F129D9297508F1007408F0000800DA
:1023EC00FF308312031386008030F00070088605DE
:1023FC008813081588114E30F100EB30F000F00B0B
:10240C00052AF10B052A8312031388158030060662
:10241C00031D112A122A1E2A88114E30F100EB30AE
:10242C00F000F00B172AF10B172A831203138815EF
:10243C0008000A168A1146210A168A1183160313FC
:10244C0091150A168A1146210A168A118312031352
:10245C001308F200F3017208F4007308F5000A1671
:10246C008A1146210A168A117008710403193F2A31
:10247C00432A831603139116462A831603139112CB
:10248C0011167508F1007408F0000800283083124A
:10249C000313940083160313910183120313200872
:1024AC00A4002108A5002208A6002308A7000230DA
:1024BC000310A40DA50DA60DA70DFF3E031D5E2A4E
:1024CC002708F3002608F2002508F1002408F00084
:1024DC000030F7007A30F6001230F5000030F400CE
:1024EC000A168A11A0240A168A117008FF3E831658
:1024FC0003139300940187150716080070087104E4
:10250C000319892A8A2AB92AF501F50A982A013071
:10251C000310F00DF10DFF3E031D8E2A0130F40067
:10252C007408F507F11F9B2A9C2A8D2A71087302E7
:10253C00031DA22A70087202031CA52AA62AAC2A23
:10254C007008F2027108031CF303F302013003104C
:10255C00F10CF00CFF3E031DAD2A0130F502031DFA
:10256C00B82AB92A9C2A7308F1007208F0000800F6
:10257C00F200D42A3030FC2A3130FC2A3230FC2ACA
:10258C003330FC2A3430FC2A3530FC2A3630FC2A15
:10259C003730FC2A3830FC2A3930FC2A7208F0001B
:1025AC00F1017108003A0319DC2AFC2A7008003A80
:1025BC000319C02A013A0319C22A033A0319C42A7F
:1025CC00013A0319C62A073A0319C82A013A031912
:1025DC00CA2A033A0319CC2A013A0319CE2A0F3A14
:1025EC000319D02A013A0319D22AFC2A0800F50152
:1025FC00F601700871040319042B052B3C2BF70111
:10260C00F70A132B01300310F00DF10DFF3E031DE3
:10261C00092B0130F4007408F707F11F162B172B48
:10262C00082B01300310F50DF60DFF3E031D182B82
:10263C0071087302031D242B70087202031C272BD4
:10264C00282B2F2B7008F2027108031CF303F302E2
:10265C00751401300310F10CF00CFF3E031D302BF0
:10266C000130F702031D3B2B3C2B172B7608F10096
:10267C007508F000080000307005F8000030710596
:10268C00F90080307205FA007F307305FB007B087F
:10269C007A0479047804031D542B552B5D2B0030E0
:1026AC00F3000030F2000030F1000030F000003098
:1026BC007405F80000307505F90080307605FA00D5
:1026CC007F307705FB007B087A0479047804031DBE
:1026DC00702B712B792B0030F7000030F600003096
:1026EC00F5000030F40077087306031D872B76087D
:1026FC007206031D872B75087106031D872B740842
:10270C00700603198A2B8B2B8D2B03108E2B031425
:10271C000800F601F31F932B942B9B2BF209F30962
:10272C00F20A0319F30AF601F60AF11F9E2B9F2BEE
:10273C00A42BF009F109F00A0319F10A70087104CD
:10274C000319A92BAA2BD92BF501F50AB82B0130AB
:10275C000310F00DF10DFF3E031DAE2B0130F40004
:10276C007408F507F11FBB2BBC2BAD2B7108730242
:10277C00031DC22B70087202031CC52BC62BCC2B5D
:10278C007008F2027108031CF303F302013003100A
:10279C00F10CF00CFF3E031DCD2B0130F502031D97
:1027AC00D82BD92BBC2B76080319DD2BDE2BE32B76
:1027BC00F209F309F20A0319F30A7308F10072081B
:1027CC00F0000800F200202C831603130F128F1256
:1027DC000F13422C831603130F168F120F13422C58
:1027EC00831603130F128F160F13422C8316031329
:1027FC000F168F160F13422C831603130F128F1202
:10280C000F17422C831603130F168F120F17422C1F
:10281C00831603130F128F160F17422C83160313F4
:10282C000F168F160F17422C831603130F128F16C9
:10283C000F17422C7208F000F1017108003A0319CD
:10284C00282C1A2C7008003A0319EA2B013A0319A8
:10285C00F02B033A0319F62B013A0319FC2B073A18
:10286C000319022C013A0319082C033A03190E2CF4
:10287C00013A0319142C1A2C0F1408008312031399
:10288C002308F3002208F2002108F1002008F000D0
:10289C000030F7000030F6000030F5000030F40096
:1028AC000A168A1141230A168A11031C5E2C5F2C0E
:1028BC00702C831203132408840083138001840A70
:1028CC0080010030A3000030A2000030A1000030D5
:1028DC00A0009F2C8312031323087F39FC00FD01F9
:1028EC000310FC0DFD0D240884007C08831380006C
:1028FC00840A7D088000220D220D0139FC00FD01A7
:10290C00240884007C088004840A7D088004240840
:10291C00840082308007840F00080318000AFF002F
:10292C00FF307F0780008403230880393F38A300E1
:10293C00A21308000030FC000030FB000030FA004D
:10294C000030F90073087204710470040319AF2C81
:10295C00B02CFD2CFD01FD0AC02C0130F800031039
:10296C00F00DF10DF20DF30DF80BB52C0130F80054
:10297C007808FD07F31FC32CC42CB32C0130F800CE
:10298C000310F90DFA0DFB0DFC0DF80BC62C73089A
:10299C007702031DDB2C72087602031DDB2C7108F9
:1029AC007502031DDB2C70087402031CDE2CDF2C5B
:1029BC00EE2C7008F4027108031C710FF5027208FA
:1029CC00031C720FF6027308031C730FF7027914C1
:1029DC0001300310F30CF20CF10CF00CFF3E031D54
:1029EC00EF2C0130FD02031DFC2CFD2CC42C7C08AB
:1029FC00F3007B08F2007A08F1007908F000080077
:102A0C00831203132608AA002708AB002808AC0081
:102A1C002908AD0004300310AA0DAB0DAC0DAD0DA3
:102A2C00FF3E031D112D2D08F3002C08F2002B087E
:102A3C00F1002A08F0002608AE002708AF0028088D
:102A4C00B0002908B10004300310AE0DAF0DB00D6D
:102A5C00B10DFF3E031D2A2D0030B2001230B30021
:102A6C007A30B4000030B5002E08B2022F08031CD7
:102A7C002F0F412D422DB3023008031C300F472D70
:102A8C00482DB4023108031C310F4D2D4E2DB502CB
:102A9C003508F7003408F6003308F5003208F40066
:102AAC000A168A11E7250A168A1170088316031371
:102ABC0099001815181283120313981718168316F9
:102ACC00031398161813831203131813080003101A
:102ADC00720D730DF4007408FA007A08031D772D3B
:102AEC00782D812D0030F3000030F2000030F10021
:102AFC000030F000E62D7008F4007108F500720843
:102B0C00F6007308F7001F300310F70CF60CF50CE9
:102B1C00F40CFF3E031D8A2D7408F8007808F900A8
:102B2C00F217FF30F005FF30F105FF30F2050030F1
:102B3C00F3059630FA02FA1FA42DA52DBF2D7A08A5
:102B4C00803A973E0318AB2DAC2DAD2D782D01306E
:102B5C000310F30CF20CF10CF00CFF3E031DAE2D28
:102B6C000130F4007408FA07031DBD2DBE2DAD2DE8
:102B7C00D62D20307A02031CC42DC52DD12D782DD5
:102B8C000130F4000310F00DF10DF20DF30DF40B08
:102B9C00C82D0130FA027A08031DD52DD62DC62D6D
:102BAC0079080319DA2DDB2DE62DF009F109F2096C
:102BBC00F309F00A0319F10A0319F20A0319F30ACB
:102BCC00080083120313A101F31FED2DEE2DFB2D35
:102BDC00F009F109F209F309F00A0319F10A0319D2
:102BEC00F20A0319F30AA101A10AF71FFE2DFF2D0A
:102BFC000E2EF409F509F609F709F40A0319F50A7A
:102C0C000319F60A0319F70A0130F8007808A1062F
:102C1C000030A5000030A4000030A3000030A2005A
:102C2C00730872047104700403191D2E1E2E6B2E72
:102C3C00A001A00A2E2E0130F8000310F00DF10DAA
:102C4C00F20DF30DF80B232E0130F8007808A007D5
:102C5C00F31F312E322E212E0130F8000310A20D5D
:102C6C00A30DA40DA50DF80B342E73087702031DCC
:102C7C00492E72087602031D492E71087502031D38
:102C8C00492E70087402031C4C2E4D2E5C2E7008BD
:102C9C00F4027108031C710FF5027208031C720F09
:102CAC00F6027308031C730FF70222140130031091
:102CBC00F30CF20CF10CF00CFF3E031D5D2E0130F9
:102CCC00A002031D6A2E6B2E322E210803196F2EC3
:102CDC00702E7B2EA209A309A409A509A20A031927
:102CEC00A30A0319A40A0319A50A2508F30024084A
:102CFC00F2002308F1002208F000080000307005F3
:102D0C00F80000307105F90080307205FA007F3050
:102D1C007305FB007B087A0479047804031D972E55
:102D2C00982EA02E0030F3000030F2000030F1009D
:102D3C000030F00000307405F80000307505F90023
:102D4C0080307605FA007F307705FB007B087A042B
:102D5C0079047804031DB32EB42EBC2E0030F7007A
:102D6C000030F6000030F5000030F400F31FBF2EE9
:102D7C00C02EE42E0030F8000030F9000030FA00CC
:102D8C008030FB007008F8027108031C710FCF2E05
:102D9C00D02EF9027208031C720FD52ED62EFA0211
:102DAC007308031C730FDB2EDC2EFB027B08F30075
:102DBC007A08F2007908F1007808F000F71FE72E86
:102DCC00E82E0C2F0030F8000030F9000030FA002B
:102DDC008030FB007408F8027508031C750FF72E81
:102DEC00F82EF9027608031C760FFD2EFE2EFA0241
:102DFC007708031C770F032F042FFB027B08F700C7
:102E0C007A08F6007908F5007808F4008030F306AB
:102E1C008030F70677087302031D1E2F76087202A6
:102E2C00031D1E2F75087102031D1E2F74087002DE
:102E3C000318212F222F242F0310252F03140800F1
:102E4C00831603135108D30001300310D30DFF3E3A
:102E5C00031D2B2F0310530D500784000A168A11E3
:102E6C0000200A168A11D4000A168A1100200A16AC
:102E7C008A11D5000A168A1100200A168A11D6006A
:102E8C000A168A1100200A168A11D7005708DB008F
:102E9C005608DA005508D9005408D800F12FFF3035
:102EAC00D1070318D20AFF30D2075108D3000130E2
:102EBC000310D30DFF3E031D5E2F0310530D50075F
:102ECC0084000A168A1100200A168A11D4000A16E8
:102EDC008A1100200A168A11D5000A168A110020C0
:102EEC000A168A11D6000A168A1100200A168A11AF
:102EFC00D700570883120313C20083160313560816
:102F0C0083120313C1008316031355088312031392
:102F1C00C00083160313540883120313BF008316D7
:102F2C0003135B0883120313D600831603135A088A
:102F3C0083120313D500831603135908831203134A
:102F4C00D40083160313580883120313D30083167B
:102F5C0003134F0883120313DA00831603134E086E
:102F6C0083120313D900831603134D088312031322
:102F7C00D800831603134C0883120313D7000A12CC
:102F8C008A159F240A168A11831203135608C60049
:102F9C005508C5005408C4005308C3000A128A150A
:102FAC0017220A168A11831203134208831603137D
:102FBC00DB0083120313410883160313DA00831218
:102FCC000313400883160313D900831203133F081D
:102FDC0083160313D80051085204031DF62FF72F44
:102FEC00552F5B08CF005A08CE005908CD00580861
:042FFC00CC000800FD
:04400E00D4E0FFFFFC
:00000001FF
