:020000040000FA
:100000000A128A11F52FFF0000308A007F0882074C
:0800100008280A128A11AC2D28
:100B4C00F000700883120313930008008312031340
:100B5C008C1EB12DB22DB32D1A080800F30083168C
:100B6C0003138712731DBB2DBC2DC02D720894006E
:100B7C008715C42D700872049400871173087104D2
:100B8C008312031394000800831603138501860156
:100B9C00D0308700880188108316031788018901DB
:100BAC00831603138C160B178B17F001F101F2014E
:100BBC0024300A128A11B4250A128A110800F20094
:100BCC001D2E831603130F128F120F133F2E831635
:100BDC0003130F168F120F133F2E831603130F12CE
:100BEC008F160F133F2E831603130F168F160F132A
:100BFC003F2E831603130F128F120F173F2E8316DF
:100C0C0003130F168F120F173F2E831603130F1299
:100C1C008F160F173F2E831603130F168F160F17F1
:100C2C003F2E831603130F128F160F173F2E7208C9
:100C3C00F000F1017108003A0319252E172E7008E7
:100C4C00003A0319E72D013A0319ED2D033A031964
:100C5C00F32D013A0319F92D073A0319FF2D013A27
:100C6C000319052E033A03190B2E013A0319112E01
:100C7C00172E0F140800831203132608AA00270846
:100C8C00AB002808AC002908AD0004300310AA0DF5
:100C9C00AB0DAC0DAD0DFF3E031D4C2E2D08F3001E
:100CAC002C08F2002B08F1002A08F0002608AE00F0
:100CBC002708AF002808B0002908B1000430031041
:100CCC00AE0DAF0DB00DB10DFF3E031D652E003006
:100CDC00B2001230B3007A30B4000030B5002E08E8
:100CEC00B2022F08031C2F0F7C2E7D2EB30230086E
:100CFC00031C300F822E832EB4023108031C310FDB
:100D0C00882E892EB5023508F7003408F600330812
:100D1C00F5003208F4000A128A11A8260A128A1168
:100D2C0070088316031399001815181283120313F5
:100D3C009817181683160313981618138312031397
:100D4C001813080083120313A101F31FAE2EAF2E4C
:100D5C00BC2EF009F109F209F309F00A0319F10AA2
:100D6C000319F20A0319F30AA101A10AF71FBF2EF6
:100D7C00C02ECF2EF409F509F609F709F40A031968
:100D8C00F50A0319F60A0319F70A0130F800780876
:100D9C00A1060030A5000030A4000030A3000030F4
:100DAC00A20073087204710470040319DE2EDF2E86
:100DBC002C2FA001A00AEF2E0130F8000310F00D2B
:100DCC00F10DF20DF30DF80BE42E0130F80078085C
:100DDC00A007F31FF22EF32EE22E0130F8000310C1
:100DEC00A20DA30DA40DA50DF80BF52E730877021B
:100DFC00031D0A2F72087602031D0A2F7108750253
:100E0C00031D0A2F70087402031C0D2F0E2F1D2FAB
:100E1C007008F4027108031C710FF5027208031CB0
:100E2C00720FF6027308031C730FF70222140130C1
:100E3C000310F30CF20CF10CF00CFF3E031D1E2FF3
:100E4C000130A002031D2B2F2C2FF32E2108031988
:100E5C00302F312F3C2FA209A309A409A509A20AFE
:100E6C000319A30A0319A40A0319A50A2508F300F8
:100E7C002408F2002308F1002208F00008000730D3
:100E8C000A128A11E5250A128A110A128A11CA2538
:100E9C000A128A11003083120313A9000030A80033
:100EAC002530A7008030A6000A128A1141260A12AA
:100EBC008A110230FB000430FA00BA30F900F90B49
:100ECC00652FFA0B652FFB0B652F00000A128A1198
:100EDC00AC250A128A11F9007908FD007D080A1266
:100EEC008A11A6250A128A110330FB000830FA0079
:100EFC007730F900F90B802FFA0B802FFB0B802F2A
:100F0C000A128A11AC250A128A11F9007908FC0020
:100F1C007C080A128A11A6250A128A110330FB00DA
:100F2C000830FA007730F900F90B9A2FFA0B9A2F48
:100F3C00FB0B9A2F0130F900790883120313B800C8
:100F4C0038080A128A11A6250A128A110330FB00EE
:100F5C000830FA007730F900F90BB22FFA0BB22FE8
:100F6C00FB0BB22F0A128A11AC250A128A11F90056
:100F7C00790883120313B70037080A128A11A625C1
:100F8C000A128A110330FB000830FA007730F9009E
:100F9C00F90BCE2FFA0BCE2FFB0BCE2F0A128A1188
:100FAC00AC250A128A11F900790883120313B600D2
:100FBC0036080A128A11A6250A128A110230FB0081
:100FCC000430FA00BA30F900F90BEA2FFA0BEA2FC9
:100FDC00FB0BEA2F00005F2F0A128A110028FC017C
:100FEC00FD0183120313B601B701B80183010A1284
:040FFC008A11452FE2
:04400E00D4E0FFFFFC
:00000001FF
