:020000040000FA
:060000000A128A110C280F
:10000800FE00030EF1000A08F2000A128A112929DB
:100018000A128A110F28F801F901FA01FB01FC0103
:10002800FD0183120313A001A101A20183010A1299
:100038008A111E2807300A128A118C210A128A1185
:100048000A128A1102220A128A11831203138501E5
:10005800860187018801831203130803031D3528CD
:10006800362824290614091D3A283B289F28FB0115
:10007800F90101308312031385000830F700C930F5
:10008800F600F60B4528F70B45284A28033083125B
:10009800031385000830F700C930F600F60B522824
:1000A800F70B5228572802308312031385000830B3
:1000B800F700C930F600F60B5F28F70B5F286428B5
:1000C80006308312031385000830F700C930F600A4
:1000D800F60B6C28F70B6C28712808308312031371
:1000E80085000830F700C930F600F60B7928F70BC1
:1000F80079287E2809308312031385000830F70019
:10010800C930F600F60B8628F70B86288B280130B5
:10011800F6007608F907FA307902031C9428952826
:100128003D280130F6007608FB0715307B02031CDA
:100138009E289F283C2883120313891CA428A528DD
:100148002F28FA01F80109308312031385000830BB
:10015800F700C930F600F60BAF28F70BAF28B42824
:1001680008308312031385000830F700C930F60001
:10017800F60BBC28F70BBC28C1280C3083120313DC
:1001880085000830F700C930F600F60BC928F70BD0
:10019800C928CE2804308312031385000830F700DD
:1001A800C930F600F60BD628F70BD628DB28063020
:1001B8008312031385000830F700C930F600F60BE8
:1001C800E328F70BE328E82802308312031385009D
:1001D8000830F700C930F600F60BF028F70BF028C6
:1001E800F52803308312031385000830F700C9305F
:1001F800F600F60BFD28F70BFD28022901308312C3
:10020800031385000830F700C930F600F60B0A29F9
:10021800F70B0A290F290130F6007608F807FA309B
:100228007802031C18291929A7280130F600760836
:10023800FA0713307A02031C22292329A6282F281B
:1002480086142F280A128A110C28831203138C1D76
:100258002E292F2985291412141B332934293829CA
:10026800941F372938293F291308F0007008FD002A
:1002780014139413141683160313941A4429452946
:10028800612914194829492961298312031313087C
:10029800F0007008FD008C11141683160313141C4B
:1002A8005629572951298312031313088800A630A9
:1002B800F000F00B5D2900008229941A6429652951
:1002C8008229141D682969298229831203131308B6
:1002D800F0007008FD008316031314107C088312C5
:1002E800031393001416A630F000F00B79290000D0
:1002F800831603131418812982297C298312031376
:100308008C1172088A00710E8300FE0E7E0E0900A1
:10031800F500C429831603130F128F120F13E62951
:10032800831603130F168F120F13E6298316031370
:100338000F128F160F13E629831603130F168F1645
:100348000F13E629831603130F128F120F17E629CE
:10035800831603130F168F120F17E629831603133C
:100368000F128F160F17E629831603130F168F1611
:100378000F17E629831603130F128F160F17E62996
:100388007508F300F4017408003A0319CC29BE2952
:100398007308003A03198E29013A03199429033A7C
:1003A80003199A29013A0319A029073A0319A6291A
:1003B800013A0319AC29033A0319B229013A03197E
:1003C800B829BE290F140800F30073088316031315
:1003D800930036308312031394008030831603137E
:1003E800940001309100871507168B170B1783129D
:1003F80003138C11831603138C150800831603133B
:100408008501860187018801063089008316031754
:100418008801890180300A128A11E8210A128A119A
:020428000800CA
:04400E00D4E0FFFFFC
:00000001FF
