:020000040000FA
:060000000A128A11FA2F1A
:100ECE0030308312031397040D3095000800CF3095
:100EDE00831203139705033095000800831603133E
:100EEE0007159B3092003F308312031397051708A6
:100EFE00F0390C3897001B309500303097048C1069
:100F0E000330920412158C1C8D2F8E2F8A2F8C106D
:100F1E008316031307110800831603130F088F3966
:100F2E0030388F0083160317880189018316031347
:100F3E0085018601880183120313860188018501CC
:100F4E0003308316031386008B170B171614961493
:100F5E008B150B1008000A128A1193270A128A1198
:100F6E000A128A1175270A128A1183120313061C9C
:100F7E00C12FC22FC42FF101F10A7103031DC82F17
:100F8E00C92FD92F0618CC2FCD2FD92FF930F2001B
:100F9E00D02FF20BCF2FD32FD42F0A128A116727FF
:100FAE000A128A1183120313861CDE2FDF2FE12F04
:100FBE00F001F00A7003031DE52FE62FBC2F8618F3
:100FCE00E92FEA2FBC2FF930F200ED2FF20BEC2FA8
:100FDE00F02FF12F0A128A116E270A128A11BC2FD6
:100FEE000A128A110028F001F10183010A128A11F6
:020FFE00B22F10
:04400E00D4E0FFFFFC
:00000001FF
