:020000040000FA
:060000000A128A110C280F
:10000800FE00030EF1000A08F2000A128A111828ED
:100018000A128A110F28F601F701F801F901FA010D
:1000280083010A128A11D728831203138C1D1D28F5
:100038001E2874281412141B222823282728941FEA
:10004800262827282E281308F0007008FA00141311
:100058009413141683160313941A3328342851283A
:100068001419372838285128831203131308F0006D
:100078007008FA008C11141683160313141C4528F3
:1000880046284028831203131308F0007008F9006B
:100098000A30F000F00B4E287128941A542855287D
:1000A8007128141D5828592871288312031313081E
:1000B800F0007008FA0083160313141079088312ED
:1000C8000313930014160A30F000F00B6928831606
:1000D80003131418702871286B28831203138C11CA
:1000E80072088A00710E8300FE0E7E0E0900F5006C
:1000F800B328831603130F128F120F13D5288316F4
:1001080003130F168F120F13D528831603130F121C
:100118008F160F13D528831603130F168F160F1378
:10012800D528831603130F128F120F17D52883169D
:1001380003130F168F120F17D528831603130F12E8
:100148008F160F17D528831603130F168F160F1740
:10015800D528831603130F128F160F17D528750885
:10016800F300F4017408003A0319BB28AD2873089A
:10017800003A03197D28013A03198328033A031921
:100188008928013A03198F28073A03199528013A53
:1001980003199B28033A0319A128013A0319A72830
:1001A800AD280F14080003300A128A117B200A12A6
:1001B8008A110A128A1144210A128A110A128A1112
:1001C8000C210A128A118312031385018601870103
:1001D800880100308312031308180130F900790CE4
:1001E800031C0510031805147903031DFC28FD28BA
:1001F80003290A128A115D210A128A11ED280A12AE
:100208008A1156210A128A11ED280A128A110C281D
:100218008316031307159B3092003F308312031394
:1002280097051708F0390C3897001B3095003030C7
:1002380097048C100330920412158C1C242925294C
:1002480021298C108316031307110800F300730883
:1002580083160313930036308312031394008030FF
:1002680083160313940001309100871507168B1726
:100278000B17831203138C11831603138C150800B4
:1002880083160313850186018701013088008316D0
:1002980003178801890130300A128A112A210A12AB
:1002A8008A110800CF308312031397050330950095
:1002B800080030308312031397040D3095000800AE
:04400E00D4E0FFFFFC
:00000001FF
