:020000040000FA
:060000000A128A110C280F
:10000800FE00030EF1000A08F2000A128A111828ED
:100018000A128A110F28F601F701F801F901FA010D
:1000280083010A128A11D928831203138C1D1D28F3
:100038001E2876281412141B222823282728941FE8
:10004800262827282E281308F0007008FA00141311
:100058009413141683160313941A33283428522839
:100068001419372838285228831203131308F0006C
:100078007008FA008C11141683160313141C4528F3
:1000880046284028831203131308F0007008F9006B
:10009800A630F000F00B4E2800007328941A55285B
:1000A80056287328141D59285A28732883120313B5
:1000B8001308F0007008FA00831603131410790867
:1000C8008312031393001416A630F000F00B6A286D
:1000D8000000831603131418722873286D288312DE
:1000E80003138C1172088A00710E8300FE0E7E0EB7
:1000F8000900F500B528831603130F128F120F138A
:10010800D728831603130F168F120F13D7288316B9
:1001180003130F128F160F13D728831603130F1606
:100128008F160F13D728831603130F128F120F176A
:10013800D728831603130F168F120F17D728831685
:1001480003130F128F160F17D728831603130F16D2
:100158008F160F17D728831603130F128F160F1732
:10016800D7287508F300F4017408003A0319BD286C
:10017800AF287308003A03197F28013A0319852824
:10018800033A03198B28013A03199128073A0319EE
:100198009728013A03199D28033A0319A328013A1D
:1001A8000319A928AF280F14080003300A128A116E
:1001B8007D200A128A110A128A1141210A128A1113
:1001C8000A128A1109210A128A118312031385015E
:1001D8008601870188010030831203130818013053
:1001E800F9007903031DF928FA2800290A128A114F
:1001F80053210A128A11EF280A128A115A210A1267
:100208008A11EF280A128A110C288316031307157E
:100218009B3092003F308312031397051708F0397B
:100228000C3897001B309500303097048C10033041
:10023800920412158C1C212922291E298C10831640
:10024800031307110800F3007308831603139300C0
:1002580036308312031394008030831603139400FE
:1002680001309100871507168B170B17831203139C
:100278008C11831603138C1508008316031385014C
:1002880086018701013088008316031788018901D8
:1002980030300A128A1127210A128A110800CF3039
:1002A800831203139705033095000800303083123A
:0A02B800031397040D3095000800B1
:04400E00D4E0FFFFFC
:00000001FF
